:100000000C9433160C945D160C945D160C945D16CE
:100010000C945D160C945D160C945D160C945D1694
:100020000C945D160C945D160C945D160C945D1684
:100030000C945D160C9492D50C945D160C945D1680
:100040000C945D160C94219D0C9447A00C945D16A5
:100050000C946E360C9464360C945D160C945D16FC
:100060000C945D160C945D160C945D160C945D1644
:100070000C945D160C945D160C945D160C945D1634
:100080000C940A2F0C945D160C945D16C93DAC3D82
:10009000AF3DCC3DB23DB53DB83DC43DBB3DD73D88
:1000A000BE3DC13DD6A295A1CCA112A3CCA1CCA1AD
:1000B000CCA1CCA1CCA1CCA1CCA1CCA1CCA1CCA1D8
:1000C000CCA1CCA1CCA1CCA1CCA1CCA1CCA1CCA1C8
:1000D000CCA1CCA1CCA1CCA1CCA1CCA1CCA1CCA1B8
:1000E0000CA3CCA1CCA1CCA1CCA1CCA1CCA1CCA166
:1000F000CCA1E5A2CCA1CCA1CCA1CCA1CCA1CCA17E
:10010000CCA1CCA1CCA1CCA129A3C9A13AC43DC406
:1001100030C434C454C454C441C445C44BC44FC493
:10012000F6C7FBC700C80AC838C838C814C81CC8F6
:1001300024C82EC84E414E494E495459494E46CDC9
:10014000CCCC3D0AD7233C17B7D13877CC2B32958E
:1001500095E6241FB14F0A000020410000C842006C
:10016000401C4620BCBE4CCA1B0E5AAEC59D740036
:10017000407A10F35A00A0724E18090010A5D4E876
:100180000000E87648170000E40B54020000CA9A09
:100190003B000000E1F5050000809698000000405B
:1001A000420F000000A086010000001027000000A0
:1001B00000E803000000006400000000000A0000E6
:1001C0000000000100000000002C76D888DC674F9A
:1001D0000823DFC1DFAE59E1B1B796E5E3E453C6CA
:1001E0003AE651997696E8E6C28426EB898C9B62C2
:1001F000ED407C6FFCEFBC9C9F40F2BAA56FA5F46C
:1002000090055A2AF75C936B6CF9676DC11BFCE093
:10021000E40D47FEF520E6B500D0ED902E030094E6
:100220003577050080841E080000204E0A0000007B
:10023000C80C333333330F986E12831141EF8D2185
:1002400014893BE65516CFFEE6DB18D1844B381BEC
:10025000F77C1D901DA4BBE424203284725E2281B1
:1002600000C9F124ECA1E53D27434F4D4D554E49C2
:10027000434154494F4E0044525952554E00455245
:10028000524F525300494E464F004543484F006F6E
:100290006B003F5A206F7574206F662072616E6725
:1002A000652028003F59206F7574206F66207261A9
:1002B0006E676520282D0020746F20003F58206F46
:1002C0007574206F662072616E676520282D00505E
:1002D000726F6265204F66667365742058004545ED
:1002E00050524F4D204F4B0A004F66667365747332
:1002F000204170706C696564004572723A20546FD9
:100300006F206661722100546F6F206661722066F3
:10031000726F6D207265666572656E636520706FC1
:10032000696E740A004D34323120696E636F7272E7
:1003300065637420706172616D6574657220757398
:100340006167650A006469730043290A0061626C91
:10035000656420286D696E2074656D702000436FA0
:100360006C642065787472756465732061726520B1
:100370000020643A0020693A0020703A00496E7605
:10038000616C69642065787472756465720A0050E6
:10039000726F6265204F6666736574205A00205341
:1003A0006572766F200020466C6F773A20004652C7
:1003B0003A0020204D61783A200020204D696E3AA5
:1003C0002000536F667420656E6473746F70733AA7
:1003D00020003F4A206F7574206F662072616E673F
:1003E000652028302E303120746F20302E33290ABA
:1003F00000205400205200416363656C6572617493
:10040000696F6E3A2050004D31343520533C696E8F
:100410006465783E206F7574206F662072616E6728
:10042000652028302D31290A002F2F200043484114
:100430004D4245525F54454D5045524154555245E9
:1004400000424142595354455050494E4700415291
:100450004353004D4F54494F4E5F4D4F4445530059
:10046000544845524D414C5F50524F5445435449B6
:100470004F4E004C4F4E475F46494C454E414D450F
:10048000004155544F5245504F52545F53445F53AF
:100490005441545553005344434152440050524F29
:1004A0004D50545F535550504F525400454D455296
:1004B00047454E43595F50415253455200434153C3
:1004C000455F4C494748545F4252494748544E455E
:1004D000535300544F47474C455F4C49474854538A
:1004E00000534F4654574152455F504F57455200B5
:1004F0004255494C445F50455243454E54004C458B
:1005000056454C494E475F44415441005A5F505252
:100510004F42450052554E4F5554004155544F4C93
:100520004556454C005052494E545F4A4F42005088
:10053000524F4752455353004155544F5245504F27
:1005400052545F54454D5000564F4C554D455452F2
:1005500049430042494E4152595F46494C455F5418
:1005600052414E534645520053455249414C5F5803
:100570004F4E5F584F4646004649524D57415245EF
:100580005F4E414D453A4D61726C696E20627567F0
:100590006669782D322E302E7820284F6374202003
:1005A0003220323032302031353A32363A31392940
:1005B00020534F555243455F434F44455F55524C7E
:1005C0003A68747470733A2F2F6769746875622E75
:1005D000636F6D2F4D61726C696E4669726D7761E4
:1005E00072652F4D61726C696E2050524F544F43AB
:1005F0004F4C5F56455253494F4E3A312E30204DA5
:10060000414348494E455F545950453A456E6465EB
:10061000722D352050726F20455854525544455222
:100620005F434F554E543A3120555549443A63651E
:100630006465326132662D343161322D343734389D
:100640002D396231322D63353563363266333637B4
:1006500066660A00456E6465722D352050726F2003
:100660004F46462E004D3131332053004D3131324B
:100670002053687574646F776E006F66660044453A
:100680004255473A00452025530050726F74656308
:100690007465642050696E0A00496E76616C696405
:1006A0002050696E204D6F64650A00256979202508
:1006B0006964202569682025696D202569730050CB
:1006C00072696E742074696D653A20004E6F204D1A
:1006D0006F76652E00436C69636B20746F205265E2
:1006E00073756D652E2E2E004D65736820706F69D1
:1006F0006E74206F7574206F662072616E67650A74
:10070000005A2050726F62652050617374204265F8
:10071000640A005A2050726F626520506173742021
:1007200042656400536C6565702E2E2E0000005CDF
:100730004300005C43000000008A0285027E0277CD
:100740000269020000484200004842000080400068
:10075000005C4300005C43000096430101FF4572CA
:10076000726F722077726974696E6720746F2045AA
:100770004550524F4D210A004D343130004D31313A
:1007800032004D313038004E6F20436865636B7323
:10079000756D2077697468206C696E65206E756D63
:1007A0006265722C204C617374204C696E653A202E
:1007B00000636865636B73756D206D69736D61743B
:1007C00063682C204C617374204C696E653A20007C
:1007D0004C696E65204E756D626572206973206E7E
:1007E0006F74204C617374204C696E65204E756D7A
:1007F0006265722B312C204C617374204C696E65DC
:100800003A20004D313130002121204B494C4C2001
:1008100063617573656420627920746F6F206D75F4
:10082000636820696E6163746976652074696D65BB
:10083000202D2063757272656E7420636F6D6D611B
:100840006E643A2000627573793A20706175736541
:100850006420666F7220696E7075740A0062757329
:10086000793A2070617573656420666F72207573C4
:1008700065720A00627573793A2070726F636573EE
:1008800073696E670A00506C656173652052657309
:100890006574005052494E5445522048414C5445CD
:1008A000440025533A202553004B494C4C45442ED7
:1008B00020005072696E7465722068616C746564A2
:1008C0002E206B696C6C28292063616C6C65642137
:1008D0000A006563686F3A004572726F723A000FE2
:1008E000150E1216170E1303021A1401000E0DFF37
:1008F000180C040C1900014C6F616420536574746A
:10090000696E67730053746F726520536574746900
:100910006E677300416476616E636564205365742D
:1009200074696E677300554E4C4F41442046494CE4
:10093000414D454E540046494C414D454E5420438F
:1009400048414E47450053746F770053572D4D6F04
:100950006465004465706C6F790053656C662D5456
:1009600065737400526573746F72652044656661C7
:10097000756C747300424C546F756368004D37306A
:100980003220542564004D3630302042302054252A
:1009900064004D373032203B2564004D3730312024
:1009A000542564005075726765206D6F7265004351
:1009B0006F6E74696E756500524553554D45204FF5
:1009C0005054494F4E533A005052494E54205041D2
:1009D000555345440020204E6F7A7A6C653A2000CA
:1009E000313235004245443A204550434F5320317F
:1009F00030304B0052756E617761792057617463B6
:100A0000683A204F4E004D61782054656D70003279
:100A10003735004D696E2054656D700045313A20C0
:100A20004550434F53203130304B00505355004711
:100A3000656E657269630050726F746F636F6C00EE
:100A4000312E300042617564003235303030300074
:100A50004D656C7A692028437265616C69747929E7
:100A6000005061726B696E672E2E2E000000576178
:100A7000697420666F720066696C616D656E7420C2
:100A80006368616E676500746F20737461727400CF
:100A90005761697420666F720066696C616D656E7E
:100AA0007420756E6C6F616400004E6F7A7A6C65AD
:100AB0002068656174696E6700506C6561736520BC
:100AC000776169742E2E2E00005072657373206258
:100AD0007574746F6E00746F2068656174206E6F3A
:100AE0007A7A6C650000496E736572742066696C71
:100AF000616D656E7400616E642070726573732041
:100B0000627574746F6E00746F20636F6E74696EBB
:100B10007565005761697420666F720066696C6163
:100B20006D656E74206C6F61640000507265737344
:100B300020427574746F6E00746F20726573756DEA
:100B400065207072696E7400005761697420666F69
:100B500072207072696E7400746F20726573756DA7
:100B6000652E2E2E00005761697420666F72006634
:100B7000696C616D656E7420707572676500004800
:100B80006F6D652025732573257320466972737414
:100B9000005761726E696E673A20486F6D696E67C3
:100BA0002042756D702044697669736F72203C2015
:100BB000310A000202040000A0400000A040000032
:100BC000004050726F62696E6720506F696E7400EA
:100BD00025532025692F25690050726F62696E6761
:100BE000206D65736820706F696E74200020284442
:100BF000525952554E2900473239204175746F20A1
:100C0000426564204C6576656C696E67003F2028FC
:100C10004C2C522C462C4229206F7574206F662074
:100C2000626F756E64732E0A003F285629657262E2
:100C30006F7365206C6576656C20696D706C61758D
:100C40007369626C652028302D34292E0A004261B8
:100C500064205A2076616C75650A004E6F206269C7
:100C60006C696E65617220677269640A00204D3993
:100C700032205800507265737320627574746F6E01
:100C800020746F2068656174206E6F7A7A6C650AD3
:100C900000496E736572742066696C616D656E746F
:100CA00020616E6420707265737320627574746F56
:100CB0006E0A004C6F6164206D6D00556E6C6F6143
:100CC00064206D6D0046696C2E204469612E0045DC
:100CD00020696E206D6DC2B3004D33303320553125
:100CE00020452569205325690050494420417574E9
:100CF0006F74756E65202A005049442D44202A00E7
:100D00005049442D49202A005049442D50202A00A2
:100D100020082046616374002008204D617800207F
:100D200008204D696E004175746F74656D70002008
:100D3000746F6F206C6F6E6720657874727573695D
:100D40006F6E2070726576656E7465640A0020634C
:100D50006F6C6420657874727573696F6E20707241
:100D60006576656E7465640A00DB0FC93F45BCDAC1
:100D70003F8FB30240FCF0274056946140FE4B9BEE
:100D80004084A5D840E0231841346A5641E8599779
:100D90004164DBD5416E271742B4B75542CE1A974E
:100DA00042C8AED542B5885A43D40684BFA65FA7D1
:100DB000BF7443E0BF10B11AC01C2C58C0E8F697AE
:100DC000C0B849D6C04E4E17C124D355C180249710
:100DD000C1A0B5D5C1121A17C244AE55C278179733
:100DE000C26CACD5C267885AC320436F756E74203D
:100DF000583A00453100626564002C2073797374A1
:100E0000656D2073746F707065642120486561742E
:100E100065725F49443A200048656174696E6720D5
:100E20004661696C65640048656174696E67206637
:100E300061696C65640024F4D43050C38E20C2A272
:100E40004017828B7011127A910D816CD90AA861BA
:100E5000E108C7586607615143061E4B5D05C14551
:100E6000A7041A411104093D980371393103403632
:100E7000DB0265339102D4305402802E1D02632CB4
:100E8000EE01752AC501B028A001102781018F2528
:100E900064012B244B01E0223401AC211F018D2081
:100EA0000D01801FFC00841EED00971DDF00B81CA3
:100EB000D200E61BC600201BBC00641AB200B219A7
:100EC000A8000A19A0006A189900D11791004017CC
:100ED0008B00B516840031167E00B31579003A15E3
:100EE0007300C7146F0058146A00EE13660088136D
:100EF000630025135E00C7125B006C1257001512C9
:100F00005400C111510070114F0021114B00D61037
:100F100049008D1047004610440002104200C00FE7
:100F20004000800F3E00420F3C00060F3B00CB0EFE
:100F30003800930E37005C0E3500270E3400F30D99
:100F40003200C10D3100900D3000600D2E00320DC9
:100F50002D00050D2C00D90C2B00AE0C2900850CA2
:100F600029005C0C2700350C27000E0C2600E80B2E
:100F70002400C40B2400A00B23007D0B23005A0B7C
:100F80002100390B2100180B2000F80A1F00D90A94
:100F90001E00BB0A1E009D0A1D00800A1D00630A78
:100FA0001C00470A1B002C0A1B00110A1A00F70933
:100FB0001A00DD091900C4091900AB0919009209CA
:100FC00017007B091800630917004C091600360941
:100FD0001600200916000A091500F5081500E0089A
:100FE0001400CC081400B8081400A40814009008D9
:100FF00013007D0812006B08130058081200460801
:101000001200340811002308110012081100010811
:101010001100F0071000E0071000D0071000C00713
:101020001000B0070F00A107100091070E00830702
:101030000F0074070F0065070E0057070E004907E1
:101040000E003B070D002E070E0020070D001307B2
:101050000D0006070D00F9060C00ED060D00E00678
:101060000C00D4060C00C8060C00BC060C00B00630
:101070000C00A4060B0099060C008D060B008206DE
:101080000B0077060B006C060B0061060A00570682
:101090000B004C060A0042060A0038060A002E061B
:1010A0000A0024060A001A060A00100609000706AC
:1010B0000A00FD050900F4050900EB050900E20539
:1010C0000900D9050900D0050900C7050900BE05BA
:1010D0000900B5050800AD050800A50509009C0537
:1010E0000800940508008C050800840508007C05AC
:1010F0000800740508006C050700650508005D051B
:101100000700560508004E05070047050700400583
:10111000080038050700310507002A0507002305E8
:1011200007001C050600160507000F050700080547
:10113000060002050700FB040600F5040700EE04A4
:101140000600E8040600E2040700DB040600D504FC
:101150000600CF040600C9040600C3040600BD044F
:101160000600B7040600B1040500AC040600A6049E
:101170000600A00405009B040600950405009004E9
:1011800006008A04050085040500800406007A0430
:10119000050075040500700405006B040500660475
:1011A0000500610405005C040500570405005204B5
:1011B00005004D04050048040500430405003E04F5
:1011C00004003A04050035040500300404002C0432
:1011D000050027040400230405001E0404001A046B
:1011E000040016040500110404000D0404000904A1
:1011F00005000404040000040400FC030400F803D8
:101200000400F4030400F0030400EC030400E8030A
:101210000400E4030400E0030400DC030400D8033A
:101220000400D4030400D0030400CC030400C8036A
:101230000300C503030024F404D9201BC40C5C0E76
:101240009804C4095F0265077101F405F900FB0405
:10125000B30048048700C103690058035500030325
:101260004500BE023A008402310053022A002902DE
:10127000250004022000E4011C00C8011900AF0190
:10128000170098011400840113007101100061011E
:10129000100051010E0043010D0036010B002B011F
:1012A0000B0020010B00150109000C0109000301CE
:1012B0000800FB000800F3000800EB000700E40052
:1012C0000600DE000600D8000600D2000600CC00B2
:1012D0000500C7000500C2000500BD000400B900FC
:1012E0000400B5000400B1000400AD000400A90032
:1012F0000400A5000300A20003009F0004009B005F
:101300000300980003009500020093000300900082
:1013100003008D0002008B0003008800020086009D
:10132000020084000300810002007F0002007D00B3
:1013300002007B00020079000200770001007600C5
:1013400002007400020072000100710002006F00D0
:1013500002006D0001006C0002006A0001006900DB
:1013600002006700010066000100650001006400E2
:1013700002006200010061000100600001005F00E6
:1013800002005D0001005C0001005B0001005A00EA
:1013900001005900010058000100570001005600EB
:1013A00001005500010054000100530000005300EB
:1013B00001005200010051000100500001004F00E7
:1013C00001004E0000004E0001004D0001004C00E5
:1013D00001004B0000004B0001004A0001004900E1
:1013E00001004800000048000100470001004600DD
:1013F00000004600010045000000450001004400D7
:1014000001004300000043000100420000004200D0
:1014100001004100000041000100400001003F00C8
:1014200000003F0001003E0000003E0001003D00C2
:1014300000003D0001003C0000003C0000003C00BA
:1014400001003B0000003B0001003A0000003A00B0
:1014500001003900000039000100380000003800A8
:10146000000038000100370000003700010036009E
:101470000000360000003600010035000000350095
:10148000000035000100340000003400000034008A
:10149000010033000000330000003300010032007F
:1014A0000000320000003200010031000000310075
:1014B000000031000100300000003000000030006A
:1014C00001002F0000002F0000002F0000002F005F
:1014D00001002E0000002E0000002E0001002D0053
:1014E00000002D0000002D0000002D0001002C0048
:1014F00000002C0000002C0000002C0001002B003C
:1015000000002B0000002B0000002B0001002A002F
:1015100000002A0000002A0000002A000100290023
:101520000000290000002900000029000000290017
:10153000010028000000280000002800000028000A
:1015400000002800010027000000270000002700FD
:1015500000002700000027000100260000002600F0
:1015600000002600000026000000260001002500E3
:1015700000002500000025000000250000002500D7
:1015800000002500010024000000240000002400C9
:1015900000002400000024000100230000002300BC
:1015A00000002300000023000000230000002300AF
:1015B00000002300010022000000220000002200A1
:1015C0000000220000002200000022000100210093
:1015D0000000210000002100000021000000210087
:1015E0000000210000002100010020000000200078
:1015F000000020000000200000002000000020006B
:10160000000020000000200001001F0000001F005B
:1016100000001F0000001F0000001F0000001F004E
:1016200000001F0001001E0000001E0000001E0040
:1016300000001E000000043700001E290000511B9E
:1016400000005810000010090000CC0400007802CF
:1016500000004101000042696C696E656172204CB6
:101660006576656C696E6720477269643A0A005353
:10167000544F505045442E20005072696E7465726C
:101680002073746F707065642064756520746F20BA
:101690006572726F72732E204669782074686520B7
:1016A0006572726F7220616E6420757365204D39AA
:1016B000393920746F20726573746172742E20281A
:1016C00054656D70657261747572652069732072FE
:1016D000657365742E205365742069742061667487
:1016E00065722072657374617274696E67290A008D
:1016F00021212053544F502063616C6C656420623B
:10170000656361757365206F6620424C546F756325
:1017100068206572726F72202D2072657374617219
:10172000742077697468204D3939390A00486F741C
:10173000656E6420746F6F20636F6C640A004F469F
:10174000460A004661646520486569676874200040
:10175000426564204C6576656C696E672000466161
:10176000696C656420746F20656E61626C652042EF
:101770006564204C6576656C696E670A00496E7613
:10178000616C6964206D6573682E0A00436F6E6634
:10179000696775726174696F6E004D6F74696F6E01
:1017A0000042696C696E656172204C6576656C6992
:1017B0006E670045787472756465727300456E6477
:1017C00065722D352050726F00323032302D303935
:1017D0002D333000546865726D6973746F727300D5
:1017E000426F61726420496E666F005072696E7458
:1017F000657220496E666F004368616E67652046BA
:10180000696C616D656E7400507265686561742005
:10181000437573746F6D004261636B0041626F7555
:1018200074205072696E746572004D3630302042FB
:10183000300054756E6500496E666F2053637265A3
:10184000656E00454550524F4D2056657273696F65
:101850006E204572726F7200454550524F4D2049BF
:101860006E646578204572726F7200454550524F24
:101870004D20435243204572726F72003F0049670A
:101880006E6F726500496E697469616C697A652072
:10189000454550524F4D00486F6D696E6720466157
:1018A000696C6564006F70656E0054524947474526
:1018B000524544007A5F6D696E00795F6D61780012
:1018C000785F6D6178005265706F7274696E672021
:1018D000656E6473746F70207374617475730A003D
:1018E0004175746F20486F6D650054656D70657249
:1018F0006174757265005045544700504C4100506A
:1019000072656865617420240050726F6265205AA8
:10191000204F6666736574004D61696E004469739B
:1019200061626C65205374657070657273004D3828
:101930003400473238005072656865617420242095
:10194000456E6400507265686561742024204265AC
:101950006400436F6F6C646F776E0046616E205356
:1019600070656564004E6F7A7A6C6500466C6F77BF
:1019700000FB18F618202D20496E76616C696420F2
:101980006578747275646572206E756D626572201B
:10199000210A00544845524D414C2052554E415762
:1019A000415900546865726D616C2052756E6177A3
:1019B0006179004572723A204D415854454D5000AE
:1019C0004D415854454D5020747269676765726582
:1019D00064004572723A204D494E54454D50004DB9
:1019E000494E54454D50207472696767657265644D
:1019F00000202F002042403A0020403A0020573A71
:101A000000FFFFFFFFEFFFFFFFFFFFFFFFFFFFFFF5
:101A1000EFEFFFFFFFFFFFFFFFFFFFE7DFFFFFFF2E
:101A2000FFFFFFFFFFFFE7DFFFFFFFFFFFFFFFFFFE
:101A3000FFE3DFFFFFFFFFFFFFFFFFFFF3CFFFFF2E
:101A4000FFFFFFFFFFFFE1E1CFFFFFFFFFFFFFFE13
:101A500078000003DDFFFFFFFFFEFF807E0001EE48
:101A6000FFFFFFFFFE7DCFFC0000F77FFFFFFFFFC2
:101A70008E060000007BBFFFFFFFFFC000000000DC
:101A80007DDFFFFFFFFFFC01FE00003EE7FFFFFFE1
:101A9000FFFFFFFC00031F73FFFFFFFFFFFFF800C6
:101AA000018F81FFFFFFFFFFFFE0000083F9FFFFD1
:101AB000FFFFFFFF00FC0000F0FFFFFFFFFFE00F54
:101AC000FFC00000FFFFFFFFFE03FFFFC00000FF9D
:101AD000FFFFFFFFFFFFF9000000FFFFFFFFFFFF19
:101AE000FFFC0007C0FFFFFFFFFFFFFFFF0007E055
:101AF000FFFFFFFFFFFFFFFFE007F1FFFFFFFFFF1B
:101B0000FFFFFFFC07F9FFFFFFFFFFFFFFFFFF03E2
:101B1000F9FFFFFFFFFFFFFFFFFF83F9FFFFFFFF5D
:101B2000FFFFFFFFFFC3FFFFFFFFFFFFFFFFFFFF01
:101B3000E1FFFFFFFFFFFFFFFFFFFFF0BFFFFFFF22
:101B4000FFFFFFFFFFFBF83FFFFFFFFFFFFFFFFF70
:101B5000F9F83FFFFFFFFFFFFFFFFF7EF0FFFFFFF2
:101B6000FFFFFFFFFFFF8E03FFFFFFFFFFFFFFFFF2
:101B7000FFE01FFFFFFFFFFFFFFFFFFFFFFFFFFF74
:101B8000FFFFFFFFFFFFFFFFFFFFFFFFFFFFFFFF65
:101B9000FFFFFFFF7FFFFFFFFF00007FFFFFF87FDA
:101BA000FFFFFFFF80007FFFFFE07FFFFFFFFFC31E
:101BB000FCFFFFFFF8FFFFFFFFFFC3FCFFFFFFF885
:101BC000FFFFFFFFFF87FDFFFFFFF1FFFFFFFFFFAD
:101BD00087FFFFFFFFF1FFFFFFFFFF0FE7F30FFCA2
:101BE00023FC3FFFFFFF0FEF8007F003F01E007F95
:101BF000FE1FCF8187C787C70C007FFE001FC7C7A6
:101C00008FC79F0F0CFFFE001F878F1F8F1F0F1F97
:101C1000FFFC3F9F8F8F1F8E001E3FFFFC7F3F0FFB
:101C20001E3F1E3FFE3FFFF87FFF1F1C3F1C7FFC37
:101C30007FFFF8FFFF1E1C7E1C7FFC7FFFF0FFCEA6
:101C40003E3C7E3C7FB8FFFFF0FF9E3C387C387EF8
:101C500078FFFFE1FF3C7C787C783CF1FFFFE1F806
:101C6000387878101801F1FFFF000060203C007CFC
:101C700007807FFFFFFFFFFFFE1FFE1FFFFFFF1F0D
:101C8000FFFFFFFFFFFF600000000001FF400000BA
:101C9000000000FF8000000000007F83CF00000CE8
:101CA000303F87FF80000C301F867980000C000FCA
:101CB0008C30C7838C30E78C30CFC7CC31F38C307D
:101CC000DCECEC33B98C30D86C6C33198C30D06CC4
:101CD0000C33198C30D86C0C33198C30DC6C0E3B07
:101CE000198C30CF7C079F198C30C77C038F19402B
:101CF000000000000002600000000000061FFFFF5F
:101D0000FFFFFFF870012C0190012701B0012201B3
:101D1000C0011D01F00118011002130130020E0173
:101D20006002090190020401C002FF000003FA00F2
:101D30004003F5008003F000D003EB002004E60030
:101D40007004E100E004DC004005D700C005D200CB
:101D50004006CD00D006C8008007C3003008BE0092
:101D6000F008B900C009B400B00AAF00B00BAA0077
:101D7000D00CA500000EA000500F9B00C0109600D4
:101D80005012910000148C00C0158700B01782001B
:101D9000B0197D00D01B7800001E730040206E003B
:101DA00090226900F024640040275F0090295A00C7
:101DB000E02B5500102E500020304B001032460012
:101DC000E033410090353C00103737007038320066
:101DD000A0392D00B03A2800A03B2300603C1E0033
:101DE000103D1900903D1400103E0F00703E0A0097
:101DF000C03E0500003F0000403FFBFF803FF6FF74
:101E0000C03FF1FF68747470733A2F2F6D61726C6C
:101E1000696E66772E6F7267006275676669782DE6
:101E2000322E302E78002020506C616E6E6572422A
:101E3000756666657242797465733A200020467251
:101E40006565204D656D6F72793A2000436F6D7046
:101E5000696C65643A204F6374202032203230323E
:101E6000300A00204C61737420557064617465649D
:101E70003A20323032302D30392D3330207C204121
:101E80007574686F723A2028446576696E204B61DC
:101E9000697365722C20456E6465722D3520507211
:101EA0006F290A006275676669782D322E302E78A8
:101EB0000A004D61726C696E0020536F6674776121
:101EC00072652052657365740A00205761746368F7
:101ED000646F672052657365740A002042726F77E1
:101EE0006E206F75742052657365740A0020457802
:101EF0007465726E616C2052657365740A00506F70
:101F000077657255700A00456E6473746F70730064
:101F10002553202563202563202563202563006544
:101F20006E6473746F7073206869743A2000456E34
:101F3000636C6F73757265001FE020102010201015
:101F400010201020201020103030084004800300A2
:101F50001FE03FF03FF03FF01FE01FE03FF03FF099
:101F60003FF00FC0078003003FFFF038007030FCE7
:101F70003020FC102078102030102C00D02E31D0D2
:101F80002F7BD02F7BD02E31D02C00D020301020B2
:101F9000781020FC1030FC303800703FFFF03FFF1D
:101FA000F03800703186302387102787902F87D034
:101FB0002F03D02030102078102078102030102FE0
:101FC00003D02F87D02787902387103186303800A1
:101FD000703FFFF01FFFF81FFFF8041040020820B9
:101FE0000208200410400820801041001041000821
:101FF00020800410400000001FFFF81FFFF81E00A3
:10200000800078100080004010A39960701CD4A557
:1020100080081094BD0F081094A100481E939D00E5
:1020200030000000000000000000000003800000FD
:10203000000240000000025660000003989000007B
:10204000021090000002109000000210600020209A
:1020500020202020200000000000000000000000E0
:10206000000053657474696E67732053746F7265F2
:10207000640053657474696E67732053746F72657E
:10208000642028004F6666004F6E0045207374651B
:1020900070732F6D6D005A2053746570732F6D6DC2
:1020A00000592053746570732F6D6D005820537460
:1020B0006570732F6D6D00466164652048656967C2
:1020C0006874004C6576656C204265640047323860
:1020D0000A4732390020496E76616C696420657860
:1020E00074727564657220004361703A00526573C2
:1020F000656E643A200042656420436F6F6C696EC0
:10210000672E2E2E004265642048656174696E67F3
:102110002E2E2E0023646566696E65204445464177
:10212000554C545F004B6420004B6920004B7020DD
:1021300000504944204175746F74756E652066695E
:102140006E69736865642120507574207468652019
:102150006C617374204B702C204B6920616E64207D
:102160004B6420636F6E7374616E74732066726F5C
:102170006D2062656C6F7720696E746F20436F6E9F
:1021800066696775726174696F6E2E680A005049DE
:1021900044204175746F74756E65206661696C6565
:1021A00064212074696D656F75740A000A20436CA0
:1021B000617373696320504944200A00204B643ADC
:1021C0002000204B693A2000204B703A2000205418
:1021D000753A2000204B753A2000206D61783A2036
:1021E00000206D696E3A200020643A200020626968
:1021F00061733A2000504944204175746F74756EC4
:10220000652073746172740A0050494420417574EA
:102210006F74756E65206661696C65642120546514
:102220006D706572617475726520746F6F20686976
:1022300067680A00504944204175746F74756E6573
:1022400000504944204175746F74756E6520666155
:10225000696C6564212042616420657874727564DC
:102260006572206E756D6265720A0000002100249F
:102270000027002A0000002200250028002B000073
:1022800000200023002600290002020202020202AE
:102290000204040404040404040303030303030307
:1022A00003010101010101010101020408102040A4
:1022B0008001020408102040800102040810204020
:1022C0008080402010080402010000000102000983
:1022D0000A000000000403080700000000000000DE
:1022E0000000000000000000004D6F76652025739F
:1022F0006D6D004D6F766520302E316D6D004D6F28
:10230000766520316D6D004D6F76652031306D6DD5
:10231000004D6F7665204178697300486F74656E73
:102320006420746F6F20636F6C64004578747275FD
:10233000646572004D6F7665205A004D6F7665209A
:1023400059004D6F76652058004572723A207574B9
:10235000663820666F6E74206E6F7420696E6974C3
:1023600069616C697A65642E00000C0F00FE07023B
:102370002503BB017FFE08FE08FE050808060000D5
:1023800040F0C88888987810050808060000C0F852
:102390008888888888F80505050600012030F8300F
:1023A000200508080600002070F820202020E00505
:1023B00009090600FF2070A8A8B8888870200705C2
:1023C00005070001D86C366CD80509090600FFF82E
:1023D000A88888888888A8F8050A0A0600FE205080
:1023E00050505088A8A8887003030306000340A03B
:1023F00040FFFFFFFFFFFFFFFFFFFFFFFFFFFFFFAC
:10240000FFFFFFFFFFFFFF0000000605FF010707BA
:10241000060200808080808000800303030601059F
:10242000A0A0A005060606000050F85050F8500580
:1024300009090600FF2070A8A07028A870200507D1
:1024400007060000C8C81020409898050707060036
:102450000040A0A040A89068010303060205808008
:10246000800309090601FF20404080808040402011
:102470000309090601FF80404020202040408005DC
:10248000070706000020A8702070A8200505050693
:1024900000012020F820200203030601FFC0408035
:1024A000050101060003F8020202060100C0C00592
:1024B00007070600000810102040408005070706A7
:1024C0000000708898A8C8887003070706010040BC
:1024D000C040404040E00507070600007088081033
:1024E0002040F8050707060000F80810300888703B
:1024F00005070706000010305090F8101005070778
:10250000060000F880F0080888700507070600003C
:10251000304080F0888870050707060000F8081032
:102520001020202005070706000070888870888822
:10253000700507070600007088887808106002059B
:1025400005060100C0C000C0C00206060601FFC0AB
:10255000C000C040800305050601012040804020E6
:10256000050303060002F800F803050506010180D3
:1025700040204080050707060000708810202000DA
:10258000200507070600007088B8A8B88070050706
:1025900007060000708888F8888888050707060005
:1025A00000F04848704848F00507070600007088AA
:1025B0008080808870050707060000F0484848487A
:1025C00048F0050707060000F88080F08080F805D5
:1025D0000707060000F88080F08080800507070666
:1025E00000007088808098887005070706000088C2
:1025F0008888F8888888030707060100E040404083
:102600004040E005070706000038101010109060E9
:102610000507070600008890A0C0A090880507075E
:10262000060000808080808080F805070706000093
:1026300088D8A8888888880507070600008888C881
:10264000A898888805070706000070888888888809
:1026500070050707060000F08888F0808080050775
:102660000706000070888888A8906805070706009C
:1026700000F08888F0A090880507070600007088A1
:102680008070088870050707060000F820202020C9
:10269000202005070706000088888888888870053C
:1026A000070706000088888888505020050707061D
:1026B000000088888888A8A85005070706000088B9
:1026C0008850205088880507070600008888502019
:1026D000202020050707060000F80810204080F899
:1026E0000309090601FFE080808080808080E0058A
:1026F0000707060000804040201010080309090663
:1027000001FFE020202020202020E0050303060018
:10271000052050880501010600FEF80303030601A9
:1027200005804020050505060000700878887805BA
:1027300007070600008080F0888888F005050506F8
:102740000000708080887005070706000008087880
:10275000888888780505050600007088F080700577
:102760000707060000304840E040404005070706E4
:1027700000FE7088888878087005070706000080CA
:1027800080F0888888880307070601004000C04061
:102790004040E00409090601FE100030101010103E
:1027A000906005070706000080808890E09088030D
:1027B0000707060100C04040404040E0050505060F
:1027C0000000D0A8A8A8A8050505060000B0C88884
:1027D0008888050505060000708888887005070749
:1027E0000600FEF0888888F080800507070600FE56
:1027F00078888888780808050505060000B0C88034
:10280000808005050506000078807008F005070740
:102810000600002020F820202018050505060000ED
:1028200088888898680505050600008888885020F3
:102830000505050600008888A8A8500505050600BE
:102840000088502050880507070600FE88888850B9
:10285000204080050505060000F8102040F8030917
:10286000090601FF20404040804040402001090906
:102870000602FF80808080808080808003090906B6
:1028800001FF804040402040404080050303060097
:102890000248A890FF2062797465733B20637263DD
:1028A00020004E6F20454550524F4D2E0A004545A1
:1028B00050524F4D206461746173697A652065726E
:1028C000726F722E0A002073746F726564207365D4
:1028D0007474696E67732072657472696576656475
:1028E000202800202863616C63756C61746564291D
:1028F000210A0020213D2000454550524F4D2043E4
:102900005243206D69736D61746368202D202873B4
:10291000746F7265642920002053697A653A20003B
:10292000496E6465783A2000204D61726C696E3D95
:10293000563831290A00454550524F4D2076657270
:1029400073696F6E206D69736D61746368202845CB
:102950004550524F4D3D0048617264636F64656439
:102960002044656661756C742053657474696E6784
:1029700073204C6F616465640A003B200020204D89
:10298000363033200020550046696C616D656E74E9
:10299000206C6F61642F756E6C6F6164206C656E66
:1029A000677468733A0020204D3835312058005A3A
:1029B0002D50726F6265204F66667365740020202B
:1029C0004D33303120500050494420736574746990
:1029D0006E67733A0020460020480020204D3134B5
:1029E000352053004D6174657269616C20686561C2
:1029F00074757020706172616D65746572733A00F0
:102A00002020473239205720490020204D343230D1
:102A10002053004175746F20426564204C657665D3
:102A20006C696E673A0020204D32303620580048DD
:102A30006F6D65206F66667365743A00204A0020EA
:102A4000204D323035204200416476616E6365640A
:102A50003A20423C6D696E5F7365676D656E745FA9
:102A600074696D655F75733E20533C6D696E5F667A
:102A7000656564726174653E20543C6D696E5F7477
:102A8000726176656C5F66656564726174653E202F
:102A90004A3C6A756E635F6465763E0020204D3265
:102AA0003034205000416363656C65726174696FF6
:102AB0006E2028756E6974732F7332293A20503C4A
:102AC0007072696E745F616363656C3E20523C7224
:102AD0006574726163745F616363656C3E20543C2E
:102AE00074726176656C5F616363656C3E00202083
:102AF0004D3230312058004D6178696D756D20413F
:102B00006363656C65726174696F6E2028756E69A8
:102B100074732F7332293A0020450020204D323043
:102B2000332058004D6178696D756D206665656468
:102B300072617465732028756E6974732F73293AF6
:102B40000053746570732070657220756E69743AF5
:102B50000020440020204D323030205300204469B2
:102B60007361626C65640A0046696C616D656E74C0
:102B70002073657474696E67733A0020204D313498
:102B8000392043203B20556E69747320696E2043C1
:102B9000656C736975730A0020286D6D290020200B
:102BA000473231202020203B20556E697473206904
:102BB0006E206D6D000000FA430000FA430000A093
:102BC000400000C8413D8AA042856BA042CD5C47D1
:102BD000443D8AC042F4010000F40100006400009A
:102BE0000088130000205A3A200020593A20004261
:102BF000656420583A20005072696E7420506175E7
:102C00007365640050726F62696E67204661696C1B
:102C100065640A0050726F62696E67204661696C74
:102C2000656400220A00556E6B6E6F776E20636FCD
:102C30006D6D616E643A202200456E6465722D35BB
:102C40002050726F2052656164792E005072696E57
:102C500074696E672E2E2E0020453A00205A3A00E5
:102C600020593A00ACE511241FBECFEFD0E4DEBFFF
:102C7000CDBF12E0A0E0B1E0EEEEF8EE01E00BBF58
:102C800002C007900D92A033B107D9F72FE0A0E35F
:102C9000B2E001C01D92A931B207E1F716E1C3E32A
:102CA000D6E104C02197FE010E9406F2C233D1078B
:102CB000C9F70E94E7E00C9475F40C9400002F9281
:102CC0003F924F925F926F927F928F929F92AF92BC
:102CD000BF92CF92DF92EF92FF920F931F93CF9309
:102CE000DF93CDB7DEB7E0970FB6F894DEBF0FBE27
:102CF000CDBF209149032EA721E020934903809165
:102D000048038D3409F49DC3843511F40C9488264E
:102D1000873411F00C94AD268091460390914703BF
:102D20008C31910509F436C18CF48430910509F495
:102D3000D2C01CF4029738F180C38531910511F49B
:102D40000C94AF264B9709F405C177C38A329105DD
:102D500009F44CC244F48D31910509F42BC14E970E
:102D600009F447C16AC38B35910509F4BCC18C35A0
:102D7000910509F4BDC18A35910509F05EC3109231
:102D800045030C94AF2680914403813011F00C94DC
:102D9000AF2644E3C42E43E0D42E56E6E52E51E0A0
:102DA000F52E67E0A62E6FE0B62E10E088E5810FC5
:102DB0000E94B378882319F10E9433782B013C01DB
:102DC000812F0E940DC4882351F0D7012D913D9190
:102DD0004D915C91C301B2010E9422F209C0F5013C
:102DE0002081318142815381C301B2010E9421F2CD
:102DF000D6016D937D938D939C9313970AC0F70131
:102E000080819181A281B381F60180839183A28325
:102E1000B3831F5FF4E0CF0ED11C24E0E20EF11C5F
:102E200034E0A30EB11C133009F685E40E94B37898
:102E3000882301F10E9433786B017C0183E00E94BA
:102E40000DC4882371F0209172013091730140917B
:102E5000740150917501C701B6010E9422F26B0105
:102E60007C01C0924003D0924103E0924203F09271
:102E7000430310C08091720190917301A09174017D
:102E8000B09175018093400390934103A093420356
:102E9000B093430340E050E0BA0186E40E94F5BBE2
:102EA00020E030E0A9010E94A5F3181684F40E94E6
:102EB000337820E030E040E752E40E94A5F26093CE
:102EC00080017093810180938201909383010E941D
:102ED000DD410C94AF2680E50E94B378882329F069
:102EE0000E940A4D6B017C0103C0C12CD12C7601DC
:102EF00083E50E94B378882361F00E94337820E054
:102F000030E04AE754E40E9471EB0E941EF36B012B
:102F10007C010E9418B48091DF02811105C060E03D
:102F200084E297E00E94258E0E943BA0C60ED71E29
:102F3000E81EF91E0E943BA0DC01CB018C199D0903
:102F4000AE09BF09B7FD02C00C94AF2680E00E9415
:102F50001C32F0CF87E00E94874181110C94AF268C
:102F60008CE0E4E8F1E0DE01119601900D928A9583
:102F7000E1F780E50E94B378882321F00E94FB7777
:102F8000862F01C080E0BE016F5F7F4F0E94698D78
:102F90000C94AF268091DE028770873011F00C947C
:102FA000C22660E08FE40E94DB7881110C94AF268A
:102FB0000C94C2260E943BA06093D9027093DA025F
:102FC0008093DB029093DC0287E00E9487418111AD
:102FD0000C94AF268091DD02882311F40C94CB2849
:102FE00060E08FE40E94DB7881110C94AF260C9492
:102FF000CB282091F60E3091F70E4091F80E5091AB
:10300000F90E60916601709167018091680190915D
:1030100069010E9422F2AB01BC0188E50E94F5BB68
:1030200069837A838B839C832091FA0E3091FB0E07
:103030004091FC0E5091FD0E60916A0170916B0100
:1030400080916C0190916D010E9422F2AB01BC0154
:1030500089E50E94F5BB6D837E838F839887BE01CF
:103060006B5F7F4FCE0101960E944E76882311F44C
:103070000C94AF2680E00E94D17C0E94544561E010
:1030800085E40E94DB7821E0482FBE016B5F7F4F13
:10309000CE0101960E94ADDE6B017C019B01AC016B
:1030A0000E9423F4811119C049815A816B817C816E
:1030B0008FEE9BE20E94E4314D815E816F817885C5
:1030C0008AEE9BE20E94E431B701A60185EE9BE205
:1030D0000E94E4318AE00E94CF2F0E943B450E946B
:1030E00082480C94AF268FE0809345030C94AF2662
:1030F00090E9292E91E0392E2BECE22E22E0F22EDF
:1031000026E631E03BA32AA337E0C32E3FE0D32ECF
:1031100000E010E0D1018D911D010E94B378882359
:1031200009F44BC00E9433782B013C01133049F065
:10313000F60120813181428153810E9421F22B01CD
:103140003C01AAA1BBA12D913D914D915C91C30180
:10315000B2010E9421F24B015C012DEB37E346E8FE
:1031600055EB0E94A5F387FD0AC02DEB37E346E837
:1031700055E3C501B4010E940BEB1816F4F41330AB
:1031800051F44092720150927301609274017092F6
:10319000750101E012C0A5019401F7016081718100
:1031A000828193810E9422F2D7016D937D938D934A
:1031B0009C931397812F0E9454411F5FB4E0EB0E44
:1031C000F11CEAA1FBA13496FBA3EAA3F4E0CF0E25
:1031D000D11C143009F09ECF002321F082E791E04A
:1031E0000E9429B40E9482480C94AF268091440327
:1031F000813011F00C94AF2689E40E94B378E82E58
:10320000882321F00E942F78082F01C000E08AE473
:103210000E94B378F82E882321F00E942F78182F6F
:1032200001C010E0EE2011F0043020F4FF2041F046
:10323000143030F088EE96E00E94D62F0C94AF2622
:1032400080E1E6E6F1E0A4E3B3E001900D928A9517
:10325000E1F7EE2019F1602F000F770B880B990B27
:103260000E9412EB2091BB023091BC024091BD0242
:103270005091BE020E9471EB2091C3023091C402B2
:103280004091C5025091C6020E9422F2609334031D
:10329000709335038093360390933703FF2019F121
:1032A000612F110F770B880B990B0E9412EB209165
:1032B000BF023091C0024091C1025091C2020E94EF
:1032C00071EB2091C7023091C8024091C902509120
:1032D000CA020E9422F260933803709339038093EC
:1032E0003A0390933B0360E080E50E94DB788823FB
:1032F000C1F1EE20D1F02091F60E3091F70E409101
:10330000F80E5091F90E609134037091350380915D
:103310003603909137030E9421F260933403709337
:1033200035038093360390933703FF20D1F020912B
:10333000FA0E3091FB0E4091FC0E5091FD0E609103
:1033400038037091390380913A0390913B030E94B6
:1033500021F2609338037093390380933A0390937A
:103360003B0340E050E0BA0186E40E94F5BB6B01EC
:103370007C0120E030E0A9010E94A5F318165CF45E
:1033800020E030E040E752E4C701B6010E94A5F218
:103390006B017C0103C0C12CD12C7601809080018F
:1033A00090908101A0908201B090830120E030E0F4
:1033B000A901C701B6010E940BEB882341F0C0921E
:1033C0008001D0928101E0928201F092830100910C
:1033D00021011091220184E690E0909322018093D4
:1033E0002101C0902701D0902801E0902901F090A0
:1033F0002A0180E090E0A0E8BFE38093270190934A
:103400002801A0932901B0932A010E94DD418092F6
:10341000800190928101A0928201B0928301109369
:10342000220100932101C0922701D0922801E0924D
:103430002901F0922A010C94AF260E943DDE0C94E3
:10344000AF2680914603909147038139910509F495
:10345000F5C50CF087C08936910509F4B7C20CF0A8
:1034600048C08C34910509F45CC2FCF482319105AA
:1034700009F414C46CF497FF02C00C9485268230C2
:1034800091050CF431C1419709F466C10C9485266D
:103490008A32910509F428C28B34910509F43DC2A2
:1034A0004F9711F00C94852674C18335910509F46A
:1034B000EDC37CF48135910509F4CBC30CF0DEC378
:1034C0008D34910511F00C9485260E94008A0C948D
:1034D000AF268535910509F41AC40CF4DFC38C3589
:1034E000910509F439C48836910509F41EC20C947B
:1034F00085268137910509F435C39CF48D369105F5
:1035000009F43AC23CF48B36910509F4B1C20CF4CB
:1035100071C217C38F36910509F4C8C20CF4B3C247
:1035200016C38637910509F43DC564F483379105C8
:1035300009F4A5C40CF49CC48537910509F421C590
:103540000C9485268837910509F469C50CF464C587
:103550008937910509F46BC58C38910509F42CC3A2
:103560000C9485268F3231E0930711F40C94CB2410
:103570000CF052C08E3C910509F4A7C6FCF4893CBE
:10358000910509F416C674F48E3B910509F435C310
:10359000883C910509F4C6C58B39910511F00C944E
:1035A00085262FC38C3C910509F448C60CF07AC6D9
:1035B0008B3C910509F423C60C948526823E910527
:1035C00009F4E4C774F48C3D910509F462C78D3D9C
:1035D000910509F485C7833D910511F00C9485266A
:1035E00092C68232B1E09B0711F40C94A9233CF4FB
:1035F0008831914011F40C9412230C9485268D325D
:1036000021E0920711F40C9407248E32914011F4BA
:103610000C9487240C948526843FA1E09A0711F42A
:103620000C94AE2584F58A39E1E09E0709F496C230
:10363000ACF4813921E0920711F40C94CE24823944
:1036400031E0930711F40C94D8248039914011F0A3
:103650000C9485260E9418B40C94AF26853AB1E0EC
:103660009B0711F40C94DD248C3AE1E09E0711F4E1
:103670000C945125843A914011F00C9485260E94B7
:10368000307F0C94AF26883F31E0930711F40C94FF
:10369000BD256CF4863FB1E09B0711F40C94B12575
:1036A00014F00C94B4250E9446D70C94AF268B35A9
:1036B000F2E09F0711F40C94CD254CF4883592402C
:1036C00011F00C9485260E9415490C94AF26833581
:1036D000A3E09A0711F40C944626873E934011F418
:1036E0000C9477260C94852680E50E94B378882375
:1036F00029F00E940A4D6B017C0103C0C12CD12C22
:10370000760183E50E94B378882361F00E943378C4
:1037100020E030E04AE754E40E9471EB0E941EF37F
:103720006B017C010E9418B48091B9029091BA0299
:10373000009721F061E00E94798E05C060E085ED80
:1037400096E00E94258E40E0C701B6010E94263611
:103750000E9435DD0C94AF268091B50284FF02C033
:103760000C94CE288091B70287FF02C00C94CE281B
:103770008091B802837011F00C94CE2860E08CEC3C
:1037800096E00E94258E5E985E9815985E980C943F
:10379000AF260E9478897B018C0120E831E541E069
:1037A00050E00E9461F1C9016DE671E00E94DEF116
:1037B0004B015C01C801B70120E13EE040E050E070
:1037C0000E9461F1CA01B90128E130E040E050E017
:1037D0000E9461F1762E672EC62ED72E8CE3282EFE
:1037E000312C412C512CC801B701A20191010E943A
:1037F00061F1F62EE72ECA01B901A20191010E94E2
:1038000061F1CB018E010F5F1F4F8114910499F07C
:10381000EF92FF927F936F936F927F92BF92AF92DE
:103820009F928F928BEA96E09F938F931F930F93B3
:103830000E94A3EA13C0A114B104B1F0EF92FF9269
:103840007F936F936F927F92BF92AF928FEA96E0D1
:103850009F938F931F930F930E94A3EA0FB6F89440
:10386000DEBF0FBECDBF30C0CD2879F0EF92FF9202
:103870007F936F936F927F9283EB96E09F938F93EA
:103880001F930F930E94A3EAE9CF892B69F0EF926F
:10389000FF927F936F9387EB96E09F938F931F9395
:1038A0000F930E94A3EADACFEF92FF928BEB96E0A0
:1038B0009F938F931F930F930E94A3EA0F900F90F3
:1038C0000F900F900F900F9060E0C8010E94798ECA
:1038D0000E94FC2FB8018FEB96E00E94E52F8AE052
:1038E0000E94CF2F0C94AF266FEF7FEF80E50E94F0
:1038F000C0788C0197FF02C00C94AF26E82E60E0E0
:1039000089E40E94DB7881110C94E028802F0E94CA
:10391000C2E0811158C60C94E0280E94C7890C941B
:10392000AF260E94EB890C94AF268091D50883FFC7
:1039300002C00C94AF260E94E4C387FF02C00C941F
:10394000AF2689E40E94B378882311F40C941729D8
:103950000E940B7890E01816190614F481E090E0AC
:1039600026E0289FF001299FF00D1124E755FD4F17
:10397000808191810C9421298091D50883FF02C018
:103980000C94AF260E94E4C3F82E87FF02C00C946B
:10399000AF2689E40E94B378082F882311F40C9491
:1039A0002A290E940B7890E01816190614F481E079
:1039B00090E026E0289FF001299FF00D1124E755A3
:1039C000FD4F8081918110E00C943A290E94E4C35C
:1039D000182F87FD0AC08FE892E00E94D62F812F12
:1039E0000E94BF998AE00E94CF2FEEA5E093490381
:1039F0000C94BC2B60E080E50E94CF7881110C9480
:103A0000AF2681E40E946A78882329F0609111042E
:103A1000062F10E002C00FEF10E089E40E94B37897
:103A2000882399F00E940B7890E01816190614F478
:103A300081E090E026E0289FF001299FF00D1124FD
:103A4000E755FD4F0481158108C083E50E94B378D6
:103A5000882319F00E94FB778B01B8010F3F1105F5
:103A600019F010F06FEF70E0609311040C94AF2622
:103A700060E080E50E94CF7881110C94AF2610920F
:103A800011040C94AF268EE40E94B378882311F4BD
:103A90000C94AF260E94FB776093A5027093A60258
:103AA0008093A7029093A8020C94AF2683E50E940E
:103AB0006A78882331F060E083E50E94CF788093B4
:103AC000D5080E94FC2F8EE796E00E94D62F8091A9
:103AD000D508882369F119E3E12E17E0F12E00E003
:103AE00010E020E08091D50890E0A0E0B0E0002E4A
:103AF00004C0B695A795979587950A94D2F780FF4D
:103B00000EC0DD24D394D20E222319F08CE20E9441
:103B1000CF2FF701859194910E94D62F2D2D0F5F05
:103B20001F4FF2E0EF0EF11C05301105D9F604C06D
:103B30008AE796E00E94D62F8AE00E94CF2F0C944D
:103B4000AF261092A402109220010C94AF2641E0FF
:103B500060E070E08CE696E00E9400300E949B2DB1
:103B60000C94AF2683E50E94B378882381F00E94ED
:103B70000B78282F30E02D33310524F480931F017A
:103B80000C94AF268CE380931F010C94AF260E9407
:103B9000FC2FC0901F01D12CE12CF12C85E696E082
:103BA0000E94D62F4AE0C701B6010E94CC308AE0BD
:103BB0000E94CF2F0C94AF268091D50883FF02C0BE
:103BC0000C94AF2689E40E94B378882311F40C94F6
:103BD00083290E940B7890E01816190614F481E0EE
:103BE00090E026E0289FF001299FF00D1124E75571
:103BF000FD4F628173810C948D290E94FFBF0C944C
:103C0000AF2683E50E94B378882311F40C94AF2685
:103C10000E940B78182F90E0CD970CF01CE31093C6
:103C200098020E943BA06B017C01212F30E0A8EE9E
:103C3000B3E00E94B5F1C60ED71EE81EF91EC09271
:103C40009402D0929502E0929602F09297020C9420
:103C5000AF260E94729D0E94008A0E9488B50E9431
:103C6000CC4C68EE73E080E090E00E94632D60E051
:103C700084E596E00E94258E0C94AF268091450342
:103C80008F7D8061809345030C94AF26809145031E
:103C90008F7E8062809345030C94AF2683E50E945B
:103CA000B3788823F1F00E943BA06093D90270930F
:103CB000DA028093DB029093DC020E94337820E0EA
:103CC00030E04AE754E40E9471EB0E941EF36093D7
:103CD0001B0170931C0180931D0190931E010C9495
:103CE000AF268091B50284FF02C00C94A029809178
:103CF000B70287FF02C00C94A0298091B80283709C
:103D000011F00C94A0290E9488B50C94AF2683E58D
:103D10000E946A78882311F40C94AF260E943BA07D
:103D20006093D9027093DA028093DB029093DC02F5
:103D30000E94337820E030E04AE754E40E9471EBBF
:103D40000E941EF3609390027093910280939202FE
:103D5000909393020C94AF260E94E4C387FF02C0A5
:103D60000C94AF269091B50294FD04C09091B702D7
:103D700097FF0AC0A0E9CA2EA1E0DA2EB6EDEB2E1D
:103D8000B8E0FB2E10E009C09091B802937091F753
:103D9000682F81E00E94CF4CE2C7D6018D916D0162
:103DA0000E94B378882309F459C0133009F04FC03A
:103DB0000E9433784B015C0120E030E040EA51E49E
:103DC0000E940BEB87FF3AC0A50194016091F608B1
:103DD0007091F7088091F8089091F9080E94A5F277
:103DE0002B013C019B01AC01609106097091070910
:103DF00080910809909109090E9471EB609306096E
:103E0000709307098093080990930909609105044C
:103E10007091060480910704909108040E9410EBB1
:103E2000A30192010E9471EB0E941EF360930504AE
:103E30007093060480930704909308048092F60818
:103E40009092F708A092F808B092F90807C00E9473
:103E50003378F701648B758B868B978B1F5FF4E04B
:103E6000EF0EF11C143009F098CF0E9430B377C7E1
:103E70000E94D0DC80EA9DE00E940C6F70C788E74A
:103E800095E00E94D62F60E088E695E00E94CAC3C4
:103E900060E083E595E00E94CAC361E080E998E1B3
:103EA0000E94CAC361E088E495E00E94CAC361E051
:103EB00088E395E00E94CAC360E08FE295E00E942B
:103EC000CAC361E085E295E00E94CAC361E08BE16C
:103ED00095E00E94CAC360E084E195E00E94CAC3F5
:103EE00061E08CE095E00E94CAC361E08EEF94E04F
:103EF0000E94CAC360E080EF94E00E94CAC360E001
:103F000081EE94E00E94CAC360E083ED94E00E94D9
:103F1000CAC360E08DEB94E00E94CAC360E08CEA03
:103F200094E00E94CAC360E08DE994E00E94CAC395
:103F300060E086E994E00E94CAC360E081E894E012
:103F40000E94CAC360E083E794E00E94CAC361E0B4
:103F500080E694E00E94CAC360E083E594E00E949A
:103F6000CAC360E08EE494E00E94CAC361E081E4C9
:103F700094E00E94CAC360E08DE294E00E94CAC34C
:103F8000EEC68091B9029091BA02009741F0DC012F
:103F90002C91222321F060E00E94798EE0C60E94DD
:103FA00035DDDDC60091B9021091BA0294E0F12C22
:103FB00040E0915021F1F8018081282F2B7F21349E
:103FC00021F421812133D9F407C08035C1F48181E6
:103FD00080538A3048F013C0813421F0853421F4B5
:103FE00041E002C0FF24F39498012E5F3F4F890106
:103FF0002F5F3F4FF80180818032C9F3DACF411142
:104000000E94FC2FFF2021F089E294E00E94D62F2D
:10401000C8010E94FB31A3C60E940C89A0C681E0A2
:104020008093D8028093D7020E945B8998C6109231
:10403000D8021092D7020E945B8991C660E070E0BE
:1040400083E50E94C078823038F00E94F82F87E024
:1040500094E00E94D62F83C68C01112788E40E9429
:10406000B3788823E1F00E942F788A3A910544F0D2
:104070000E942F788530914034F40E942F7805C03B
:104080008AEA90E002C084E091E026E0209FF001FF
:10409000219FF00D1124E755FD4F9183808382E429
:1040A0000E94B3788823D9F00E942F78059744F0B6
:1040B0000E942F788437910534F40E942F7805C030
:1040C00085E090E002C083E790E026E0209FF001C9
:1040D000219FF00D1124E755FD4F9383828386E4E1
:1040E0000E94B378882309F43AC60E942F7897FD7E
:1040F00009C00E942F788F3F910509F034F40E9487
:104100002F7805C080E090E002C08FEF90E026E0BD
:10411000209FF001219FF00D1124E755FD4F95835D
:1041200084831DC60E94E4C3182F87FD18C6009122
:104130008F0284E40E94B378882311F40C94C5297B
:104140000E9433786B017C0120E030E0A9010E94DD
:104150000BEB882341F124E01202F0011124E55712
:10416000FD4FC082D182E282F38220E030E0A901DB
:1041700060918B0270918C0280918D0290918E02E1
:104180000E940BEB81110CC080E090E0A0EEBFE339
:1041900080938B0290938C02A0938D02B0938E0239
:1041A00001E00C94C52980E080938F020E94D93DE4
:1041B000D6C50E94E4C387FDD2C5E0E9EE2EE1E05A
:1041C000FE2E06ED18E0F6EECF2EF8E0DF2ED7013A
:1041D0008D917D010E946A78882359F00E9433787E
:1041E0000E941EF3F80160837183828393830E948F
:1041F000E9B20C5F1F4FC016D10649F7B0C50E9447
:10420000E4C387FDACC570E9E72E71E0F72E06ED3B
:1042100018E0D7018D917D010E946A78882339F0DA
:104220000E943378F80164A375A386A397A30C5F5B
:104230001F4FF8E0063E1F0761F791C58091B60257
:1042400087FF02C00C94CB298091B7028E7011F0C9
:104250000C94CB2940910A0950910B0960910C09EB
:1042600070910D0987EF93E00E94E43140910E09AF
:1042700050910F09609110097091110984EF93E03A
:104280000E94E43140911209509113096091140980
:104290007091150981EF93E00E94E4318AE00E9459
:1042A000CF2F5DC58091B50281FF02C00C94112A09
:1042B0008091B60281FF02C00C94112A8091B7024E
:1042C0008C7011F00C94112A4AC56FE7E62E62E05B
:1042D000F62E10E088E5810F0E946A78882359F055
:1042E0000E943378D7016D937D938D939C931397A0
:1042F000812F0E9454411F5FB4E0EB0EF11C13307C
:1043000049F70C94F2184090070F5090080F6090F6
:10431000090F70900A0F2091030130910401409120
:10432000050150910601C301B2010E9422F26AA365
:104330007BA38CA39DA380900B0F90900C0FA0905B
:104340000D0FB0900E0F20910701309108014091A0
:10435000090150910A01C501B4010E9422F26EA325
:104360007FA388A799A7C0900F0FD090100FE0905F
:10437000110FF090120F20910B0130910C01409120
:104380000D0150910E01C701B6010E9422F26AA7E9
:104390007BA78CA79DA720910F0130911001409120
:1043A000110150911201C301B2010E9422F22B01AE
:1043B0003C0120911301309114014091150150915D
:1043C0001601C501B4010E9422F24B015C0120914B
:1043D0001701309118014091190150911A01C7013C
:1043E000B6010E9422F26B017C010E94FC2F82EC3C
:1043F00093E00E94D62F83E50E946A78882321F0FB
:104400000E941F788093020180910201882319F095
:1044100083E09AE002C084E795E00E94D62F8AEB01
:1044200093E00E94D62F4AA15BA16CA17DA184EFED
:104430009AE20E94E4314EA15FA168A579A58FE3BD
:1044400093E20E94E4314AA55BA56CA57DA588E3B3
:1044500093E20E94E43184E590E20E94D62F82EB41
:1044600093E00E94D62FB301A20184EF9AE20E944A
:10447000E431B501A4018FE393E20E94E431B70176
:10448000A60188E393E20E94E4318AE00E94CF2FE4
:1044900066C483E50E94B378882331F00E942F78A8
:1044A00090932201809321018091B5029091B602F0
:1044B000A091B702B091B802892B8A2B8B2B09F0FF
:1044C0004EC460912101709122018EEA93E00E9416
:1044D000623185E20E94CF2F8AE00E94CF2F3FC435
:1044E0000E94E4C3F82E87FD3AC483E50E94B378A6
:1044F0000F2D0F2C000C110B882369F10E942F78CF
:10450000F801EE0FFF1FE050FF4F91838083000FF3
:10451000111F000F111FF801E95DFE4F7F01BC0163
:10452000990F880B990B0E9412EB2AE037ED43E2BA
:104530005CE30E9471EBF801E558FD4F2081318169
:10454000428153810E9471EBD7016D937D938D93CE
:104550009C93139704C40E94FC2F85E40E94CF2FE4
:1045600080E38F0D0E94CF2F000F111FF801E05044
:10457000FF4F6081718186EA93E00E94623185E29B
:104580000E94CF2F8AE00E94CF2FE9C380E50E94CE
:104590006A78882309F4E3C360E070E080E50E9454
:1045A000C078F82E6FEF7FEF83E50E94C0788C0112
:1045B0000196039708F0D3C3F7FCD1C38F2D0E9457
:1045C000C2E0882339F00E94F82F8AE896E00E9422
:1045D000D62FC5C30E9418B460E08F2D0E9493C7E8
:1045E0000F3FBFEF1B0731F00130110571F000E004
:1045F00010E00DC08F2D0E943BC731E020E0892BD9
:1046000009F030E0032F122F02C001E010E08F2DDF
:104610000E943BC78017910709F4A1C380E00E9464
:104620001C32F5CF80E50E946A78882309F497C38D
:104630000E942F788C01892B09F07FC083E50E94AE
:104640006A78882389F00E942F788F3FEFEF9E07CA
:1046500029F484E89DE00E94C02D81C3BC0184E858
:104660009DE00E941B2E7BC30E94FC2F60E070E047
:104670008EE993E00E9462318091860D28E532E058
:104680006901C81AD10887FDD394CC0CDD1CCC0C71
:10469000DD1C0D2C000CEE08FF088091850D28E82C
:1046A00030E04901881A910887FD9394880C991C81
:1046B000880C991C092C000CAA08BB088091840D59
:1046C0008F3FC1F090E0FC01EE0FFF1F8E0F9F1F88
:1046D000FC01E15AF24F2181328103E0220F331FA6
:1046E0000A95E1F784E0369527958A95E1F72E5FE4
:1046F0003F4F02C020E030E02F5F3F4FC901330F32
:10470000AA0BBB0B9C01AD01281939094A095B09A9
:10471000A4EBB0E00E94A2F1A70196012819390983
:104720004A095B090E9483F1B90185E19EE00E947C
:1047300062318AE00E94CF2F12C30E94F82FB80185
:104740008FE993E00E94623182EF96E00E94D62FBB
:1047500006C38AE50E94B378811105C083E50E94F3
:10476000B3788823C9F10E94337820E030E040E03C
:1047700050EC0E940BEB87FDB3C60E94337820E01B
:1047800030E040E050E40E94A5F318160CF4A2C6F5
:104790000E9433786B017C0184E00E947441811196
:1047A00011C02091F2083091F3084091F408509123
:1047B000F508C701B6010E9471EB0E9417F3CB0107
:1047C0000E94442D80E50E946A78882309F48EC6F1
:1047D0000E941F7881118AC68091B70287FDACC6FE
:1047E0008091B802837009F0A7C60E94FC2F409107
:1047F000FE0E5091FF0E6091000F7091010F8FE837
:1048000093E00E94E4318AE00E94CF2FA8C260E0CA
:1048100085E40E94CF78811173C080E50E946A7898
:10482000882351F00E9433786093410D7093420DBC
:104830008093430D9093440D89E40E946A78882305
:1048400081F00E9433782CEA35EC47E25EE30E9467
:1048500071EB6093450D7093460D8093470D9093D7
:10486000480D84E40E946A78882381F00E9433789E
:104870002CEA35EC47E25EE30E94A5F26093490D15
:1048800070934A0D80934B0D90934C0D0E94FC2F1A
:104890004091410D5091420D6091430D7091440D36
:1048A00089E793E00E94E4312CEA35EC47E25EE3CD
:1048B0006091450D7091460D8091470D9091480D86
:1048C0000E94A5F2AB01BC0185E793E00E94E431B0
:1048D0002CEA35EC47E25EE36091490D70914A0D98
:1048E00080914B0D90914C0D0E9471EBAB01BC017E
:1048F00081E793E00E94E4318AE00E94CF2F2FC22B
:104900000E94F82F8DE793E00E94D62F28C283E5FE
:104910000E946A78182F882371F00E9433780E94D1
:1049200017F370932C0160932B0121E0672B09F0A2
:1049300020E02093220480E50E946A78882359F0C1
:1049400020912B0130912C01232B11F00E941F7814
:104950008093220404C2111102C20E94FC2F8EE532
:1049600093E00E94D62F80912204882319F080E4DE
:1049700098E102C085E493E00E94D62F60912B015C
:1049800070912C018DE493E00E94623189E493E000
:104990000E94D62FE4C10E940CBCE1C18091F50EAB
:1049A00081110C94F21881E00E94E5B10C94F21888
:1049B0000E9445760E948248D2C16FEF7FEF89E462
:1049C0000E94C078082F6FEF7FEF8AE40E94C078C2
:1049D000182F8AE50E94B378811108C081E50E94F2
:1049E000B378D82E882309F4ADC501C0D12CC02ED0
:1049F00081E0800F853008F04DC0912E81E0810F5D
:104A0000853008F047C00E9433782B013C01F02E1E
:104A100007FDF12C07FF02C0F3E0CF2E812E17FD1A
:104A2000812C17FF02C0E3E09E2ECF1408F497C13B
:104A3000E82CF4E0FF9E500111249E1448F10E2D45
:104A400010E0DD2071F0F501E00FF11FEE0FFF1F08
:104A5000EE0FFF1FE55CFD4F2081318142815381C4
:104A600003C020E030E0A9010A0D1B1D000F111F3B
:104A7000000F111F055C1D4FC301B2010E9422F2FD
:104A8000D8016D937D938D939C931397E394D5CF29
:104A9000F394CBCF0E94F82F88EE96E00E94D62F99
:104AA0005EC187E00E948741811159C10DE217E084
:104AB000E6E6F1E0FBA3EAA39E012F5F3F4F190159
:104AC0004BE5C42E47E0D42E7901C8010E941A4D4F
:104AD000AAA1BBA18D909D90AD90BD90BBA3AAA3B0
:104AE000A50194010E9421F22B013C01F701608392
:104AF00071838283938320E030E040EA51EC0E948E
:104B0000A5F387FD0AC020E030E040EA51E4C3018C
:104B1000B2010E940BEB18162CF4F60184911816C2
:104B20000CF417C5D7018D909D90AD90BD907D017F
:104B300020E030E040EA51ECC501B4010E94A5F349
:104B400087FD12C520E030E040EA51E4C501B40120
:104B50000E940BEB18160CF015C506C50E94A2ADFD
:104B6000FEC00E9405D6FBC061E083E50E94DB78B1
:104B700091E089270E9454D7F2C020933A020E9404
:104B800075CF10923A02882309F4E9C00E94FC2FE5
:104B90008EED92E00E94D62FE2C00E94E4C3082F5F
:104BA00087FDDDC085E50E946A788823B1F1E02E9B
:104BB000002E000CFF080E9433784B015C0120E0BE
:104BC00030E0A9010E94A5F387FF04C0B7FAB094B2
:104BD000B7F8B094C70123E0880F991F2A95E1F731
:104BE0009C012E5C3D4F7901D9018D929D92AD9231
:104BF000BC92139720E030E048E453E4C501B401CF
:104C00000E94A5F318164CF480E090E0A8E4B3E409
:104C1000F70180839183A283B3838CE40E946A7836
:104C2000882309F49CC0002E000C110B0E943378DD
:104C30006B017C0120E030E0A9010E94A5F387FF11
:104C400004C0F7FAF094F7F8F09420E030E048E47C
:104C500053E4C701B6010E94A5F3980193E0220F27
:104C6000331F9A95E1F7F901EE5CFD4F18162CF011
:104C7000C482D582E682F78272C080E090E0A8E428
:104C8000B3E484839583A683B78369C08091B70218
:104C900087FDA2C48091B802837009F09DC4409141
:104CA000F60E5091F70E6091F80E7091F90E8FECA0
:104CB00092E00E94E4314091FA0E5091FB0E609117
:104CC000FC0E7091FD0E8FE393E20E94E43140915F
:104CD000FE0E5091FF0E6091000F7091010F88E35E
:104CE00093E20E94E4318AE00E94CF2F38C081E035
:104CF000809344031092310260E083E50E94DB78E8
:104D000081112DC00E94F7C12AC00E943DDE27C03C
:104D100000914603109147030E943BA06093D90283
:104D20007093DA028093DB029093DC020023B9F0E7
:104D30000E94FC2F84E50E94CF2FB8017727072E11
:104D4000000C880B990B0E94463180E20E94CF2F05
:104D50008DE793E00E94D62F02C00E943DDEE091D5
:104D60003002F0E0E051F24F8081882339F08FE883
:104D700092E00E94D62F8AE00E94CF2FFEA5F093EA
:104D80004903FAC40E9418B42091DD022FA780E0E5
:104D90000E94D17C0E943BA06093D9027093DA02FA
:104DA0008093DB029093DC020E94544581E0809363
:104DB000D8020E945B898AE50E946A78E82E8823DF
:104DC000A1F081E00E947441182F82E00E9474419A
:104DD00001E0811101C000E0111109C088E50E94C5
:104DE0006A78F82E811103C0C2C100E0F7CF00231A
:104DF00009F4B3C1E012BFC111E0FF24F39481E0D4
:104E00008AA782E50E94B378882319F00E9433783C
:104E100004C060E070E080EA90E46E8F7F8F88A32A
:104E200099A320E030E0A9010E940BEB882361F0F8
:104E3000F11006C0111104C09AA5992309F47CC190
:104E4000CE014E960E944BDEFF2009F4D3C0112301
:104E500009F4CDC0109266011092670110926801AA
:104E60001092690110926A0110926B0110926C010C
:104E700010926D010E942E47EBE5F7E0A491A8ABDC
:104E80008FE497E00E941A4D6B017C0183E597E067
:104E90000E941A4D4B015C019B01AC01C701B60198
:104EA0000E94A5F318162CF4A7019601C501B401C0
:104EB00004C0A5019401C701B6010E94A5F22B010F
:104EC0003C01E7E4F7E085919591A591B4918AA31F
:104ED0009BA3ACA3BDA3E3E4F7E085919591A591D5
:104EE000B4918EA39FA3A8A7B9A79C01AD016AA105
:104EF0007BA18CA19DA10E94A5F3181634F42EA0CD
:104F00003FA008A599A59AA305C02AA03BA00CA183
:104F1000ADA1AAA3A3019201C301B2010E9471EB4A
:104F200020E030E040E85FE30E9422F20E94E3F3D9
:104F30009101402F5AA10E9471EB6A8F7B8F8C8F59
:104F40009D8FECE5F7E0049120E030E040EC5FE37A
:104F5000C501B4010E9471EB4B015C01602F000F91
:104F6000770B880B990B0E9412EB9B01AC01C501DA
:104F7000B4010E9471EB69837A838B839C8320E068
:104F800030E040EC5FE3C701B6010E9471EB6B01BA
:104F90007C01B8A96B2FBB0F770B880B990B0E9474
:104FA00012EB9B01AC01C701B6010E9471EB6E8B45
:104FB0007F8B888F998FAE01465E5F4FBE016F5F1A
:104FC0007F4FCE0146960E9434460E946A89109215
:104FD00066011092670110926801109269011092A7
:104FE0006A0110926B0110926C0110926D0180E0C9
:104FF0000E943047112319F081E00E943047EAA552
:10500000EE2309F499C080E00E94437A83E00E9475
:105010008741811191C00E942E4740906E015090AF
:105020006F0160907001709071012091F60E3091C7
:10503000F70E4091F80E5091F90E60E070E08CEDA3
:1050400092E40E9421F26B017C016093340370931F
:10505000350380933603909337032091FA0E3091F5
:10506000FB0E4091FC0E5091FD0E60E070E08CED67
:1050700092E40E9421F24B015C016093380370932B
:10508000390380933A0390933B032091FE0E3091B5
:10509000FF0E4091000F5091010FC301B2010E9419
:1050A00021F260933C0370933D0380933E03909301
:1050B0003F0327E137EB41ED58EBC501B4010E94F6
:1050C000A5F387FD5CC027E030E04CE553E4C50163
:1050D000B4010E940BEB18160CF451C027E137EB1A
:1050E00041ED58EBC701B6010E94A5F387FD47C00B
:1050F00027E030E04CE553E4C701B6010E940BEB1A
:105100001816ECF11E8A1F8A188E198E88E0E4E3C7
:10511000F3E0DE01119601900D928A95E1F7AE0160
:105120004A5E5F4FBE016B5F7F4FCE0101960E94CA
:10513000344682E00E9430470E942E478091D70279
:105140008093D8028FA50E94D17C0E943B4583E0CA
:10515000809323010E94824802CE01E089E50E94EB
:105160006A78182F801709F445CEF02E06C0002368
:10517000A9F3102F02C0102FF02EEAA642CE60E055
:1051800083E197E00E94258E0E94FC2F81E097E04A
:105190000E94D62FD1CF0E94204DE1CD88E50E94FC
:1051A0006A7881115E9889E50E946A7881115E981B
:1051B0008AE50E946A78882309F4D1CD1598CFCD6D
:1051C0008DE40E94B3788823A9F00E940B78813087
:1051D00039F020F0823049F462E003C060E001C0A1
:1051E00061E0802F0E9493C705C089E996E00E9484
:1051F000D62FB5CD83E50E94B378882309F4AFCDCF
:105200000E940B78F82EB4E0EB1203C080931104D7
:10521000A6CD61E0802F0E9493C76F2D802F0E9442
:1052200064C76F2D70E0802F0E94CFC798CD83E5B3
:105230000E94B378882359F00E9433780E9417F3B4
:10524000CB010E94AF9961E080E00E94599D0E94CD
:1052500023E585CD83E50E94B378182F811105C021
:1052600082E50E94B378882341F10E9433780E943E
:1052700017F3CB010E94AF9961E081E00E94599D34
:1052800060913E0D70913F0D072E000C880B990B1D
:105290000E9412EB4B015C0140903A0D50903B0D87
:1052A00060903C0D70903D0DA30192010E94A5F30A
:1052B000181634F1112359F001E00E9423E5002370
:1052C00009F44DCD612F8F2D0E94319A48CDA30155
:1052D0009201C501B4010E94A5F318168CF08AEF63
:1052E00090E29F938F9385E896E09F938F931F9210
:1052F0000E945E8E0F900F900F900F900F90DCCF5A
:1053000089E091E2EECF83E50E94B378882309F427
:1053100026CD0E9433780E9417F3633771056CF431
:10532000962F872F9093A1028093A2020E94DF976D
:1053300061E080E00E94599D12CD93E780E0F2CFBA
:105340000E9418B488E50E946A78882331F05E9A3A
:105350008091F40E8E7F8093F40E89E50E946A7826
:10536000882331F05E9A8091F40E8D7F8093F40E45
:105370008AE50E946A78882309F4F1CC159A809115
:10538000F40E8B7F8093F40EEACC602F83E50E94AD
:10539000DB780C94D42083E50E94B378882391F0C5
:1053A0000E94337860930A0970930B0980930C096B
:1053B00090930D0960931209709313098093140957
:1053C0009093150980E50E94B378882351F00E94DC
:1053D000337860930A0970930B0980930C099093BA
:1053E0000D0982E50E94B378882351F00E9433783A
:1053F00060930E0970930F0980931009909311091F
:1054000084E50E94B378882309F4A9CC0E943378FC
:1054100060931209709313098093140990931509EE
:105420009ECC82E40E946A78882351F00E940A4D43
:105430006093E6087093E7088093E8089093E90882
:1054400083E50E946A78882351F00E943378609344
:10545000160970931709809318099093190984E528
:105460000E946A78882351F00E94337860931A0969
:1054700070931B0980931C0990931D098AE40E9474
:105480006A78882309F46BCC0E9433786B017C0125
:105490002AE037ED43E25CE30E94A5F387FD13C0E9
:1054A0002AE939E949E95EE3C701B6010E940BEB3D
:1054B00018164CF0C092F503D092F603E092F70371
:1054C000F092F8034CCC0E94F82F82ED93E00E94FA
:1054D000D62F45CCC12CD12CE12CB0E4FB2E5CC9DD
:1054E000C12CD12CE12CA0ECFA2E56C9A7019601B3
:1054F0006091FE0E7091FF0E8091000F9091010F50
:105500000E9422F26093FE0E7093FF0E8093000FB4
:105510009093010F0E94FC2F4091FE0E5091FF0EC0
:105520006091000F7091010F8FE893E00E94E431C9
:105530008AE00E94CF2F50C982E50E946A788111CB
:1055400054C90DCC0E94F82F85E293E00E94D62F1B
:1055500006CCB7FAB094B7F8B094D7018D929D926B
:10556000AD92BC921397DECA0E94F82F87E093E0B9
:105570000E94D62F61E089EF92E00E94258E0E9462
:1055800026A1EDCB0C5F1F4FBFEFCB1ADB0AE9E37F
:10559000F7E0E017F10709F098CA3FE7E32E32E0A1
:1055A000F32E10E0F10181919191A191B1911F0130
:1055B000F70181939193A193B1937F01812F0E9471
:1055C00054411F5F133071F70E94824860E089EEFA
:1055D00092E00E94258EC3CBF091F60EFAA3809044
:1055E000F70E7090F80E6090F90E5090FA0E409001
:1055F000FB0E3090FC0E2090FD0EC090FE0ED09061
:10560000FF0EE090000FF090010F88E50E94B37844
:10561000882361F10E9433785B018C0120E030E047
:105620004CE553EC0E94A5F387FD0AC020E030E072
:105630004CE553E4B501C8010E940BEB181694F435
:105640006CED70E08CEB92E00E9462316CED70E0EA
:1056500087EB92E00E94623186E294E00E94D62FAE
:1056600010E005C0AAA28B2C702E612E11E089E5F6
:105670000E94B378882381F10E943378962EA72E5A
:10568000B82E092F20E030E04CE553EC0E94A5F342
:1056900087FD0CC020E030E04CE553E4692D7A2D05
:1056A0008B2D902F0E940BEB181694F46CED70E08C
:1056B00084EA92E00E9462316CED70E087EB92E048
:1056C0000E94623186E294E00E94D62F10E004C06E
:1056D000592C4A2C3B2C202E8AE50E94B378882333
:1056E00039F10E9433786B017C0120E030E040EA20
:1056F00051EC0E94A5F387FD0AC020E030E040EAAB
:1057000051E4C701B6010E940BEB18168CF46CEE45
:105710007FEF82E992E00E94623164E170E087EB02
:1057200092E00E94623186E294E00E94D62F17CB6D
:10573000112309F414CB8AA1982DA72DB62D80939F
:10574000F60E9093F70EA093F80EB093F90E852DF8
:10575000942DA32DB22D8093FA0E9093FB0EA0935F
:10576000FC0EB093FD0EC092FE0ED092FF0EE092A2
:10577000000FF092010FF3CAE0960FB6F894DEBF67
:105780000FBECDBFDF91CF911F910F91FF90EF9092
:10579000DF90CF90BF90AF909F908F907F906F9051
:1057A0005F904F903F902F9008952F923F924F928D
:1057B0005F926F927F928F929F92AF92BF92CF92A1
:1057C000DF92EF92FF920F931F93CF93DF93CDB7AA
:1057D000DEB72C970FB6F894DEBF0FBECDBF182FE3
:1057E000062FF42E522E262F30E03C872B87E4E044
:1057F0008E9FC00111249A878987FC01E20FF31F55
:10580000EE0FFF1FEE0FFF1FE55CFD4F6081718102
:10581000828193819B01AC010E9423F4882309F4C7
:105820001AC11F0D202F250DF4E01F9FD001112458
:10583000EB85FC85EA0FFB1FEE0FFF1FEE0FFF1F2E
:10584000E55CFD4FA080B180C280D3801F0D34E0A5
:10585000139FA0011124EB85FC85E40FF51FEE0FCB
:10586000FF1FEE0FFF1FE55CFD4FE080F18002811E
:105870001381822F90E0E985FA85E80FF91FEE0F7A
:10588000FF1FEE0FFF1FE55CFD4F9080818072804F
:105890006380250D30E0E985FA85E20FF31FEE0FF6
:1058A000FF1FEE0FFF1FE55CFD4F508041803280EF
:1058B0002380A80FB91FAA0FBB1FAA0FBB1FA55C8F
:1058C000BD4F8C91898311969C9111979A83129662
:1058D000EC911297EB831396FC91FC83FA01E20F93
:1058E000F31FEE0FFF1FEE0FFF1FE55CFD4F208142
:1058F0002D8331813E8382818F83938198879701A5
:10590000A801B701C8010E9423F4882321F0E12CEB
:10591000F12C00E010E09501A601B501C6010E943E
:1059200023F4882311F057016801252D342D432DD0
:10593000522D652D742D832D922D0E9423F48823E2
:1059400021F0512C412C312C212C292D382D472D83
:10595000562D692D782D872D962D0E9423F48823AE
:1059600011F0420131012D813E814F8158856D81B9
:105970007E818F8198850E9423F4882321F01D82E7
:105980001E821F82188629813A814B815C81698140
:105990007A818B819C810E9423F4882341F0ED81E0
:1059A000E983FE81FA832F812B8338853C838B85A5
:1059B0009C85E985FA858E0F9F1F880F991F880F98
:1059C000991F855C9D4F9A8789879501A601B5012E
:1059D000C6010E9422F29701A8010E9421F26B01E8
:1059E0007C01292D382D472D562D692D782D872D99
:1059F000962D0E9422F2252D342D432D522D0E94EA
:105A000021F29B01AC01C701B6010E9422F26B0199
:105A10007C0129813A814B815C8169817A818B810A
:105A20009C810E9422F22D813E814F8158850E94E7
:105A300021F29B01AC01C701B6010E9422F220E0D5
:105A400030E040E450E40E94A5F2E985FA856083E5
:105A50007183828393832C960FB6F894DEBF0FBEBA
:105A6000CDBFDF91CF911F910F91FF90EF90DF900D
:105A7000CF90BF90AF909F908F907F906F905F90EE
:105A80004F903F902F9008952091BD033091BE0319
:105A9000280F391F3093BE032093BD032091280A9D
:105AA0003091290A820F931F9093290A8093280A24
:105AB0000E943BA06093D9027093DA028093DB02CC
:105AC0009093DC020895CF92DF92EF92FF926B01E8
:105AD0007C0183E3C816D104E104F10470F082E391
