:100000000C941E170C9448170C9448170C9448171E
:100010000C9448170C9448170C9448170C944817E4
:100020000C9448170C94B55E0C9448170C94481720
:100030000C9448170C9450450C9448170C9448178E
:100040000C9448170C940A420C946B5E0C9448175D
:100050000C948F8A0C94858A0C9448170C9448173A
:100060000C9448170C9448170C9448170C94481794
:100070000C9448170C9448170C9448170C94481784
:100080000C9448170C9448170C9448175C5D5F5DFE
:10009000525D565D765D765D635D675D6D5D715D3C
:1000A000DA5DDF5DE45DEE5D1C5E1C5EF85D005EAA
:1000B000085E125E7D8360836383808366836983C9
:1000C0006C8378836F838B83728375838FD44ED3D5
:1000D00085D3CBD485D385D385D385D385D385D319
:1000E00085D385D385D385D385D385D385D385D350
:1000F00085D385D385D385D385D385D385D385D340
:1001000085D385D385D385D3C5D485D385D385D3EE
:1001100085D385D385D385D385D39ED485D385D305
:1001200085D385D385D385D385D385D385D385D30F
:10013000E2D482D3084AD73B3BCE016E84BCBFFDDC
:10014000C12F3D6C74319ABD56833DDA3D00C77FA7
:1001500011BED9E4BB4C3E916BAAAABE0000008040
:100160003F05A84CCDB2D44EB93836A9020C50B9CF
:10017000918688083CA6AAAA2ABE000000803F00FB
:100180004E414E494E495459494E46CDCCCC3D0A7C
:10019000D7233C17B7D13877CC2B329595E6241F5F
:1001A000B14F0A000020410000C84200401C462018
:1001B000BCBE4CCA1B0E5AAEC59D7400407A10F3EB
:1001C0005A00A0724E18090010A5D4E80000E87685
:1001D00048170000E40B54020000CA9A3B000000DC
:1001E000E1F505000080969800000040420F0000F5
:1001F00000A08601000000102700000000E80300B6
:100200000000006400000000000A0000000000017F
:1002100000000000002C76D888DC674F0823DFC17F
:10022000DFAE59E1B1B796E5E3E453C63AE651993A
:100230007696E8E6C28426EB898C9B62ED407C6F63
:10024000FCEFBC9C9F40F2BAA56FA5F490055A2A1A
:10025000F75C936B6CF9676DC11BFCE0E40D47FE26
:10026000F520E6B500D0ED902E030094357705001B
:1002700080841E080000204E0A000000C80C3333A2
:1002800033330F986E12831141EF8D2114893BE6B1
:100290005516CFFEE6DB18D1844B381BF77C1D903A
:1002A0001DA4BBE424203284725E228100C9F124A3
:1002B000ECA1E53D27434F4D4D554E49434154492F
:1002C0004F4E0044525952554E004552524F5253D0
:1002D00000494E464F004543484F00536C656570DA
:1002E0002E2E2E004D65736820706F696E74206F1E
:1002F0007574206F662072616E67650A00436C69D1
:10030000636B20746F20526573756D652E2E2E0001
:100310004E6F204D6F76652E002569792025696422
:10032000202569682025696D202569730050726950
:100330006E742074696D653A2000496E76616C694F
:10034000642050696E204D6F64650A004520255376
:10035000006F66660044454255473A004D313132E0
:100360002053687574646F776E004D3131332053BC
:100370000042656420436F6F6C696E672E2E2E00FD
:100380004265642048656174696E672E2E2E0045B3
:100390006E6465722D352050726F204F46462E00D8
:1003A0004348414D4245525F54454D50455241549A
:1003B00055524500424142595354455050494E47C9
:1003C0000041524353004D4F54494F4E5F4D4F44EF
:1003D000455300544845524D414C5F50524F54458F
:1003E0004354494F4E004C4F4E475F46494C454E93
:1003F000414D45004155544F5245504F52545F5363
:10040000445F5354415455530053444341524400B4
:1004100050524F4D50545F535550504F5254004519
:100420004D455247454E43595F5041525345520046
:10043000434153455F4C494748545F4252494748FE
:10044000544E45535300544F47474C455F4C494722
:1004500048545300534F4654574152455F504F57ED
:100460004552004255494C445F50455243454E5415
:10047000004C4556454C494E475F44415441005A53
:100480005F50524F4245004155544F4C4556454CE4
:10049000005052494E545F4A4F420050524F47520B
:1004A000455353004155544F5245504F52545F5499
:1004B000454D5000564F4C554D455452494300420E
:1004C000494E4152595F46494C455F5452414E5343
:1004D0004645520053455249414C5F584F4E5F5874
:1004E0004F4646004649524D574152455F4E414D99
:1004F000453A4D61726C696E206275676669782D48
:10050000322E302E7820284A756E20323920323033
:1005100032302031363A34373A32312920534F5570
:100520005243455F434F44455F55524C3A6874749B
:1005300070733A2F2F6769746875622E636F6D2F21
:100540004D61726C696E4669726D776172652F4D8F
:1005500061726C696E2050524F544F434F4C5F563E
:10056000455253494F4E3A312E30204D4143484970
:100570004E455F545950453A456E6465722D35209D
:1005800050726F2045585452554445525F434F5561
:100590004E543A3120555549443A63656465326199
:1005A00032662D343161322D343734382D39623191
:1005B000322D6335356336326633363766660A0068
:1005C0002F2F20004D31343520533C696E646578FF
:1005D0003E206F7574206F662072616E67652028FB
:1005E000302D31290A00416363656C65726174695D
:1005F0006F6E3A2050003F4A206F7574206F66205E
:1006000072616E67652028302E303120746F203083
:100610002E33290A0020204D61783A200020204DF9
:10062000696E3A2000536F667420656E6473746F50
:1006300070733A200046523A0020466C6F773A2099
:100640000050726F7465637465642050696E0A00AF
:100650004D424C2041646A757374205A00496E768D
:10066000616C69642065787472756465720A002033
:10067000643A0020693A0020703A006469730043CC
:10068000290A0061626C656420286D696E207465BA
:100690006D702000436F6C642065787472756465BA
:1006A000732061726520004F46460A00466164650A
:1006B0002048656967687420004661696C6564203C
:1006C000746F20656E61626C6520426564204C65C4
:1006D00076656C696E670A004D65736820426564D3
:1006E000204C6576656C20646174613A0A00496E3D
:1006F00076616C6964206D6573682E0A004D343232
:100700003120696E636F727265637420706172610B
:100710006D657465722075736167650A004F666662
:1007200073657473204170706C6965640045727202
:100730003A20546F6F206661722100546F6F2066FB
:1007400061722066726F6D207265666572656E6398
:100750006520706F696E740A00454550524F4D20F8
:100760004F4B0A00D602D102CA02C302B502507230
:10077000696E74205061757365640020746F6F201A
:100780006C6F6E6720657874727573696F6E207018
:10079000726576656E7465640A0020636F6C642010
:1007A000657874727573696F6E2070726576656EA8
:1007B0007465640A00456E6465722D352050726F51
:1007C0002052656164792E005072696E74696E679B
:1007D0002E2E2E0020453A00205A3A0020593A0089
:1007E000202D20496E76616C69642065787472757D
:1007F000646572206E756D62657220210A0054482E
:1008000045524D414C2052554E4157415900546874
:1008100065726D616C2052756E6177617900457209
:10082000723A204D415854454D50004D4158544561
:100830004D50207472696767657265640045727215
:100840003A204D494E54454D50004D494E54454D6A
:10085000502074726967676572656400202F0020FC
:1008600042403A0020403A0020573A0070012C01E3
:1008700090012701B0012201C0011D01F001180102
:100880001002130130020E016002090190020401FE
:10089000C002FF000003FA004003F5008003F000EF
:1008A000D003EB002004E6007004E100E004DC006B
:1008B0004005D700C005D2004006CD00D006C800D4
:1008C0008007C3003008BE00F008B900C009B400BA
:1008D000B00AAF00B00BAA00D00CA500000EA0001B
:1008E000500F9B00C01096005012910000148C0015
:1008F000C0158700B0178200B0197D00D01B7800AA
:10090000001E730040206E0090226900F0246400F5
:1009100040275F0090295A00E02B5500102E500010
:1009200020304B0010324600E033410090353C004F
:100930001037370070383200A0392D00B03A280047
:10094000A03B2300603C1E00103D1900903D1400A8
:10095000103E0F00703E0A00C03E0500003F000040
:10096000403FFBFF803FF6FFC03FF1FF24F4D4304F
:1009700050C38E20C2A24017828B7011127A910D43
:10098000816CD90AA861E108C7586607615143061E
:100990001E4B5D05C145A7041A411104093D98038A
:1009A000713931034036DB0265339102D430540291
:1009B000802E1D02632CEE01752AC501B028A0010E
:1009C000102781018F2564012B244B01E022340183
:1009D000AC211F018D200D01801FFC00841EED0045
:1009E000971DDF00B81CD200E61BC600201BBC0010
:1009F000641AB200B219A8000A19A0006A18990076
:100A0000D117910040178B00B516840031167E0077
:100A1000B31579003A157300C7146F0058146A00B3
:100A2000EE1366008813630025135E00C7125B0097
:100A30006C12570015125400C111510070114F0073
:100A400021114B00D61049008D104700461044007C
:100A500002104200C00F4000800F3E00420F3C00D9
:100A6000060F3B00CB0E3800930E37005C0E3500AE
:100A7000270E3400F30D3200C10D3100900D30000F
:100A8000600D2E00320D2D00050D2C00D90C2B0011
:100A9000AE0C2900850C29005C0C2700350C2700C2
:100AA0000E0C2600E80B2400C40B2400A00B23002E
:100AB0007D0B23005A0B2100390B2100180B20005D
:100AC000F80A1F00D90A1E00BB0A1E009D0A1D005D
:100AD000800A1D00630A1C00470A1B002C0A1B0029
:100AE000110A1A00F7091A00DD091900C4091900D2
:100AF000AB091900920917007B0918006309170058
:100B00004C09160036091600200916000A091500BE
:100B1000F5081500E0081400CC081400B80814000B
:100B2000A4081400900813007D0812006B0813003D
:100B3000580812004608120034081100230811005A
:100B40001208110001081100F0071000E007100062
:100B5000D0071000C0071000B0070F00A107100059
:100B600091070E0083070F0074070F0065070E0042
:100B700057070E0049070E003B070D002E070E0019
:100B800020070D0013070D0006070D00F9060C00E5
:100B9000ED060D00E0060C00D4060C00C8060C00A3
:100BA000BC060C00B0060C00A4060B0099060C0055
:100BB0008D060B0082060B0077060B006C060B00FF
:100BC00061060A0057060B004C060A0042060A009E
:100BD00038060A002E060A0024060A001A060A0031
:100BE0001006090007060A00FD050900F4050900C2
:100BF000EB050900E2050900D9050900D005090047
:100C0000C7050900BE050900B5050800AD050800C7
:100C1000A50509009C050800940508008C0508003E
:100C2000840508007C050800740508006C050700B1
:100C3000650508005D050700560508004E0507001C
:100C40004705070040050800380507003105070083
:100C50002A050700230507001C05060016050700E6
:100C60000F0507000805060002050700FB04060043
:100C7000F5040700EE040600E8040600E20407009D
:100C8000DB040600D5040600CF040600C9040600F4
:100C9000C3040600BD040600B7040600B104050045
:100CA000AC040600A6040600A00405009B04060090
:100CB00095040500900406008A04050085040500DB
:100CC000800406007A040500750405007004050020
:100CD0006B04050066040500610405005C04050062
:100CE00057040500520405004D04050048040500A2
:100CF000430405003E0404003A04050035040500E1
:100D0000300404002C04050027040400230405001B
:100D10001E0404001A040400160405001104040053
:100D20000D04040009040500040404000004040088
:100D3000FC030400F8030400F4030400F0030400BF
:100D4000EC030400E8030400E4030400E0030400EF
:100D5000DC030400D8030400D4030400D00304001F
:100D6000CC030400C8030300C503030024F404D922
:100D7000201BC40C5C0E9804C4095F026507710156
:100D8000F405F900FB04B30048048700C1036900BF
:100D90005803550003034500BE023A0084023100A7
:100DA00053022A002902250004022000E4011C004D
:100DB000C8011900AF011700980114008401130045
:100DC000710110006101100051010E0043010D007E
:100DD00036010B002B010B0020010B00150109004F
:100DE0000C01090003010800FB000800F3000800E3
:100DF000EB000700E4000600DE000600D800060055
:100E0000D2000600CC000500C7000500C2000500A6
:100E1000BD000400B9000400B5000400B1000400E6
:100E2000AD000400A9000400A5000300A200030017
:100E30009F0004009B00030098000300950002003F
:100E400093000300900003008D0002008B0003005C
:100E50008800020086000200840003008100020076
:100E60007F0002007D0002007B000200790002008A
:100E70007700010076000200740002007200010099
:100E8000710002006F0002006D0001006C000200A2
:100E90006A000100690002006700010066000100AD
:100EA00065000100640002006200010061000100B1
:100EB000600001005F0002005D0001005C000100B5
:100EC0005B0001005A0001005900010058000100B8
:100ED00057000100560001005500010054000100B8
:100EE00053000000530001005200010051000100B6
:100EF000500001004F0001004E0000004E000100B4
:100F00004D0001004C0001004B0000004B000100AF
:100F10004A000100490001004800000048000100AB
:100F200047000100460000004600010045000000A7
:100F3000450001004400010043000000430001009F
:100F40004200000042000100410000004100010099
:100F5000400001003F0000003F0001003E00000093
:100F60003E0001003D0000003D0001003C0000008B
:100F70003C0000003C0001003B0000003B00010081
:100F80003A0000003A000100390000003900010079
:100F90003800000038000000380001003700000071
:100FA0003700010036000000360000003600010066
:100FB000350000003500000035000100340000005D
:100FC0003400000034000100330000003300000052
:100FD0003300010032000000320000003200010046
:100FE000310000003100000031000100300000003D
:100FF00030000000300001002F0000002F00000032
:101000002F0000002F0001002E0000002E00000025
:101010002E0001002D0000002D0000002D0000001A
:101020002D0001002C0000002C0000002C0000000E
:101030002C0001002B0000002B0000002B00000002
:101040002B0001002A0000002A0000002A000000F6
:101050002A000100290000002900000029000000EA
:1010600029000000290001002800000028000000DD
:1010700028000000280000002800010027000000D0
:1010800027000000270000002700000027000100C3
:1010900026000000260000002600000026000000B8
:1010A00026000100250000002500000025000000AA
:1010B000250000002500000025000100240000009C
:1010C000240000002400000024000000240001008F
:1010D0002300000023000000230000002300000084
:1010E0002300000023000000230001002200000074
:1010F0002200000022000000220000002200000068
:101100002200010021000000210000002100000059
:10111000210000002100000021000000210001004A
:10112000200000002000000020000000200000003F
:10113000200000002000000020000000200001002E
:101140001F0000001F0000001F0000001F00000023
:101150001F0000001F0000001F0001001E00000013
:101160001E0000001E0000001E00000004370000EA
:101170001E290000511B000058100000100900003B
:10118000CC04000078020000410100004C6F616453
:10119000206D6D00556E6C6F6164206D6D00466949
:1011A0006C2E204469612E004520696E206D6DC251
:1011B000B3004D3330332055312045256920532568
:1011C0006900504944204175746F74756E65202A1A
:1011D000005049442D44202A005049442D49202ADA
:1011E000005049442D50202A002008204661637495
:1011F000002008204D6178002008204D696E0041D4
:1012000075746F74656D70005654726176204D6907
:101210006E00566D696E00566D6178204500566D02
:101220006178205A00566D6178205900566D6178BA
:10123000205800416D6178204500416D6178205A49
:1012400000416D6178205900416D6178205800415E
:101250002D54726176656C00412D52657472616324
:101260007400416363656C004A756E6374696F6EE8
:1012700020446576004573746570732F6D6D005A58
:1012800073746570732F6D6D005973746570732F6F
:101290006D6D005873746570732F6D6D0002FFFFE4
:1012A000FFFFEFFFFFFFFFFFFFFFFFFFFFEFEFFF7E
:1012B000FFFFFFFFFFFFFFFFE7DFFFFFFFFFFFFF76
:1012C000FFFFFFE7DFFFFFFFFFFFFFFFFFFFE3DFA2
:1012D000FFFFFFFFFFFFFFFFFFF3CFFFFFFFFFFF5A
:1012E000FFFFFFE1E1CFFFFFFFFFFFFFFE78000000
:1012F00003DDFFFFFFFFFEFF807E0001EEFFFFFF2B
:10130000FFFE7DCFFC0000F77FFFFFFFFF8E060092
:1013100000007BBFFFFFFFFFC0000000007DDFFF7C
:10132000FFFFFFFC01FE00003EE7FFFFFFFFFFFFA6
:10133000FC00031F73FFFFFFFFFFFFF800018F8119
:10134000FFFFFFFFFFFFE0000083F9FFFFFFFFFF4C
:10135000FF00FC0000F0FFFFFFFFFFE00FFFC000F9
:1013600000FFFFFFFFFE03FFFFC00000FFFFFFFFC6
:10137000FFFFFFF9000000FFFFFFFFFFFFFFFC0082
:1013800007C0FFFFFFFFFFFFFFFF0007E0FFFFFFBA
:10139000FFFFFFFFFFE007F1FFFFFFFFFFFFFFFF82
:1013A000FC07F9FFFFFFFFFFFFFFFFFF03F9FFFF50
:1013B000FFFFFFFFFFFFFF83F9FFFFFFFFFFFFFFBF
:1013C000FFFFC3FFFFFFFFFFFFFFFFFFFFE1FFFF87
:1013D000FFFFFFFFFFFFFFFFF0BFFFFFFFFFFFFF6C
:1013E000FFFFFBF83FFFFFFFFFFFFFFFFFF9F83FA5
:1013F000FFFFFFFFFFFFFFFF7EF0FFFFFFFFFFFF8D
:10140000FFFFFF8E03FFFFFFFFFFFFFFFFFFE01F58
:10141000FFFFFFFFFFFFFFFFFFFFFFFFFFFFFFFFDC
:10142000FFFFFFFFFFFFFFFFFFFFFFFFFFFFFFFFCC
:10143000FF7FFFFFFFFF00007FFFFFF87FFFFFFF41
:10144000FF80007FFFFFE07FFFFFFFFFC3FCFFFF88
:10145000FFF8FFFFFFFFFFC3FCFFFFFFF8FFFFFFE9
:10146000FFFF87FDFFFFFFF1FFFFFFFFFF87FFFF8C
:10147000FFFFF1FFFFFFFFFF0FE7F30FFC23FC3F30
:10148000FFFFFF0FEF8007F003F01E007FFE1FCF6E
:101490008187C787C70C007FFE001FC7C78FC79F04
:1014A0000F0CFFFE001F878F1F8F1F0F1FFFFC3FBA
:1014B0009F8F8F1F8E001E3FFFFC7F3F0F1E3F1E22
:1014C0003FFE3FFFF87FFF1F1C3F1C7FFC7FFFF8A4
:1014D000FFFF1E1C7E1C7FFC7FFFF0FFCE3E3C7E8C
:1014E0003C7FB8FFFFF0FF9E3C387C387E78FFFFE2
:1014F000E1FF3C7C787C783CF1FFFFE1F8387878BC
:10150000101801F1FFFF000060203C007C07807F85
:10151000FFFFFFFFFFFE1FFE1FFFFFFF01FFFFFF9B
:10152000FFFFFFFFFFFFFFFFFFFF0FFFFFFFFFFFBB
:10153000FFFFFFFFFFFFFFFF1E0000000000000095
:1015400000000007FFFF380000000000000000005E
:101550000003FFFF70000000000000000000000119
:10156000FFFF600000000000000000000000FFFF1F
:101570006000000000000000000000007FFFC000CD
:10158000000000000000007800003FFFC00FC0FC1A
:1015900000000000007818001FFFC03FE1FF0000BE
:1015A000000000783C000FFFC07FF3FF80000000C8
:1015B00000783C0007FFC0FFFFFFC000000000787C
:1015C0003C0003FFC1F87F87E000000000780000C6
:1015D00001FFC1F03F03E00000000078000000FFC1
:1015E000C1E01E01E01F0003E0783C03F07FC1E092
:1015F0001E01E07FC00FF8783C07FC3FC1E01E01F0
:10160000E1FFE01FFC783C0FFE1FC1E01E01E3FF7D
:10161000F03FFE783C1FFE0FC1E01E01E3F3F83FF0
:101620003E783C3F3F07C1E01E01E7E0FC7C1F78AD
:101630003C3E1F07C1E01E01E7C07C7C0F783C3CAC
:101640000F03C1E01E01E7807C780F783C3C0F035C
:10165000C1E01E01E7803C7800783C3C0F03C1E00C
:101660001E01E7803C7800783C3C0F03C1E01E017E
:10167000E7803C7800783C3C0F03C1E01E01E7C0E6
:101680003C7800783C3C0F03C1E01E01E3E03C786D
:10169000007C3C3C0F03C1E01E01E3FF3FF8007FEC
:1016A000BC3C0F03C1E01E01E1FF3FF8003FBFFC5F
:1016B0000F03C1E01E01E0FF3FF8001FBFFC0F0356
:1016C000C1E01E01E07F3FF8000FBFFC0F03600088
:1016D00000000000000000000000000760000000A3
:1016E0000000000000000000000670000000000084
:1016F000000000000000000E3800000000000000A4
:1017000000000000001C1E0000000000000000009F
:10171000000000780FFFFFFFFFFFFFFFFFFFFFFF4D
:10172000FFF001FFFFFFFFFFFFFFFFFFFFFFFF8055
:1017300000002100240027002A00687474703A2FEA
:101740002F6D61726C696E66772E6F7267006275BD
:10175000676669782D322E302E78002020506C611B
:101760006E6E657242756666657242797465733A2B
:1017700020002046726565204D656D6F72793A20B4
:1017800000436F6D70696C65643A204A756E203253
:101790003920323032300A00204C61737420557089
:1017A00064617465643A20323032302D30362D3227
:1017B00039207C20417574686F723A202844657620
:1017C000696E204B61697365722C20456E64657289
:1017D0002D352050726F290A006275676669782D71
:1017E000322E302E780A004D61726C696E002053E3
:1017F0006F6674776172652052657365740A0020A4
:101800005761746368646F672052657365740A007A
:101810002042726F776E206F757420526573657405
:101820000A002045787465726E616C20526573659C
:10183000740A00506F77657255700A00456E6473C4
:10184000746F707300255320256320256320256362
:1018500020256300656E6473746F7073206869740B
:101860003A20004D6F7665205A004D6F7665202531
:10187000736D6D004D6F766520302E316D6D004DAE
:101880006F766520316D6D004D6F76652031306D5E
:101890006D004D6F7665204178697300486F7465FF
:1018A0006E6420746F6F20636F6C6400457874728F
:1018B00075646572004D6F76652059004D6F7665D1
:1018C000205800486F6D65202573257325732046C9
:1018D0006972737400220A00556E6B6E6F776E200A
:1018E000636F6D6D616E643A202200000022002556
:1018F0000028002B00000020002300260029000201
:1019000002020202020202040404040404040403A6
:1019100003030303030303010101010101010101A9
:1019200002040810204080010204081020408001B9
:1019300002040810204080804020100804020100AA
:101940000000010200090A0000000004030807006B
:101950000000000000000000000000000000004F38
:101960006666004F6E0043616E63656C00496E6988
:1019700074004D3432380053746570732F6D6D00F0
:101980004A65726B00416363656C65726174696F6F
:101990006E0056656C6F63697479005365742048F6
:1019A0006F6D65204F666673657473004C65766570
:1019B0006C696E6720446F6E6521004E65787420F7
:1019C000506F696E74002569202F202575004732FD
:1019D0003920533100436C69636B20746F2042657A
:1019E00067696E00486F6D696E672058595A0046E6
:1019F00061646520486569676874004C6576656C4C
:101A000020426564006F70656E0054524947474537
:101A1000524544007A5F6D696E00795F6D617800B0
:101A2000785F6D6178005265706F7274696E6720BF
:101A3000656E6473746F70207374617475730A00DB
:101A40005761726E696E673A20486F6D696E6720E4
:101A500042756D702044697669736F72203C203145
:101A60000A0000005C4300005C430000000000002E
:101A7000A0410000A041000080400202040000A03C
:101A8000400000A0400000004000005C4300005CFB
:101A900043000096430101FF436F6E6669677572EC
:101AA0006174696F6E004D6F74696F6E004265649A
:101AB000204C6576656C696E67004368616E67658A
:101AC0002046696C616D656E740050726568656171
:101AD0007420437573746F6D004261636B004162E3
:101AE0006F7574205072696E746572004D363030B7
:101AF0002042300054756E6500496E666F20536356
:101B00007265656E004D38340044697361626C65BE
:101B100020537465707065727300473238004175E8
:101B2000746F20486F6D65004C6F6164205365745D
:101B300074696E67730053746F72652053657474B3
:101B4000696E677300416476616E636564205365F6
:101B50007474696E677300554E4C4F41442046497A
:101B60004C414D454E540046494C414D454E542044
:101B70004348414E474500526573746F7265204477
:101B8000656661756C747300507265686561742078
:101B900041425320436F6E66005072656865617400
:101BA00020504C4120436F6E66004D373032205438
:101BB0002564004D36303020423020542564004DDD
:101BC000373032203B2564004D37303120542564B6
:101BD00000436F6E74696E7565005075726765209D
:101BE0006D6F726500524553554D45204F50544915
:101BF0004F4E533A005052494E5420504155534590
:101C0000440020204E6F7A7A6C653A2000313235DC
:101C1000004245443A4550434F53203130304B0049
:101C200052756E617761792057617463683A204F0D
:101C30004E004D61782054656D7000323735004D8F
:101C4000696E2054656D700045313A204550434F10
:101C500053203130304B005053550047656E65724C
:101C600069630050726F746F636F6C00312E3000C7
:101C70004261756400313135323030004D656C7A27
:101C8000692028437265616C69747929004D657318
:101C900068204C6576656C696E670045787472756E
:101CA0006465727300456E6465722D352050726FE5
:101CB00000323032302D30362D32390054686572A2
:101CC0006D6973746F727300426F61726420496E44
:101CD000666F005072696E74657220496E666F009F
:101CE0005061726B696E672E2E2E0000005761697D
:101CF0007420666F720066696C616D656E74206336
:101D000068616E676500746F207374617274005748
:101D100061697420666F720066696C616D656E74CE
:101D200020756E6C6F616400004E6F7A7A6C65206E
:101D300068656174696E6700506C656173652077D2
:101D40006169742E2E2E00005072657373206275C7
:101D500074746F6E00746F2068656174206E6F7AA2
:101D60007A6C650000496E736572742066696C61F7
:101D70006D656E7400616E642070726573732062AD
:101D80007574746F6E00746F20636F6E74696E7516
:101D900065005761697420666F720066696C616DD9
:101DA000656E74206C6F61640000507265737320FF
:101DB000427574746F6E00746F20726573756D6513
:101DC000207072696E7400005761697420666F72CA
:101DD000207072696E7400746F20726573756D6522
:101DE0002E2E2E00005761697420666F720066699E
:101DF0006C616D656E742070757267650000457268
:101E0000726F722077726974696E6720746F2045F3
:101E10004550524F4D210A004D343130004D313183
:101E200032004D3130380053544F505045442E202D
:101E3000005072696E7465722073746F707065649F
:101E40002064756520746F206572726F72732E2026
:101E500046697820746865206572726F7220616EC1
:101E60006420757365204D39393920746F2072658F
:101E700073746172742E202854656D70657261747C
:101E80007572652069732072657365742E205365C1
:101E90007420697420616674657220726573746160
:101EA0007274696E67290A004E6F20436865636B20
:101EB00073756D2077697468206C696E65206E7526
:101EC0006D6265722C204C617374204C696E653AAA
:101ED0002000636865636B73756D206D69736D6158
:101EE0007463682C204C617374204C696E653A20D1
:101EF000004C696E65204E756D62657220697320B5
:101F00006E6F74204C617374204C696E65204E7541
:101F10006D6265722B312C204C617374204C696E9C
:101F2000653A20004D313130002121204B494C4C85
:101F30002063617573656420627920746F6F206D12
:101F400075636820696E6163746976652074696D74
:101F500065202D2063757272656E7420636F6D6DE0
:101F6000616E643A2000627573793A20706175730E
:101F7000656420666F7220696E7075740A00627500
:101F800073793A2070617573656420666F7220758D
:101F90007365720A00627573793A2070726F6365B7
:101FA0007373696E670A000F150E1216170E13036E
:101FB000021A1401000E0DFF180C040C1900015434
:101FC000656D7065726174757265005072656865E3
:101FD0006174204142532042656400507265686517
:101FE000617420504C412042656400507265686500
:101FF00061742041425320456E64005072656865EB
:10200000617420504C4120456E64005072656865D3
:1020100061742041425300507265686561742050BC
:102020004C410046616E205370656564004E6F7AC6
:102030007A6C6500426564205A004D61696E004308
:102040006F6F6C646F776E00426162797374657054
:10205000205A00466C6F77004361703A0047322F78
:1020600047332062616420706172616D65746572CE
:10207000730A006F6B00526573656E643A2000232B
:10208000646566696E652044454641554C545F0061
:102090004B6420004B6920004B70200050494420C5
:1020A0004175746F74756E652066696E69736865D5
:1020B00064212050757420746865206C61737420ED
:1020C0004B702C204B6920616E64204B6420636F41
:1020D0006E7374616E74732066726F6D2062656CCE
:1020E0006F7720696E746F20436F6E6669677572D3
:1020F0006174696F6E2E680A0050494420417574FE
:102100006F74756E65206661696C65642120746901
:102110006D656F75740A000A20436C61737369639F
:1021200020504944200A00204B643A2000204B698B
:102130003A2000204B703A20002054753A200020AD
:102140004B753A2000206D61783A2000206D696E51
:102150003A200020643A200020626961733A20002E
:10216000504944204175746F74756E6520737461B5
:1021700072740A00504944204175746F74756E651D
:10218000206661696C6564212054656D70657261BB
:102190007475726520746F6F20686967680A0050F3
:1021A0004944204175746F74756E65005049442030
:1021B0004175746F74756E65206661696C65642124
:1021C00020426164206578747275646572206E7552
:1021D0006D6265720A00506C6561736520526573AB
:1021E0006574005052494E5445522048414C544564
:1021F000440025533A202553004B494C4C45442E6E
:1022000020005072696E7465722068616C74656438
:102210002E206B696C6C28292063616C6C656421CD
:102220000A006563686F3A004572726F723A000A7D
:102230004D6561737572656420706F696E74733A71
:102240000A00347834206D6573682E205A206F663A
:10225000667365743A2000206E6F7420656E746535
:102260007265642E0A00206F6620004D424C2047A4
:10227000323920706F696E7420004A206F757420A7
:102280006F662072616E67652028302D0049206FCF
:102290007574206F662072616E67652028302D008E
:1022A0004D6573682070726F62696E6720646F6E2F
:1022B000652E0A005374617274206D657368207016
:1022C000726F62696E6720776974682022473239BD
:1022D000205331222066697273742E0A0047323807
:1022E0000A47323920533200686173206E6F2064D0
:1022F0006174612E0A004D65736820426564204C4C
:102300006576656C696E67200053206F7574206F69
:10231000662072616E67652028302D35292E0A00EF
:102320001FE020102010201010201020201020105E
:1023300030300840048003001FE03FF03FF03FF0E2
:102340001FE01FE03FF03FF03FF00FC007800300A9
:102350003FFFF038007030FC3020FC102078102057
:1023600030102C00D02E31D02F7BD02F7BD02E31AF
:10237000D02C00D020301020781020FC1030FC3001
:102380003800703FFFF03FFFF03800703186302397
:1023900087102787902F87D02F03D02030102078E8
:1023A000102078102030102F03D02F87D02787904F
:1023B0002387103186303800703FFFF01FFFF81F71
:1023C000FFF80410400208200208200410400820F2
:1023D00080104100104100082080041040000000DF
:1023E0001FFFF81FFFF81E008000781000800040DB
:1023F00010A39960701CD4A580081094BD0F08101C
:1024000094A100481E939D003000000000000000D1
:10241000000000000380000000024000000002569F
:1024200060000003989000000210900000021090DD
:10243000000002106000202020202020200000004A
:102440000000000000000000000053657474696E15
:1024500067732053746F7265640053657474696E9A
:1024600067732053746F7265642028004572723A56
:10247000207574663820666F6E74206E6F742069E4
:102480006E697469616C697A65642E00000C0F00D6
:10249000FE07022603BC017FFE08FE08FE050808B1
:1024A00006000040F0C888889878100508080600E3
:1024B00000C0F88888888888F8050505060001208E
:1024C00030F830200508080600002070F820202091
:1024D00020E00509090600FF2070A8A8B8888870C8
:1024E00020050606060001E08CEA8C8A0A05090927
:1024F0000600FFF8A88888888888A8F8050A0A06D0
:1025000000FE205050505088A8A88870030303068E
:10251000000340A040FFFFFFFFFFFFFFFFFFFFFFA3
:10252000FFFFFFFFFFFFFFFFFFFFFF0000000605AB
:10253000FF0107070602008080808080008003037F
:1025400003060105A0A0A005060606000050F850ED
:1025500050F8500509090600FF2070A8A07028A8AF
:102560007020050707060000C8C81020409898058D
:10257000070706000040A0A040A8906801030306DA
:1025800002058080800309090601FF204040808009
:10259000804040200309090601FF804040202020A0
:1025A00040408005070706000020A8702070A82082
:1025B0000505050600012020F8202002030306017E
:1025C000FFC04080050101060003F8020202060177
:1025D00000C0C0050707060000081010204040801A
:1025E000050707060000708898A8C88870030707C9
:1025F00006010040C040404040E0050707060000DB
:10260000708808102040F8050707060000F8081039
:102610003008887005070706000010305090F81049
:1026200010050707060000F880F008088870050705
:1026300007060000304080F0888870050707060014
:1026400000F80810102020200507070600007088F9
:1026500088708888700507070600007088887808E9
:102660001060020505060100C0C000C0C0020606D9
:102670000601FFC0C000C04080030505060101201F
:1026800040804020050303060002F800F80305051A
:102690000601018040204080050707060000708881
:1026A00010202000200507070600007088B8A8B891
:1026B0008070050707060000708888F888888805FC
:1026C0000707060000F04848704848F0050707066D
:1026D000000070888080808870050707060000F081
:1026E0004848484848F0050707060000F88080F091
:1026F0008080F8050707060000F88080F080808061
:102700000507070600007088808098887005070715
:10271000060000888888F888888803070706010073
:10272000E04040404040E005070706000038101038
:10273000101090600507070600008890A0C0A090C8
:1027400088050707060000808080808080F80507E4
:102750000706000088D8A88888888805070706002B
:10276000008888C8A8988888050707060000708830
:102770008888888870050707060000F08888F08040
:10278000808005070706000070888888A890680583
:102790000707060000F08888F0A090880507070664
:1027A000000070888070088870050707060000F830
:1027B0002020202020200507070600008888888820
:1027C0008888700507070600008888888850502090
:1027D00005070706000088888888A8A8500507070D
:1027E00006000088885020508888050707060000EA
:1027F00088885020202020050707060000F80810D0
:10280000204080F80309090601FFE0808080808075
:102810008080E00507070600008040402010100877
:102820000309090601FFE020202020202020E005E8
:1028300003030600052050880501010600FEF80389
:102840000303060105804020050505060000700809
:102850007888780507070600008080F0888888F06F
:1028600005050506000070808088700507070600D2
:1028700000080878888888780505050600007088B3
:10288000F08070050707060000304840E0404040F7
:102890000507070600FE7088888878087005070716
:1028A0000600008080F088888888030707060100FA
:1028B0004000C0404040E00409090601FE1000301D
:1028C00010101010906005070706000080808890A7
:1028D000E09088030707060100C04040404040E008
:1028E000050505060000D0A8A8A8A805050506004E
:1028F00000B0C888888805050506000070888888AB
:10290000700507070600FEF0888888F080800507BC
:10291000070600FE788888887808080505050600FF
:1029200000B0C8808080050505060000788070082A
:10293000F00507070600002020F8202020180505D4
:102940000506000088888898680505050600008847
:10295000888850200505050600008888A8A850052D
:10296000050506000088502050880507070600FE70
:1029700088888850204080050505060000F8102052
:1029800040F80309090601FF2040404080404040D4
:10299000200109090602FF8080808080808080807D
:1029A0000309090601FF8040404020404040800567
:1029B000030306000248A890FF486F74656E642008
:1029C000746F6F20636F6C640A00204D3932205899
:1029D000004D3630303A20546F6F20436F6C6400E6
:1029E000507265737320627574746F6E20746F20FB
:1029F00068656174206E6F7A7A6C650A00496E733F
:102A00006572742066696C616D656E7420616E64B8
:102A100020707265737320627574746F6E0A002083
:102A2000496E76616C69642065787472756465724C
:102A300020003F00496E697469616C697A652045C0
:102A40004550524F4D00454550524F4D20566572EE
:102A500073696F6E204572726F7200454550524F18
:102A60004D20496E646578204572726F720045454D
:102A700050524F4D20435243204572726F720049AD
:102A8000676E6F7265002062797465733B206372B4
:102A90006320004E6F20454550524F4D2E0A004591
:102AA0004550524F4D206461746173697A652065A9
:102AB00072726F722E0A002073746F7265642073D5
:102AC000657474696E677320726574726965766582
:102AD00064202800202863616C63756C61746564F0
:102AE00029210A0020213D2000454550524F4D200C
:102AF000435243206D69736D61746368202D2028F3
:102B000073746F7265642920002053697A653A20D6
:102B100000496E6465783A2000204D61726C696EE0
:102B20003D563831290A00454550524F4D207665B3
:102B30007273696F6E206D69736D617463682028AC
:102B4000454550524F4D3D00456E636C6F73757235
:102B5000650020436F756E7420583A004D31303651
:102B6000205000453100626564002C207379737435
:102B7000656D2073746F70706564212048656174A1
:102B800065725F49443A200048656174696E672048
:102B90004661696C65640048656174696E672066AA
:102BA00061696C65640020520048617264636F64FF
:102BB00065642044656661756C742053657474693E
:102BC0006E6773204C6F616465640A003B200020CF
:102BD000204D363033200020550046696C616D650C
:102BE0006E74206C6F61642F756E6C6F6164206C05
:102BF000656E677468733A0020204D333031205081
:102C0000005049442073657474696E67733A0020FC
:102C1000460020480020204D3134352053004D61BE
:102C200074657269616C206865617475702070618B
:102C300072616D65746572733A00202047323920E5
:102C40005334205A00202047323920533320490082
:102C500020204D3432302053004D6573682042658A
:102C600064204C6576656C696E673A0020204D32B1
:102C70003036205800486F6D65206F666673657446
:102C80003A00204A0020204D323035204200416475
:102C900076616E6365643A20423C6D696E5F736570
:102CA000676D656E745F74696D655F75733E205303
:102CB0003C6D696E5F66656564726174653E205443
:102CC0003C6D696E5F74726176656C5F66656564A4
:102CD000726174653E204A3C6A756E635F64657616
:102CE0003E0020540020204D3230342050004163FB
:102CF00063656C65726174696F6E2028756E6974A6
:102D0000732F7332293A20503C7072696E745F6180
:102D10006363656C3E20523C726574726163745FDC
:102D2000616363656C3E20543C74726176656C5FD0
:102D3000616363656C3E0020204D323031205800C5
:102D40004D6178696D756D20416363656C65726175
:102D500074696F6E2028756E6974732F7332293A07
:102D60000020204D3230332058004D6178696D7558
:102D70006D206665656472617465732028756E697F
:102D800074732F73293A00537465707320706572E1
:102D900020756E69743A0020440020204D32303096
:102DA0002053002044697361626C65640A004669BF
:102DB0006C616D656E742073657474696E67733AC7
:102DC0000020204D3134392043203B20556E69745A
:102DD0007320696E2043656C736975730A0020283F
:102DE0006D6D29002020473231202020203B2055C6
:102DF0006E69747320696E206D6D00486F6D696E29
:102E000067204661696C6564000000FA430000FABF
:102E1000430000A0400000C8413D8AA042856BA04D
:102E200042CD5C47443D8AC042F4010000F40100F9
:102E30000064000000881300000029E511241FBE73
:102E4000CFEFD0E4DEBFCDBF12E0A0E0B1E0E4E21E
:102E5000FAEE01E00BBF02C007900D92A031B1075E
:102E6000D9F72EE0A0E1B2E001C01D92A43EB20766
:102E7000E1F717E1CEE1D7E104C02197FE010E94FE
:102E8000A6F1CD31D107C9F70E94BBDD0C9410F536
:102E90000C9400002F923F924F925F926F927F921C
:102EA0008F929F92AF92BF92CF92DF92EF92FF925A
:102EB0000F931F93CF93DF93CDB7DEB7C154D109E2
:102EC0000FB6F894DEBF0FBECDBF22968FAF22970C
:102ED00020911A022FAF11E010931A0280912C0B4F
:102EE0008D3409F415C2843511F40C940627873407
:102EF00011F00C94212720912A0B30912B0B2B31B0
:102F0000310509F48EC09CF42430310534F42230AC
:102F10003105D4F537FF2CC0F7C12430310509F451
:102F200041C02531310511F40C942327EDC12A321B
:102F3000310509F423C164F42C31310509F48BC047
:102F40002D31310509F0E0C10E943D9F0C942327EB
:102F50002B35310509F48FC02C35310509F490C0AB
:102F60002A35310509F0D0C1109219020C9423279B
:102F700080910608813011F00C9423270E94BAB783
:102F80000E9427720C94232780910608813011F04B
:102F90000C9423272230310509F080E00E948596A9
:102FA0000C94232780E50E947B9C882329F00E94B3
:102FB000FFBC6B017C0103C0C12CD12C760183E5E1
:102FC0000E947B9C882361F00E94FB9B20E030E004
:102FD0004AE754E40E9427EB0E942BF36B017C012B
:102FE0000E94FC4C8091110C811105C060E08BEDBA
:102FF00092E00E94DCC00E945F5EC60ED71EE81EF3
:10300000F91E0E945F5EDC01CB018C199D09AE099F
:10301000BF09B7FD02C00C94232780E00E945086B0
:10302000F0CF0E94E16081110C9423278CE0E5E74A
:10303000F1E0DE01119601900D928A95E1F760E0D2
:1030400070E080E50E9494B8BE016F5F7F4F0E94E0
:1030500077B20C94232780910C0A8770873011F087
:103060000C94542760E08FE40E940FBD81110C94F2
:1030700023270C9454278FE0809319020C94232764
:1030800021E8222E21E0322E32E1E32E3AE0F32E27
:10309000EFE5F1E0FF8FEE8F43E2C42E42E0D42E45
:1030A00000E010E0D1018D911D010E947B9C8823DE
:1030B00009F44BC00E94FB9B2B013C01133049F0EB
:1030C000F60120813181428153810E94B7F12B01A9
:1030D0003C01AE8DBF8D2D913D914D915C91C30111
:1030E000B2010E94B7F14B015C012DEB37E346E8DA
:1030F00055EB0E9418F487FD0AC02DEB37E346E834
:1031000055E3C501B4010E94C1EA1816F4F4133066
:1031100051F440926B0150926C0160926D0170927B
:103120006E0101E012C0A5019401F7016081718177
:10313000828193810E94B8F1D7016D937D938D9325
:103140009C931397812F0E9466711F5FB4E0EB0E72
:10315000F11CEE8DFF8D3496FF8FEE8FF4E0CF0ED5
:10316000D11C143009F09ECF002321F08BE691E0B2
:103170000E940D4D0E942A760C9423278091060808
:10318000813011F00C94232789E40E947B9CF82E57
:10319000882321F00E94F79B182F01C010E08AE4D9
:1031A0000E947B9C082F882319F00E94F79B01C086
:1031B00080E0FF2011F0143020F4002341F084302F
:1031C00030F084EE92E00E94639E0C94232790E1FD
:1031D000EFE5F1E0AEE1BAE001900D929A95E1F7EA
:1031E000FF2091F024E01202F0011124EE58F24F7A
:1031F000408151816281738140931E0A50931F0A5E
:103200006093200A7093210A002391F034E0830236
:10321000F0011124EE59F24F80819181A281B38196
:103220008093220A9093230AA093240AB093250A3C
:1032300040E050E0BA0186E40E94AD906B017C0151
:1032400020E030E0A9010E9418F418165CF420E098
:1032500030E040E752E4C701B6010E94B2F26B01D0
:103260007C0103C0C12CD12C760180904A01909042
:103270004B01A0904C01B0904D0120E030E0A9013D
:10328000C701B6010E94C1EA882341F0C0924A01F9
:10329000D0924B01E0924C01F0924D010091480117
:1032A0001091490184E690E0909349018093480190
:1032B000C0900501D0900601E0900701F090080150
:1032C00080E090E0A0E8BFE38093050190930601C1
:1032D000A0930701B09308010E94277280924A01CF
:1032E00090924B01A0924C01B0924D011093490174
:1032F00000934801C0920501D0920601E0920701B7
:10330000F09208010C9423270E94C7600C94232795
:1033100080912A0B90912B0B8937910509F4E2C516
:103320000CF0FFC08836910509F4D3C20CF044C0FC
:103330008C34910509F4C9C2FCF48231910509F479
:1033400097C46CF497FF02C00C9403278230910558
:103350000CF49EC1419709F4D3C10C9403278A321F
:10336000910509F495C28B34910509F4AAC24F97CF
:1033700011F00C940327E1C18335910509F470C461
:103380007CF48135910509F44EC40CF061C48D3490
:10339000910511F00C9403270E947AAE0C94232718
:1033A0008535910509F493C40CF462C48C359105FC
:1033B00009F4B2C40C9403278037910509F49EC325
:1033C0009CF48C36910509F493C33CF48A3691053C
:1033D00009F408C30CF4F6C225C38E36910509F42E
:1033E0002AC30CF49AC23AC38537910509F42AC559
:1033F0000CF089C08237910509F41CC50CF485C313
:103400008337910511F00C94032784EE94E00E9419
:10341000639E60E084ED94E00E94A99B60E08FEBE6
:1034200094E00E94A99B61E08FE39AE20E94A99B2D
:1034300061E084EB94E00E94A99B61E084EA94E05F
:103440000E94A99B60E08BE994E00E94A99B61E047
:1034500081E994E00E94A99B60E087E894E00E94E3
:10346000A99B60E08FE794E00E94A99B61E081E75F
:1034700094E00E94A99B60E083E694E00E94A99BEF
:1034800060E084E594E00E94A99B60E086E494E01B
:103490000E94A99B60E080E394E00E94A99B60E009
:1034A0008FE194E00E94A99B60E080E194E00E949B
:1034B000A99B60E089E094E00E94A99B60E084EF12
:1034C00093E00E94A99B60E086EE93E00E94A99B96
:1034D00061E083ED93E00E94A99B60E086EC93E0BD
:1034E0000E94A99B61E081EC93E00E94A99B61E0AE
:1034F00084EB93E00E94A99B60E080EA93E00E9445
:10350000A99B0C9423278737910509F4E0C40CF09C
:10351000E1C40091280B1091290B94E0F12C40E0BC
:10352000BAC48C3241E0940711F40C94D3220CF00D
:1035300046C08C3C910509F4D9C50CF58E3B91052C
:1035400009F434C374F48139910509F4D2C48B3978
:10355000910509F440C38C38910511F00C940327B0
:10356000FEC2893C910509F47FC58B3C910509F4A5
:103570009EC5883C910511F00C9403272EC58C3D07
:10358000910509F4DEC664F48E3C910509F4F5C595
:103590000CF4E0C5833D910509F40DC60C94032796
:1035A000823E910509F44AC78232A1E09A0709F4E4
:1035B00091C78D3D910511F00C940327E9C68C3A13
:1035C000B1E09B0711F40C94FC2574F58039F1E00F
:1035D0009F0711F40C94AB2394F48E3231E09307DF
:1035E00011F40C94672314F40C94E8228F32914068
:1035F00011F00C9403270E94C4900C942327843A62
:10360000A1E09A0711F40C94AE23853AB1E09B0730
:1036100011F40C942C258A39914011F00C94032755
:103620000E94FD830C942327873FF1E09F0711F44C
:103630000C94602694F4853F31E0930711F40C94C8
:103640005A2614F00C945D26843F914011F00C949E
:1036500003270E94CEA80C9423278835A2E09A075E
:1036600011F40C9479263CF4883F914011F40C94A9
:1036700068260C9403278B35F2E09F0711F40C9415
:103680007C26873E934011F40C94F5260C94032776
:1036900080E50E947B9C882329F00E94FFBC6B017F
:1036A0007C0103C0C12CD12C760183E50E947B9C58
:1036B000882361F00E94FB9B20E030E04AE754E45D
:1036C0000E9427EB0E942BF36B017C010E94FC4CB3
:1036D0008091280B9091290B009721F061E00E94C6
:1036E00030C105C060E08DEF92E00E94DCC040E098
:1036F000C701B6010E94478A0E94013C0C9423270F
:103700008091240B84FF02C00C94F5288091260B35
:1037100087FF02C00C94F5288091270B837011F06D
:103720000C94F52860E080E193E00E94DCC05E9894
:103730005E9815985E980C9423270E94F2AD7B0149
:103740008C0120E831E541E050E00E9417F1C90109
:103750006DE671E00E945FF14B015C01C801B701A9
:1037600020E13EE040E050E00E9417F1CA01B901BB
:1037700028E130E040E050E00E9417F1762E672EFD
:10378000C62ED72E9CE3292E312C412C512CC8015A
:10379000B701A20191010E9417F1F62EE72ECA018E
:1037A000B901A20191010E9417F1CB018E010F5FB7
:1037B0001F4F8114910499F0EF92FF927F936F93C2
:1037C0006F927F92BF92AF929F928F9289E193E026
:1037D0009F938F931F930F930E9459EA13C0A114D4
:1037E000B104B1F0EF92FF927F936F936F927F924B
:1037F000BF92AF928DE193E09F938F931F930F93AE
:103800000E9459EA0FB6F894DEBF0FBECDBF30C09C
:10381000CD2879F0EF92FF927F936F936F927F9212
:1038200081E293E09F938F931F930F930E9459EA35
:10383000E9CF892B69F0EF92FF927F936F9385E236
:1038400093E09F938F931F930F930E9459EADACFCF
:10385000EF92FF9289E293E09F938F931F930F93D0
:103860000E9459EA0F900F900F900F900F900F90B9
:1038700060E0C8010E9430C10E9484A1B8018DE2BD
:1038800093E00E946DA18AE00E9424850C94232776
:103890006FEF7FEF80E50E94ACB88C0197FF02C00C
:1038A0000C942327E82E60E089E40E940FBD81116B
:1038B0000C940729802F0E94BDE48111DCC50C9473
:1038C00007290E9441AE0C9423270E9465AE0C94F8
:1038D000232780910F0783FF02C00C9423270E94A7
:1038E0006BB887FF02C00C94232783E50E947B9C62
:1038F000882379F00E94FB9B0E9424F3CB010E9455
:103900009D3E0E9469DD811104C00E947AAE0E9432
:10391000013C0E947CDD0C94232780910F0783FFDC
:1039200002C00C9423270E946BB8F82E87FF02C0B8
:103930000C94232783E50E947B9C082F811106C0ED
:1039400082E50E947B9C182F882381F10E94FB9BBB
:103950000E9424F3CB010E949D3E0E9469DD8823D2
:1039600011F40C943E290E9441AE6091CA0C7091F2
:10397000CB0C072E000C880B990B0E94C8EA4B0158
:103980005C014090C60C5090C70C6090C80C7090C1
:10399000C90CA30192010E9418F4181614F40C9497
:1039A0005E29002311F40C94442911E00E947CDD6F
:1039B000112311F40C942327602F8F2D0E941F3F99
:1039C0000C9423270E946BB8182F87FF02C00C9419
:1039D000372783E790E20E94639E812F0E94AD3ECD
:1039E0000C94342780E50E94376181110C942327C1
:1039F00081E40E94329C882321F060914B0270E0A8
:103A000002C06FEF70E083E50E9494B88F3F91058C
:103A100019F010F08FEF90E0BC0180E00E94F0D828
:103A20000C94232780E50E94376160E070E00E94DB
:103A3000F0D80C9423278EE40E947B9C882311F4F9
:103A40000C9423270E94C39B6093B10B7093B20B1D
:103A50008093B30B9093B40B0C94232783E50E94BF
:103A6000329C882329F083E50E94376180930F07F9
:103A70000E9484A185E593E00E94639E80910F07D8
:103A8000882369F184E6E82E87E0F82E00E010E054
:103A900020E080910F0790E0A0E0B0E0002E04C08D
:103AA000B695A795979587950A94D2F780FF0EC093
:103AB000DD24D394D20E222319F08CE20E942485B7
:103AC000F701859194910E94639E2D2D0F5F1F4FEA
:103AD00032E0E30EF11C05301105D9F604C081E592
:103AE00093E00E94639E8AE00E9424850C94232721
:103AF00010920C0C10920E010C94232741E060E010
:103B000070E08CE593E00E94ACA183E50E947B9C71
:103B1000882381F00E94D39B282F30E02D3331057C
:103B200024F4809300010C9423278CE380930001FC
:103B30000C9423270E9484A1C0900001D12CE12C79
:103B4000F12C8AE693E00E94639E4AE0C701B60129
:103B50000E942B858AE00E9424850C942327809163
:103B60000F0783FF02C00C94232783E50E947B9CF0
:103B7000882311F40C9423270E94FB9B0E9424F3BA
:103B80006337710514F063E770E070938407609306
:103B900083070E94443C0E9469DD81110C94232715
:103BA0000E947AAE0E94013C0C94232780910F075B
:103BB00083FF02C00C94232783E50E947B9C8DA782
:103BC00081110C94612982E50E947B9C81110C94E7
:103BD00061290C94232783E50E947B9C882311F4A0
:103BE0000C9423270E94D39B182F90E0CD970CF0C4
:103BF0001CE3109314020E945F5E6B017C01212F75
:103C000030E0A8EEB3E00E9444F1C60ED71EE81ED5
:103C1000F91EC0921002D0921102E0921202F092AC
:103C200013020C9423270E9442420E947AAE0E9403
:103C30006C4E0E94A7B868EE73E080E090E00E94AE
:103C40003F9E60E08FE893E00E94DCC00C94232745
:103C5000809119028F7D8061809319020C94232733
:103C6000809119028F7E8062809319020C94232721
:103C700083E50E947B9C8823A1F00E94FB9B20E0AF
:103C800030E04AE754E40E9427EB0E942BF3609354
:103C900001017093020180930301909304010C943D
:103CA00023278091240B84FF02C00C94E72A809183
:103CB000260B87FF02C00C94E72A8091270B8370A4
:103CC00011F00C94E72A0E946C4E0C94232783E594
:103CD0000E94329C882311F40C9423270E945F5E7B
:103CE000609386077093870780938807909389076E
:103CF0000E94FB9B20E030E04AE754E40E9427EB5F
:103D00000E942BF3609315027093160280931702A2
:103D1000909318020C9423270E946BB887FF02C06F
:103D20000C9423279091240B94FD04C09091260BB2
:103D300097FF0AC0A1E8CA2EA1E0DA2EB0E1EB2E6F
:103D4000B7E0FB2E10E00AC09091270B937091F71B
:103D5000682F81E00E94C4BC0C942327D6018D916A
:103D60006D010E947B9C882309F459C0133009F02F
:103D70004FC00E94FB9B4B015C0120E030E040EA19
:103D800051E40E94C1EA87FF3AC0A5019401609105
:103D900030077091310780913207909133070E946C
:103DA000B2F22B013C019B01AC0160914007709184
:103DB000410780914207909143070E9427EB60934F
:103DC00040077093410780934207909343076091A7
:103DD0003F027091400280914102909142020E9404
:103DE000C6EAA30192010E9427EB0E942BF3609385
:103DF0003F0270934002809341029093420280926E
:103E0000300790923107A0923207B092330707C073
:103E10000E94FB9BF701648B758B868B978B1F5FD2
:103E2000F4E0EF0EF11C143009F098CF0E94D84C4A
:103E30000C9423270E949C3B82EF9CE00E940CD9AB
:103E40000C9423278091280B9091290B009749F01F
:103E5000DC012C91222329F060E00E9430C10C94F7
:103E600023270E94013C0C942327F8018081282FEE
:103E70002B7F213499F08035E9F4818180538A3099
:103E8000C8F498012E5F3F4F89012F5F3F4FF80123
:103E900080818032C9F3915041F70CC021812133D8
:103EA00049F4813421F0853461F741E0EACFFF2401
:103EB000F394E7CF41110E9484A1FF2021F080EC10
:103EC00095E00E94639EC8010E942F86BCC70E9495
:103ED000AF76B9C781E080930308809302080E94FF
:103EE000CA76B1C710920308109202080E94CA76DF
:103EF000AAC760E070E083E50E94ACB8823038F079
:103F00000E9480A184EC95E00E94639E9CC78C0176
:103F1000112788E40E947B9C8823E1F00E94F79B94
:103F20008A3A910544F00E94F79B8530914034F421
:103F30000E94F79B05C08AEA90E002C084E091E00D
:103F400026E0209FF001219FF00D1124EE52F14F49
:103F50009183808382E40E947B9C8823D9F00E9415
:103F6000F79B059744F00E94F79B8437910534F442
:103F70000E94F79B05C085E090E002C083E790E0D7
:103F800026E0209FF001219FF00D1124EE52F14F09
:103F90009383828386E40E947B9C882309F453C721
:103FA0000E94F79B97FD09C00E94F79B8F3F9105E8
:103FB00009F034F40E94F79B05C080E090E002C055
:103FC0008FEF90E026E0209FF001219FF00D11245B
:103FD000EE52F14F9583848336C70E946BB8182F39
:103FE00087FD31C70091970784E40E947B9C88235A
:103FF00011F40C940C2B0E94FB9B6B017C0120E0C4
:1040000030E0A9010E94C1EA882341F124E01202B4
:10401000F0011124E456F84FC082D182E282F3828B
:1040200020E030E0A90160919C0770919D0780918C
:104030009E0790919F070E94C1EA81110CC080E009
:1040400090E0A0EEBFE380939C0790939D07A09320
:104050009E07B0939F0701E00C940C2B80E08093A7
:1040600097070E94B244EFC60E946BB887FDEBC66B
:10407000F1E8EF2EF1E0FF2E00E117E0D7018D917E
:104080007D010E94329C882359F00E94FB9B0E9474
:104090002BF3F80160837183828393830E94914C98
:1040A0000C5F1F4FF7E000321F0741F7CCC60E949C
:1040B0006BB887FDC8C6E1E8EE2EE1E0FE2E00E118
:1040C00017E0D7018D917D010E94329C882339F041
:1040D0000E94FB9BF80164A375A386A397A30C5FC2
:1040E0001F4FF7E000321F0761F7ADC68091250B27
:1040F00087FF02C00C94122B8091260B8E7011F05A
:104100000C94122B4091440750914507609146074B
:104110007091470786EE95E00E941F9F40914807E7
:104120005091490760914A0770914B0786EA9BE2DC
:104130000E941F9F40914C0750914D0760914E0780
:1041400070914F0782EE9CE20E941F9F8AE00E94BE
:10415000248579C68091240B81FF02C00C94582BD2
:104160008091250B81FF02C00C94582B8091260B67
:104170008C7011F00C94582B66C677E0E72E78E02F
:10418000F72E10E088E5810F0E94329C882359F0B9
:104190000E94FB9BD7016D937D938D939C93139706
:1041A000812F0E9466711F5FB4E0EB0EF11C13308B
:1041B00049F70C94BA184090230250902402609062
:1041C00025027090260220912F01309130014091FC
:1041D000310150913201C301B2010E94B8F16E8FDA
:1041E0007F8F88A399A38090270290902802A090A7
:1041F0002902B0902A02209133013091340140917C
:10420000350150913601C501B4010E94B8F16AA38D
:104210007BA38CA39DA3C0902B02D0902C02E09096
:104220002D02F0902E0220913701309138014091FB
:10423000390150913A01C701B6010E94B8F16EA34D
:104240007FA388A799A720913B0130913C01409121
:104250003D0150913E01C301B2010E94B8F12B0112
:104260003C0120913F01309140014091410150912A
:104270004201C501B4010E94B8F14B015C012091DB
:104280004301309144014091450150914601C701DD
:10429000B6010E94B8F16B017C010E9484A185E205
:1042A00096E00E94639E83E50E94329C882321F061
:1042B0000E94E79B8093470180914701882319F072
:1042C0008FE29CE102C080EE94E00E94639E8DE14B
:1042D00096E00E94639E4E8D5F8D68A179A18DE36B
:1042E0009DE20E941F9F4AA15BA16CA17DA189EB69
:1042F00098E10E941F9F4EA15FA168A579A582E465
:104300009CE20E941F9F8CE394E20E94639E85E1E1
:1043100096E00E94639EB301A2018DE39DE20E949C
:104320001F9FB501A40189EB98E10E941F9FB7016F
:10433000A60182E49CE20E941F9F8AE00E942485DD
:1043400082C583E50E947B9C882331F00E94F79B05
:1043500090934901809348018091240B9091250B03
:10436000A091260BB091270B892B8A2B8B2B09F060
:104370006AC5609148017091490185E396E00E9409
:10438000309F85E20E9424858AE00E9424855BC5D7
:104390000E946BB8F82E87FD56C583E50E947B9C72
:1043A0000F2D0F2C000C110B882369F10E94F79B35
:1043B000F801EE0FFF1FE15FFE4F91838083000F36
:1043C000111F000F111FF801EB5FFE4F7F01BC01B1
:1043D000990F880B990B0E94C8EA2AE037ED43E257
:1043E0005CE30E9427EBF801E856F84F2081318109
:1043F000428153810E9427EBD7016D937D938D936A
:104400009C93139720C50E9484A185E40E94248573
:1044100080E38F0D0E942485F801EE0FFF1FE15FFE
:10442000FE4F6081718189E396E00E94309F85E2B2
:104430000E9424858AE00E94248505C580E50E94AB
:10444000329C882309F4FFC460E070E080E50E949C
:10445000ACB8F82E6FEF7FEF83E50E94ACB88C010B
:104460000196039708F0EFC4F7FCEDC48F2D0E946E
:10447000BDE4882339F00E9480A181E496E00E9487
:10448000639EE1C40E94FC4C60E08F2D0E94775D2A
:104490000F3FBFEF1B0731F00130110571F000E055
:1044A00010E00DC08F2D0E94956331E020E0892B34
:1044B00009F030E0032F122F02C001E010E08F2D31
:1044C0000E9495638017910709F4BDC480E00E94A3
:1044D0005086F5CF8AE50E947B9C811106C083E55A
:1044E0000E947B9C882309F440C00E94FB9B20E033
:1044F00030E040E050EC0E94C1EA87FF02C00C941B
:10450000B72B0E94FB9B20E030E040E050E40E948B
:1045100018F4181614F40C94B12B0E94FB9B2091F4
:1045200005082695269520FF20C020912C07309164
:104530002D0740912E0750912F070E9427EB0E94D4
:1045400024F32091070B3091080B260F371F30936F
:10455000080B2093070B2091790730917A07620F9F
:10456000731F70937A07609379078091260B87FFFA
:1045700002C00C94BD2B8091270B837011F00C941A
:10458000BD2B0E9484A140913A0A50913B0A609150
:104590003C0A70913D0A80E596E00E941F9F8AE0E8
:1045A0000E94248550C464E071E083E50E9494B8C1
:1045B0008C0168EE73E080E50E9494B88938E3E1ED
:1045C0009E0710F088E893E1B8010E94A5C03BC4A3
:1045D00085E40E943761811173C080E50E94329C9E
:1045E000882351F00E94FB9B6093CD0C7093CE0CFE
:1045F0008093CF0C9093D00C89E40E94329C882346
:1046000081F00E94FB9B2CEA35EC47E25EE30E94BE
:1046100027EB6093D10C7093D20C8093D30C9093C2
:10462000D40C84E40E94329C882381F00E94FB9B7E
:104630002CEA35EC47E25EE30E94B2F26093D50CBF
:104640007093D60C8093D70C9093D80C0E9484A1C1
:104650004091CD0C5091CE0C6091CF0C7091D00C4C
:1046600087E796E00E941F9F2CEA35EC47E25EE365
:104670006091D10C7091D20C8091D30C9091D40C9C
:104680000E94B2F2AB01BC0183E796E00E941F9F3B
:104690002CEA35EC47E25EE36091D50C7091D60CC4
:1046A0008091D70C9091D80C0E9427EBAB01BC01F4
:1046B0008FE696E00E941F9F8AE00E942485C3C374
:1046C0000E9480A18DE596E00E94639EBCC383E5B5
:1046D0000E94329C182F882371F00E94FB9B0E943D
:1046E00024F370930A016093090121E0672B09F01C
:1046F00020E020935C0280E50E94329C882359F0E0
:104700002091090130910A01232B11F00E94E79BAF
:1047100080935C0298C3111196C30E9484A184E91E
:1047200096E00E94639E80915C02882319F082E0EB
:104730009BE102C08BE796E00E94639E60910901B5
:1047400070910A0183E896E00E94309F8FE796E01F
:104750000E94639E78C30E94FC4C75C383E50E944F
:10476000329C182F882321F00E94E79B982E02C0CC
:104770009090A00720915F0130916001409161010C
:10478000509162012BAB3CAB4DAB5EAB40906301F3
:10479000509064016090650170906601809167019E
:1047A00090916801A0916901B0916A018FAB98AFB7
:1047B000A9AFBAAF112329F0911003C080E00E9485
:1047C0000E9D86E50E94329C8AAB0E94129E882331
:1047D00009F4A6C083E40E94329C882309F4ACC08B
:1047E0000E94FB9B6BAF7CAF8DAF9EAFAEE3BAE098
:1047F000BFA3AEA3BBA3AAA3F4E0FE8F312C212C50
:1048000028EC2DA732EC3EA71AA6812C48EC4BA72A
:1048100052E45CA7E12CF12CEAA1FBA1EE0DFF1DF7
:1048200010810181B280A3802AA5382D4BA55CA5FB
:10483000612F702F8B2D9A2D0E94C1EA87FF04C033
:104840001AA7802EBBA6ACA6232D322D4DA55EA5A2
:10485000612F702F8B2D9A2D0E9418F418161CF4BE
:104860001801BDA6AEA684E0E80EF11C90E1E916A1
:10487000F10491F6AE8DA150AE8FEAA1FBA1709626
:10488000FBA3EAA3A111C6CF232D322D4DA55EA512
:104890006AA5782D8BA59CA50E94B8F120E030E098
:1048A00040E05FE30E9427EB2BAD3CAD4DAD5EAD2C
:1048B0000E94B8F16B017C012DEB37E346E855EB24
:1048C0000E9418F487FD0AC02DEB37E346E855E354
:1048D000C701B6010E94C1EA181674F580E00E9473
:1048E0000E9D14E0AEA0BFA004E0A7019601D50183
:1048F0006D917D918D919C910E94B7F1F50161932D
:104900007193819391935F01015079F711502EA11A
:104910003FA1205F3F4F3FA32EA31111E3CF0CC057
:10492000911003C03AA93323A1F00E9484A18EEE16
:1049300096E00E94639E1AC04AA9442351F00E9447
:10494000129E882331F088ED96E00E94639E0E94BB
:10495000789E8AE50E94329C882329F00E94FB9B66
:1049600040E00E94299D892D0E940E9D992051F0C2
:104970008091A007811106C00E9480A189EB96E07A
:104980000E94639E0E9484A18BEF92E20E94639E2C
:104990008091A007882319F08FE29CE102C080EE8D
:1049A00094E00E94639E8AE00E9424850E9484A174
:1049B0008CEA96E00E94639EC090360AD090370A37
:1049C000E090380AF090390A20E030E0A901C701F0
:1049D000B6010E9418F4181644F442E0C701B6016B
:1049E0000E94B4850E94298604C087EA96E00E944E
:1049F000639E20915F01309160014091610150916F
:104A000062016BA97CA98DA99EA90E94C1EA8111AE
:104A10000C94BA18209163013091640140916501B2
:104A200050916601C301B2010E94C1EA81110C9448
:104A3000BA18209167013091680140916901509145
:104A40006A016FA978AD89AD9AAD0E94C1EA882349
:104A500009F4F9C10C94BA1888E50E94329CD82E4A
:104A600089E40E94329CC82E882321F00E94F79B83
:104A7000A82E28C0DD2011F10E94FB9B209123026B
:104A80003091240240912502509126020E94B7F1F4
:104A900020E030E040E251E40E94B7F125E535E541
:104AA00045E052E40E94B8F120E932EC45E75CE3CE
:104AB0000E9427EB0E9424F3643018F0AA24AA94E1
:104AC00001C0A62E89E50E94329CF82E8AE40E943D
:104AD000329C182F882321F00E94F79BB82E28C003
:104AE000FF2011F10E94FB9B2091270230912802A8
:104AF0004091290250912A020E94B7F120E030E053
:104B000040E251E40E94B7F125E535E545E052E485
:104B10000E94B8F120E932EC45E75CE30E9427EB04
:104B20000E9424F3643018F0BB24BA9401C0B62E5E
:104B30008AE50E94329CE82E811105C081E50E9421
:104B4000329C082F01C000E0C11001C010E0812F8D
:104B500090E0D11001C0F12C8F0D911D019721F42F
:104B6000E11009C0011107C00E9480A18DEF96E0FD
:104B70000E94639E68C1A7FC02C0B7FE07C00E94E6
:104B800080A184EE92E00E94639E5DC10E94FB9B27
:104B9000EA2CAA0CFF08AB2DBB0CBB0B002391F039
:104BA000F701EE0FFF1FEE0FFF1FEA0FFB1FEE0FC7
:104BB000FF1FEE0FFF1FE25CF54F20813181428124
:104BC000538103C020E030E0A901F701EE0FFF1F81
:104BD000EE0FFF1FEA0FFB1FEE0FFF1FEE0FFF1F71
:104BE0008F01025C154F0E94B8F1D8016D937D933F
:104BF0008D939C93139727C10E94E160811123C17B
:104C000002E61AE1EFE5F1E0FF8FEE8F9E012F5FE4
:104C10003F4F190145E9C42E4AE1D42E7901F8012C
:104C20006591759185919491AE8DBF8D8D909D907C
:104C3000AD90BD90BF8FAE8FA50194010E94B7F1DA
:104C40002B013C01F701608371838283938320E011
:104C500030E040EA51EC0E9418F487FD0AC020E0E1
:104C600030E040EA51E4C301B2010E94C1EA1816E3
:104C70002CF4F601849118160CF486C5D7018D909A
:104C80009D90AD90BD907D0120E030E040EA51EC78
:104C9000C501B4010E9418F487FDB6C520E030E0DC
:104CA00040EA51E4C501B4010E94C1EA18160CF0B3
:104CB00076C5AAC50E94B6DAC6C00E949ED9C3C0F6
:104CC00061E083E50E940FBD81270E94C4DABBC06A
:104CD00081E08093C50E0E9432C41092C50E8823D5
:104CE00009F4B1C00E9484A189E597E00E94639E07
:104CF000AAC00E94BBB8A7C00E946BB8082F87FD4E
:104D0000A2C085E50E94329C8823B1F1E02E002EDE
:104D1000000CFF080E94FB9B4B015C0120E030E08F
:104D2000A9010E9418F487FF04C0B7FAB094B7F83D
:104D3000B094C70123E0880F991F2A95E1F79C01E1
:104D40002653314F7901D9018D929D92AD92BC923B
:104D5000139720E030E048E453E4C501B4010E9419
:104D600018F418164CF480E090E0A8E4B3E4F701DE
:104D700080839183A283B3838CE40E94329C882336
:104D800009F461C0002E000C110B0E94FB9B6B010B
:104D90007C0120E030E0A9010E9418F487FF04C0E4
:104DA000F7FAF094F7F8F09420E030E048E453E4A8
:104DB000C701B6010E9418F4980193E0220F331F37
:104DC0009A95E1F7F901E653F14F18162CF0C482D9
:104DD000D582E682F78237C080E090E0A8E4B3E4B1
:104DE00084839583A683B7832EC081E080930608D1
:104DF0001092660C60E083E50E940FBD811123C014
:104E00000E94B59420C00E94C7601DC000912A0B6B
:104E100010912B0B0023B9F00E9484A184E50E941D
:104E20002485B8017727072E000C880B990B0E9468
:104E3000988580E20E9424858DE596E00E94639E1D
:104E400002C00E94C7602296FFAD2297F1110FC0E9
:104E5000E091D509F0E0E25AF24F8081882339F0E1
:104E600083E790E20E94639E8AE00E9424852FAD32
:104E700020931A02CF5BDF4F0FB6F894DEBF0FBE50
:104E8000CDBFDF91CF911F910F91FF90EF90DF90F9
:104E9000CF90BF90AF909F908F907F906F905F90DA
:104EA0004F903F902F9008950E94FC4C3091A007A6
:104EB0003BA780E00E940E9D80914A0190914B019A
:104EC000A0914C01B0914D0180931D0290931E0260
:104ED000A0931F02B0932002809148019091490154
:104EE00090931C0280931B0284E690E0909349010A
:104EF0008093480181E0809303080E94CA768AE586
:104F00000E94329C082F88E50E94329C182F89E568
:104F10000E94329C181367C1011711F0312E04C092
:104F20003324339411E001E080E1EFE5F1E0AEE1FC
:104F3000BAE001900D928A95E1F782E50E947B9C90
:104F4000882369F00E94FB9B6B017C0120E030E02C
:104F5000A9010E94C1EA882309F43FC006C0C12C00
:104F6000D12C50EAE52E50E4F52E111103C0332068
:104F700009F40DC18091050882FD09C060916701A7
:104F8000709168018091690190916A0103C060E0AD
:104F900070E0CB01A70196010E94B8F16093260A48
:104FA0007093270A8093280A9093290A2091670119
:104FB000309168014091690150916A010E9418F492
:104FC00018165CF419821A821B821C82BE016F5F64
:104FD0007F4F86E29AE00E94E075112309F4D2C067
:104FE000332009F4CCC010925F011092600110923E
:104FF000610110926201109263011092640110929B
:105000006501109266010E942876E5E9FAE1349183
:105010003CA7E9E8FAE1C590D590E590F490EDE879
:10502000FAE185909590A590B490A7019601C501ED
:10503000B4010E94C1EA87FF05C0A7019601C5011E
:10504000B40104C0A5019401C701B6010E94B2F2E7
:105050002B013C01E2E7FAE185919591A591B4918C
:105060008E8F9F8FA8A3B9A3EEE6FAE12591359123
:10507000459154912AA33BA34CA35DA3BC01CD0150
:105080000E9418F418163CF42AA03BA13EA34CA1A0
:105090004AA71DA106C02E8C5F8D5EA388A18AA79A
:1050A00019A1A3019201C301B2010E9427EB20E0E4
:1050B00030E040E85FE30E94B8F10E9466F4222DE0
:1050C0003EA14AA5512F0E9427EB6A8F7B8F8C8FC0
:1050D0009D8FE6E9FAE1149120E030E040EC5FE3D7
:1050E000C501B4010E9427EB4B015C01612F110F38
:1050F000770B880B990B0E94C8EA9B01AC01C50194
:10510000B4010E9427EB69837A838B839C8320E020
:1051100030E040EC5FE3C701B6010E9427EB6B0172
:105120007C01ACA56A2FAA0F770B880B990B0E9404
:10513000C8EA9B01AC01C701B6010E9427EB6E8B48
:105140007F8B888F998FAE01465E5F4FBE016F5F88
:105150007F4FCE0146960E94BE750E9490D9109254
:105160005F01109260011092610110926201109231
:10517000630110926401109265011092660180E053
:105180000E94ECE3332019F081E00E94ECE300235D
:1051900019F082E00E94ECE30E94287680910208D8
:1051A000809303088BA50E940E9D80911D02909113
:1051B0001E02A0911F02B091200280934A01909399
:1051C0004B01A0934C01B0934D0180911B02909133
:1051D0001C02909349018093480183E080932E0143
:1051E0000E942A7630CE382E9FCE88E50E94329CCF
:1051F00081115E9889E50E94329C81115E988AE552
:105200000E94329C882309F41ECE15981CCE8DE492
:105210000E947B9C8823A9F00E94D39B813039F0A7
:1052200020F0823049F462E003C060E001C061E038
:10523000802F0E94775D05C08AE393E00E94639E01
:1052400002CE83E50E947B9C882309F4FCCD0E945A
:10525000D39BF82EF4E0EF1203C080934B02F3CD02
:1052600061E0802F0E94775D6F2D802F0E94BE63CA
:105270006F2D70E0802F0E94B35DE5CD0E947AAE65
:105280000E94013C0C94B51CA3019201C501B4011C
:105290000E9418F4181694F085E793E09F938F937B
:1052A0008CE493E09F938F931F920E9415C10F90FF
:1052B0000F900F900F900F900C94D51C84E893E002
:1052C000EDCF0E94FB9B0E9424F3633771050CF025
:1052D0007BC170938407609383070E94443C0E94C3
:1052E00069DD81110E9441AE60918307709184074E
:1052F000072E000C880B990B0E94C8EA20917F07AB
:105300003091800740918107509182070E9418F4E4
:1053100018161CF480E893E002C081E793E060E097
:105320000E94DCC081E080930E011AA21BA21CA285
:105330001DA21EA61FA618AA19AA1E8E1BAA4CE300
:105340004FAB5CE15BAF86E421968FAF2197C12C18
:10535000D12C10E8E12E0FEBF02E91E09AAB812CCE
:10536000912C54016091830770918407072E000CE3
:10537000880B990B0E94C8EA162F072F782E692EEA
:105380009601A7010E94C1EA882311F120917F07AD
:10539000309180074091810750918207ADA5612F20
:1053A000702F872D962DA11107C00E94C1EA881F7A
:1053B0008827881F8E8F12C00E94C1EA87FF0DC008
:1053C00080910E01882309F43ECD0E94013C3BCD23
:1053D0001C2D0D2D7E2C6F2C01C01E8E0E945F5E39
:1053E0006B017C01DC01CB012EA53FA548A959A981
:1053F000821B930BA40BB50BB7FD33C0D701C601BD
:1054000088519C4FAF4FBF4F8EA79FA7A8ABB9AB9A
:1054100080E00E94AD3E88E698E00E94639E811481
:105420009104A104B104B9F0D501C401805F984D85
:10543000AF4FBF4FBC01CD016C197D098E099F098B
:1054400028EE33E040E050E00E9417F1CA01B901B4
:105450000E94988503C08FE30E9424858AE00E9401
:10546000248580E00E9450860E945F5E60938607DC
:1054700070938707809388079093890790917F079F
:105480009EA3A0918007AAA7B0918107BBA7E09136
:105490008207ECA7292F3A2F4B2F5E2F612F702FF9
:1054A000872D962D0E94B7F11B012C0120E030E0E2
:1054B000A9010E9418F487FF04C057FA509457F8C6
:1054C000509481149104A104B104B1F420E030E0BF
:1054D00040E85FE3C201B1010E94C1EA87FF18C042
:1054E000FAA946015701FF2399F020E1820E27E235
:1054F000921EA11CB11C0CC020E030E040E450E43E
:10550000C201B1010E9418F4181614F446015701A3
:105510003E8D3323E1F18AA19BA1ACA1BDA1892BD2
:105520008A2B8B2B61F0D701C6012AA13BA14CA18C
:105530005DA1821B930BA40BB50BB7FD28C02EA158
:105540003AA54BA55CA56BA97FA98BAD21969FAD14
:1055500021970E94B7F120E030E040E85FE30E942D
:10556000C1EA87FD2DCFD701C601805A9541AF4FC3
:10557000BF4F8AA39BA3ACA3BDA39EA19BABAAA52F
:10558000AFABBBA5BBAFECA52196EFAF2197809148
:105590000E01882309F414CF81149104A104B104ED
:1055A00031F41AAAC12ED02EE72CF62CDBCEF0E176
:1055B000CF1AF7E2DF0AE108F108C818D908EA08AB
:1055C000FB08F7FCEECFFCCE63E770E082CE0E94D2
:1055D000FC4C88E50E94329C882331F05E9A8091D1
:1055E00005088E7F8093050889E50E94329C8823F8
:1055F00031F05E9A809105088D7F809305088AE5D9
:105600000E94329C882309F41ECC159A80910508CB
:105610008B7F8093050817CC602F83E50E940FBD18
:105620000C942F2083E50E947B9C882391F00E949C
:10563000FB9B6093440770934507809346079093C4
:10564000470760934C0770934D0780934E079093E4
:105650004F0780E50E947B9C882351F00E94FB9BB2
:1056600060934407709345078093460790934707DC
:1056700082E50E947B9C882351F00E94FB9B6093F3
:1056800048077093490780934A0790934B0784E536
:105690000E947B9C882309F4D6CB0E94FB9B6093DD
:1056A0004C0770934D0780934E0790934F07CBCBD9
:1056B00082E40E94329C882351F00E94FFBC6093D8
:1056C000200770932107809322079093230783E597
:1056D0000E94329C882351F00E94FB9B60935007EC
:1056E00070935107809352079093530784E50E946B
:1056F000329C882351F00E94FB9B60935407709367
:10570000550780935607909357078AE40E94329C6E
:10571000882309F498CB0E94FB9B6B017C012AE053
:1057200037ED43E25CE30E9418F487FD13C02AE9D9
:1057300039E949E95EE3C701B6010E94C1EA1816DA
:105740004CF0C0922F02D0923002E0923102F092DF
:10575000320279CB0E9480A186EF95E00E94639E81
:1057600072CB60E070E080E090E40C948F2260E007
:1057700070E080E090EC0C948F2282E50E94329CD5
:1057800081110C94C1225FCBB7FAB094B7F8B094F2
:10579000D7018D929D92AD92BC9213976FCA0C5F08
:1057A0001F4FBFEFCB1ADB0AEAE10E361E0709F0E6
:1057B00036CA37E0E32E38E0F32E10E0F101819194
:1057C0009191A191B1911F01F70181939193A193BF
:1057D000B1937F01812F0E9466711F5F133071F7B3
:1057E0000E942A7660E08DE197E00E94DCC063E9C8
:1057F00072E084E690E00E94A5C06AEB72E084E665
:1058000090E00E94A5C01FCB0E9480A18BE397E08F
:105810000E94639E61E08DE297E00E94DCC00E94DE
:10582000E2CA68E270E088EC90E00E94A5C00BCB71
:105830002F923F924F925F926F927F928F929F92A0
:10584000AF92BF92CF92DF92EF92FF920F931F938E
:10585000CF93DF93CDB7DEB7C357D1090FB6F89416
:10586000DEBF0FBECDBF4B015A0169016796FFAE87
:10587000EEAE6797209124073091250740912607C7
:1058800050912707DC016D917D918D919C910E9433
:1058900027EB0E9425F4AB966CAF7DAF8EAF9FAF28
:1058A000AB97209128073091290740912A07509102
:1058B0002B07F40160817181828193810E9427EB23
:1058C0000E9425F4AF966CAF7DAF8EAF9FAFAF97C0
:1058D00020912C0730912D0740912E0750912F07D2
:1058E000D5016D917D918D919C910E9427EB0E9435
:1058F00025F4E3966CAF7DAF8EAF9FAFE397209119
:105900003007309131074091320750913307F6014B
:1059100060817181828193810E9427EB0E9425F42E
:10592000A1966CAF7DAF8EAF9FAFA19780910F070F
:1059300083FF0EC0A1962CAD3DAD4EAD5FADA197DE
:105940002093FE0C3093FF0C4093000D5093010DFB
:1059500080910D0790910E07892B11F00C94E83976
:10596000D801BC91BDAFF801F1812696FFAF269713
:10597000D80112962C90129713963C908091DC0CD3
:105980009091DD0C891B8F708F3021F480E00E9494
:105990005086F4CFB091DC0CE496BFAFE4978091D1
:1059A000DC0CE82FF0E0FCAFEBAFFBE48F9FC00115
:1059B00011249C01235A3D4F2B963FAF2EAF2B97BE
:1059C0008091F20C9091F30CA091F40CB091F50C35
:1059D000AB968CAC9DACAEACBFACAB97881A990AB9
:1059E000AA0ABB0A8091F60C9091F70CA091F80CD2
:1059F000B091F90CAF962CAD3DAD4EAD5FADAF970C
:105A0000281B390B4A0B5B0B2BAB3CAB4DAB5EAB96
:105A10008091FA0C9091FB0CA091FC0CB091FD0CC4
:105A2000E3962CAD3DAD4EAD5FADE397281B390B32
:105A30004A0B5B0B2FAB38AF49AF5AAF8091FE0CCE
:105A40009091FF0CA091000DB091010DA196CCACEE
:105A5000DDACEEACFFACA197C81AD90AEA0AFB0A82
:105A600009F472C080915C02811128C06091C60C5B
:105A70007091C70C8091C80C9091C90C0E9424F3BE
:105A80002091090130910A0162177307BCF4A196B5
:105A90008CAD9DADAEADBFADA1978093FE0C909344
:105AA000FF0CA093000DB093010D0E9484A18AE920
:105AB00097E00E94639EC12CD12C7601C701B601EC
:105AC0000E94C8EA2091050130910601409107012A
:105AD000509108010E9427EB2B013C0120E030E0AF
