:100000000C949D170C94C7170C94C7170C94C71722
:100010000C94C7170C94C7170C94C7170C94C717E8
:100020000C94C7170C94C7170C94C7170C94C717D8
:100030000C94C7170C94A4D30C94C7170C94C7172F
:100040000C94C7170C94D8860C94FE890C94C7178F
:100050000C94BD350C94B3350C94C7170C94C7178A
:100060000C94C7170C94C7170C94C7170C94C71798
:100070000C94C7170C94C7170C94C7170C94C71788
:100080000C94F22E0C94C7170C94C71747334D33BA
:1000900053335F33953395336B3374337D33893307
:1000A00059435C434F435343734373436043644337
:1000B0006A436E43F7D9B6D8EDD833DAEDD8EDD828
:1000C000EDD8EDD8EDD8EDD8EDD8EDD8EDD8EDD808
:1000D000EDD8EDD8EDD8EDD8EDD8EDD8EDD8EDD8F8
:1000E000EDD8EDD8EDD8EDD8EDD8EDD8EDD8EDD8E8
:1000F0002DDAEDD8EDD8EDD8EDD8EDD8EDD8EDD896
:10010000EDD806DAEDD8EDD8EDD8EDD8EDD8EDD8AC
:10011000EDD8EDD8EDD8EDD84ADAEAD836E10FE1DE
:1001200012E139E115E118E11BE127E11EE134E1BB
:1001300021E124E14E414E494E495459494E46CDA4
:10014000CCCC3D0AD7233C17B7D13877CC2B32958E
:1001500095E6241FB14F0A000020410000C842006C
:10016000401C4620BCBE4CCA1B0E5AAEC59D740036
:10017000407A10F35A00A0724E18090010A5D4E876
:100180000000E87648170000E40B54020000CA9A09
:100190003B000000E1F5050000809698000000405B
:1001A000420F000000A086010000001027000000A0
:1001B00000E803000000006400000000000A0000E6
:1001C0000000000100000000002C76D888DC674F9A
:1001D0000823DFC1DFAE59E1B1B796E5E3E453C6CA
:1001E0003AE651997696E8E6C28426EB898C9B62C2
:1001F000ED407C6FFCEFBC9C9F40F2BAA56FA5F46C
:1002000090055A2AF75C936B6CF9676DC11BFCE093
:10021000E40D47FEF520E6B500D0ED902E030094E6
:100220003577050080841E080000204E0A0000007B
:10023000C80C333333330F986E12831141EF8D2185
:1002400014893BE65516CFFEE6DB18D1844B381BEC
:10025000F77C1D901DA4BBE424203284725E2281B1
:1002600000C9F124ECA1E53D27434F4D4D554E49C2
:10027000434154494F4E0044525952554E00455245
:10028000524F525300494E464F004543484F00538A
:100290006C6565702E2E2E005A2050726F6265209C
:1002A00050617374204265640A005A2050726F6274
:1002B00065205061737420426564004732384C30C9
:1002C00000205A3A200020593A2000426564205804
:1002D0003A20004D65736820706F696E74206F75E9
:1002E00074206F662072616E67650A00436C6963F3
:1002F0006B20746F20526573756D652E2E2E004E27
:100300006F204D6F76652E002569730025696D207D
:10031000256973002569682025696D2025697300AA
:10032000256964202569682025696D202569730089
:1003300025697920256964202569682025696D2053
:10034000256973005072696E742074696D653A2076
:1003500000436F6F6C696E672E2E2E0048656174C6
:10036000696E672E2E2E0045202553006F6B006F9F
:100370006666008A0285027E02770269024445426F
:1003800055473A004D3131322053687574646F77A8
:100390006E004D313133205300456E6465722D354A
:1003A0002050726F204F46462E004348414D424533
:1003B000525F54454D5045524154555245004241BB
:1003C00042595354455050494E47004152435300FF
:1003D0004D4F54494F4E5F4D4F444553005448458F
:1003E000524D414C5F50524F54454354494F4E007B
:1003F0004C4F4E475F46494C454E414D4500415597
:10040000544F5245504F52545F53445F53544154DC
:1004100055530052455045415400534443415244C2
:100420000050524F4D50545F535550504F5254004E
:10043000454D455247454E43595F504152534552F1
:1004400000434153455F4C494748545F4252494736
:1004500048544E45535300544F47474C455F4C4911
:100460004748545300534F4654574152455F504FED
:10047000574552004255494C445F50455243454E02
:1004800054004C4556454C494E475F444154410049
:100490005A5F50524F42450052554E4F55540041FD
:1004A00055544F4C4556454C005052494E545F4AA6
:1004B0004F420050524F4752455353004155544FFD
:1004C0005245504F52545F54454D5000564F4C5575
:1004D0004D455452494300454550524F4D00424905
:1004E0004E4152595F46494C455F5452414E534626
:1004F00045520053455249414C5F584F4E5F584F4B
:100500004646004649524D574152455F4E414D4582
:100510003A4D61726C696E206275676669782D323A
:100520002E302E7820284A616E203233203230322D
:10053000312031343A33333A31382920534F555230
:1005400043455F434F44455F55524C3A6769746871
:1005500075622E636F6D2F4D61726C696E466972A4
:100560006D776172652F4D61726C696E2050524FCC
:10057000544F434F4C5F56455253494F4E3A312EDC
:1005800030204D414348494E455F545950453A4506
:100590006E6465722D352050726F20455854525547
:1005A0004445525F434F554E543A312055554944C6
:1005B0003A63656465326132662D343161322D34BF
:1005C0003734382D396231322D6335356336326632
:1005D00033363766660A002F2F004D3134352053ED
:1005E0003C696E6465783E206F7574206F6620727A
:1005F000616E67652028302D31290A0020520041A4
:100600006363656C65726174696F6E3A2050003F78
:100610004A206F7574206F662072616E67652028AE
:10062000302E303120746F20302E33290A004D32A5
:1006300030362058004F4646004F4E0020580020CC
:10064000204D61783A2000200020204D696E3A202C
:1006500000536F667420656E6473746F70733A2014
:100660000046523A0020466C6F773A2000206F75A2
:1006700074206F662072616E67650A00536572763A
:100680006F20003A200020536572766F2000507270
:100690006F6265204F6666736574205A0050726FF2
:1006A0006265204F6666736574205A0020643A00C4
:1006B00020693A0020703A00496E76616C696420C6
:1006C00065787472756465720A0064697300656E9A
:1006D0000043290A0061626C656420286D696E2000
:1006E00074656D702000436F6C642065787472755A
:1006F0006465732061726520004D34323120696E6B
:10070000636F727265637420706172616D65746588
:10071000722075736167650A004D65736820706F9C
:10072000696E74206F7574206F662072616E6765E4
:100730000A004F666673657473204170706C69655A
:1007400064004572723A20546F6F20666172210016
:10075000546F6F206661722066726F6D20726566DD
:100760006572656E636520706F696E740A00454539
:1007700050524F4D204F4B0A00290A0020746F2021
:10078000003F5A206F7574206F662072616E676536
:10079000202800290A0020746F20003F59206F751F
:1007A00074206F662072616E676520282D00290A0B
:1007B0000020746F20003F58206F7574206F6620F2
:1007C00072616E676520282D0050726F6265204F40
:1007D0006666736574205800496E76616C696420A2
:1007E00065787472756465720A004572726F722062
:1007F00077726974696E6720746F20454550524F57
:100800004D210A0053544F505045442E2000507241
:10081000696E7465722073746F707065642064759E
:100820006520746F206572726F72732E204669782E
:1008300020746865206572726F7220616E64207525
:100840007365204D39393920746F20726573746176
:1008500072742E202854656D7065726174757265AE
:100860002069732072657365742E20536574206946
:100870007420616674657220726573746172746944
:100880006E67290A004E6F20436865636B73756D50
:100890002077697468206C696E65206E756D62657D
:1008A000722C204C617374204C696E653A20006391
:1008B0006865636B73756D206D69736D61746368D2
:1008C0002C204C617374204C696E653A20004C6991
:1008D0006E65204E756D626572206973206E6F744F
:1008E000204C617374204C696E65204E756D626595
:1008F000722B312C204C617374204C696E653A2048
:10090000004D313130002121204B494C4C20636196
:100910007573656420627920746F6F206D756368EC
:1009200020696E6163746976652074696D65202D38
:100930002063757272656E7420636F6D6D616E6495
:100940003A2000627573793A20706175736564208E
:10095000666F7220696E7075740A00627573793AF9
:100960002070617573656420666F7220757365729F
:100970000A00627573793A2070726F6365737369E8
:100980006E670A004368616E67652046696C616D39
:10099000656E740050726568656174204375737488
:1009A0006F6D005072656865617420240042616358
:1009B0006B0041626F7574205072696E74657200CD
:1009C0004368616E67652046696C616D656E740091
:1009D0004D36303020423000436F6E666967757265
:1009E0006174696F6E0054656D70657261747572C3
:1009F00065004D6F74696F6E0054756E6500496EC9
:100A0000666F2053637265656E002100486F7465E0
:100A10006E6420746F6F20636F6C64004261636B5F
:100A20000050726F63656564004D6F74696F6E008E
:100A300044697361626C652053746570706572738C
:100A4000004D383400426564204C6576656C696EF3
:100A500067004175746F20486F6D6500473238003C
:100A60004D61696E00000000010200090A000000EB
:100A70000004030807000000000000000000000060
:100A80000000000000004D6F76652025736D6D003D
:100A90004D6F766520302E316D6D004D6F7665207F
:100AA000316D6D004D6F76652031306D6D004D6F8D
:100AB0007665204178697300457874727564657253
:100AC000004D6F7665205A004D6F76652059004DB8
:100AD0006F766520580050726F62696E67204661BC
:100AE000696C65640A0050726F62696E67204661C6
:100AF000696C656400205A3A200020593A2000426F
:100B0000656420583A2000220A00556E6B6E6F779C
:100B10006E20636F6D6D616E643A202200456E64D5
:100B200065722D352050726F2052656164792E00F8
:100B30005072696E74696E672E2E2E005072696E47
:100B400074205061757365640020453A00205A3A5C
:100B50000020593A00583A00486F6D696E67204688
:100B600061696C6564006F70656E00545249474757
:100B700045524544003A20007A5F6D696E00795F06
:100B80006D617800785F6D6178005265706F727486
:100B9000696E6720656E6473746F7020737461741E
:100BA00075730A0020746F6F206C6F6E6720657814
:100BB00074727573696F6E2070726576656E746598
:100BC000640A0020636F6C642065787472757369C1
:100BD0006F6E2070726576656E7465640A00486F8A
:100BE0006D65202573257325732046697273740023
:100BF000DB0FC93F45BCDA3F8FB30240FCF0274012
:100C000056946140FE4B9B4084A5D840E023184198
:100C1000346A5641E859974164DBD5416E27174243
:100C2000B4B75542CE1A9742C8AED542B5885A439A
:100C3000D40684BFA65FA7BF7443E0BF10B11AC03B
:100C40001C2C58C0E8F697C0B849D6C04E4E17C104
:100C500024D355C1802497C1A0B5D5C1121A17C29B
:100C600044AE55C2781797C26CACD5C267885AC3D8
:100C700020746F6F206C6F6E672065787472757367
:100C8000696F6E2070726576656E7465640A002007
:100C9000636F6C6420657874727573696F6E207011
:100CA000726576656E7465640A0024F4D43050C3AE
:100CB0008E20C2A24017828B7011127A910D816C26
:100CC000D90AA861E108C7586607615143061E4B5F
:100CD0005D05C145A7041A411104093D9803713906
:100CE00031034036DB0265339102D4305402802E4A
:100CF0001D02632CEE01752AC501B028A001102742
:100D000081018F2564012B244B01E0223401AC21A9
:100D10001F018D200D01801FFC00841EED00971D1A
:100D2000DF00B81CD200E61BC600201BBC00641A02
:100D3000B200B219A8000A19A0006A189900D117C8
:100D4000910040178B00B516840031167E00B31554
:100D500079003A157300C7146F0058146A00EE1337
:100D600066008813630025135E00C7125B006C12D7
:100D7000570015125400C111510070114F0021117C
:100D80004B00D61049008D10470046104400021059
:100D90004200C00F4000800F3E00420F3C00060F93
:100DA0003B00CB0E3800930E37005C0E3500270E4B
:100DB0003400F30D3200C10D3100900D3000600D94
:100DC0002E00320D2D00050D2C00D90C2B00AE0C81
:100DD0002900850C29005C0C2700350C27000E0C1F
:100DE0002600E80B2400C40B2400A00B23007D0B7D
:100DF00023005A0B2100390B2100180B2000F80AA0
:100E00001F00D90A1E00BB0A1E009D0A1D00800A91
:100E10001D00630A1C00470A1B002C0A1B00110A54
:100E20001A00F7091A00DD091900C4091900AB09F5
:100E30001900920917007B091800630917004C0973
:100E4000160036091600200916000A091500F508D3
:100E50001500E0081400CC081400B8081400A40819
:100E60001400900813007D0812006B081300580846
:100E7000120046081200340811002308110012085D
:100E8000110001081100F0071000E0071000D00762
:100E90001000C0071000B0070F00A1071000910755
:100EA0000E0083070F0074070F0065070E00570739
:100EB0000E0049070E003B070D002E070E0020070D
:100EC0000D0013070D0006070D00F9060C00ED06D6
:100ED0000D00E0060C00D4060C00C8060C00BC0691
:100EE0000C00B0060C00A4060B0099060C008D0641
:100EF0000B0082060B0077060B006C060B006106E8
:100F00000A0057060B004C060A0042060A00380683
:100F10000A002E060A0024060A001A060A00100615
:100F2000090007060A00FD050900F4050900EB05A4
:100F30000900E2050900D9050900D0050900C70527
:100F40000900BE050900B5050800AD050800A505A6
:100F500009009C050800940508008C05080084051C
:100F600008007C050800740508006C05070065058D
:100F700008005D050700560508004E0507004705F7
:100F800007004005080038050700310507002A055D
:100F90000700230507001C050600160507000F05BE
:100FA00007000805060002050700FB040600F5041B
:100FB0000700EE040600E8040600E2040700DB0474
:100FC0000600D5040600CF040600C9040600C304C9
:100FD0000600BD040600B7040600B1040500AC0419
:100FE0000600A6040600A00405009B040600950464
:100FF0000500900406008A040500850405008004AD
:1010000006007A04050075040500700405006B04F1
:10101000050066040500610405005C040500570432
:101020000500520405004D04050048040500430472
:1010300005003E0404003A040500350405003004B0
:1010400004002C04050027040400230405001E04EA
:1010500004001A04040016040500110404000D0421
:101060000400090405000404040000040400FC0357
:101070000400F8030400F4030400F0030400EC038C
:101080000400E8030400E4030400E0030400DC03BC
:101090000400D8030400D4030400D0030400CC03EC
:1010A0000400C8030300C503030024F404D9201B73
:1010B000C40C5C0E9804C4095F0265077101F40555
:1010C000F900FB04B30048048700C103690058031A
:1010D000550003034500BE023A008402310053026A
:1010E0002A002902250004022000E4011C00C80196
:1010F0001900AF0117009801140084011300710159
:1011000010006101100051010E0043010D00360175
:101110000B002B010B0020010B00150109000C0135
:10112000090003010800FB000800F3000800EB00C1
:101130000700E4000600DE000600D8000600D2002A
:101140000600CC000500C7000500C2000500BD0078
:101150000400B9000400B5000400B1000400AD00B3
:101160000400A9000400A5000300A20003009F00E2
:1011700004009B0003009800030095000200930008
:101180000300900003008D0002008B000300880024
:1011900002008600020084000300810002007F003C
:1011A00002007D0002007B0002007900020077004F
:1011B000010076000200740002007200010071005C
:1011C00002006F0002006D0001006C0002006A0066
:1011D000010069000200670001006600010065006F
:1011E0000100640002006200010061000100600073
:1011F00001005F0002005D0001005C0001005B0077
:1012000001005A0001005900010058000100570078
:101210000100560001005500010054000100530078
:101220000000530001005200010051000100500075
:1012300001004F0001004E0000004E0001004D0073
:1012400001004C0001004B0000004B0001004A006F
:10125000010049000100480000004800010047006B
:101260000100460000004600010045000000450066
:10127000010044000100430000004300010042005F
:101280000000420001004100000041000100400058
:1012900001003F0000003F0001003E0000003E0052
:1012A00001003D0000003D0001003C0000003C004A
:1012B00000003C0001003B0000003B0001003A0040
:1012C00000003A0001003900000039000100380038
:1012D000000038000000380001003700000037002F
:1012E0000100360000003600000036000100350025
:1012F000000035000000350001003400000034001B
:10130000000034000100330000003300000033000F
:101310000100320000003200000032000100310004
:1013200000003100000031000100300000003000FA
:101330000000300001002F0000002F0000002F00EF
:1013400000002F0001002E0000002E0000002E00E3
:1013500001002D0000002D0000002D0000002D00D8
:1013600001002C0000002C0000002C0000002C00CC
:1013700001002B0000002B0000002B0000002B00C0
:1013800001002A0000002A0000002A0000002A00B4
:1013900001002900000029000000290000002900A8
:1013A000000029000100280000002800000028009B
:1013B000000028000000280001002700000027008E
:1013C0000000270000002700000027000100260081
:1013D0000000260000002600000026000000260075
:1013E0000100250000002500000025000000250068
:1013F000000025000000250001002400000024005A
:10140000000024000000240000002400010023004C
:101410000000230000002300000023000000230040
:101420000000230000002300010022000000220031
:101430000000220000002200000022000000220024
:101440000100210000002100000021000000210017
:101450000000210000002100000021000100200008
:1014600000002000000020000000200000002000FC
:1014700000002000000020000000200001001F00EC
:1014800000001F0000001F0000001F0000001F00E0
:1014900000001F0000001F0001001E0000001E00D1
:1014A00000001E0000001E000000043700001E297E
:1014B0000000511B00005810000010090000CC046F
:1014C0000000780200004101000020436F756E7437
:1014D00020583A0042656400453100626564002C82
:1014E0002073797374656D2073746F7070656421F7
:1014F000204865617465725F49443A20004865611F
:1015000074696E67204661696C6564004865617442
:10151000696E67206661696C6564002121205354FF
:101520004F502063616C6C65642062656361757304
:1015300065206F6620424C546F7563682065727237
:101540006F72202D207265737461727420776974D4
:1015500068204D3939390A0021212053544F502039
:1015600063616C6C65642062656361757365206F8F
:101570006620424C546F756368206572726F7220EA
:101580002D20726573746172742077697468204DC0
:101590003939390A00486F74656E6420746F6F20A2
:1015A000636F6C640A004F46460A0046616465201A
:1015B0004865696768742000426564204C657665FB
:1015C0006C696E6720004661696C656420746F20E9
:1015D000656E61626C6520426564204C6576656C61
:1015E000696E670A00496E76616C6964206D657387
:1015F000682E0A0050726F62696E6720506F696EC4
:10160000740025532025692F2569002E0A002F001C
:1016100050726F62696E67206D65736820706F69C4
:101620006E742000202844525952554E29004732EA
:1016300039204175746F20426564204C6576656C75
:10164000696E67003F20284C2C522C462C422920E2
:101650006F7574206F6620626F756E64732E0A005A
:101660003F2856296572626F7365206C6576656CDC
:1016700020696D706C61757369626C652028302D0E
:1016800034292E0A00426164205A2076616C756507
:101690000A004E6F2062696C696E65617220677224
:1016A00069640A0000005C4300005C43000096434C
:1016B000000000000000000000000000536574748A
:1016C000696E67732053746F72656400202D204922
:1016D0006E76616C696420657874727564657220D9
:1016E0006E756D62657220210A00544845524D4165
:1016F0004C2052554E4157415900546865726D61F6
:101700006C2052756E61776179004572723A204D96
:10171000415854454D50004D415854454D5020744A
:101720007269676765726564004572723A204D4957
:101730004E54454D50004D494E54454D5020747205
:101740006967676572656400202F002042403A0097
:1017500020403A0020573A00FFFFFFFFEFFFFFFF56
:10176000FFFFFFFFFFFFFFEFEFFFFFFFFFFFFFFFA9
:10177000FFFFE7DFFFFFFFFFFFFFFFFFFFE7DFFFE9
:10178000FFFFFFFFFFFFFFFFE3DFFFFFFFFFFFFFA5
:10179000FFFFFFF3CFFFFFFFFFFFFFFFFFE1E1CF01
:1017A000FFFFFFFFFFFFFE78000003DDFFFFFFFFED
:1017B000FEFF807E0001EEFFFFFFFFFE7DCFFC00FD
:1017C00000F77FFFFFFFFF8E060000007BBFFFFFDB
:1017D000FFFFC0000000007DDFFFFFFFFFFC01FEF8
:1017E00000003EE7FFFFFFFFFFFFFC00031F73FF4A
:1017F000FFFFFFFFFFF800018F81FFFFFFFFFFFFEB
:10180000E0000083F9FFFFFFFFFFFF00FC0000F096
:10181000FFFFFFFFFFE00FFFC00000FFFFFFFFFE25
:1018200003FFFFC00000FFFFFFFFFFFFFFF9000005
:1018300000FFFFFFFFFFFFFFFC0007C0FFFFFFFFF0
:10184000FFFFFFFF0007E0FFFFFFFFFFFFFFFFE0DD
:1018500007F1FFFFFFFFFFFFFFFFFC07F9FFFFFF9F
:10186000FFFFFFFFFFFF03F9FFFFFFFFFFFFFFFF8A
:10187000FF83F9FFFFFFFFFFFFFFFFFFC3FFFFFF36
:10188000FFFFFFFFFFFFFFE1FFFFFFFFFFFFFFFF86
:10189000FFFFF0BFFFFFFFFFFFFFFFFFFBF83FFF72
:1018A000FFFFFFFFFFFFFFF9F83FFFFFFFFFFFFF15
:1018B000FFFF7EF0FFFFFFFFFFFFFFFFFF8E03FF35
:1018C000FFFFFFFFFFFFFFFFE01FFFFFFFFFFFFF27
:1018D000FFFFFFFFFFFFFFFFFFFFFFFFFFFFFFFF18
:1018E000FFFFFFFFFFFFFFFFFFFFFF7FFFFFFFFF88
:1018F00000007FFFFFF87FFFFFFFFF80007FFFFFFB
:10190000E07FFFFFFFFFC3FCFFFFFFF8FFFFFFFFCC
:10191000FFC3FCFFFFFFF8FFFFFFFFFF87FDFFFF97
:10192000FFF1FFFFFFFFFF87FFFFFFFFF1FFFFFF5B
:10193000FFFF0FE7F30FFC23FC3FFFFFFF0FEF80DC
:1019400007F003F01E007FFE1FCF8187C787C70CFB
:10195000007FFE001FC7C78FC79F0F0CFFFE001F31
:10196000878F1F8F1F0F1FFFFC3F9F8F8F1F8E00C2
:101970001E3FFFFC7F3F0F1E3F1E3FFE3FFFF87FD5
:10198000FF1F1C3F1C7FFC7FFFF8FFFF1E1C7E1CFF
:101990007FFC7FFFF0FFCE3E3C7E3C7FB8FFFFF038
:1019A000FF9E3C387C387E78FFFFE1FF3C7C787CF2
:1019B000783CF1FFFFE1F8387878101801F1FFFF6B
:1019C000000060203C007C07807FFFFFFFFFFFFEE0
:1019D0001FFE1FFFFFFF6D61726C696E66772E6FD1
:1019E0007267006275676669782D322E302E780036
:1019F0001FFFFFFFFFFFFF600000000001FF40002E
:101A000000000000FF8000000000007F83CF000086
:101A10000C303F87FF80000C301F867980000C005F
:101A20000F8C30C7838C30E78C30CFC7CC31F38C30
:101A300030DCECEC33B98C30D86C6C33198C30D092
:101A40006C0C33198C30D86C0C33198C30DC6C0E68
:101A50003B198C30CF7C079F198C30C77C038F19C2
:101A600040000000000002600000000000061FFFB0
:101A7000FFFFFFFFF870012C0190012701B0012248
:101A800001C0011D01F00118011002130130020E06
:101A9000016002090190020401C002FF000003FA84
:101AA000004003F5008003F000D003EB002004E6C3
:101AB000007004E100E004DC004005D700C005D25E
:101AC000004006CD00D006C8008007C3003008BE25
:101AD00000F008B900C009B400B00AAF00B00BAA0A
:101AE00000D00CA500000EA000500F9B00C0109667
:101AF000005012910000148C00C0158700B01782AE
:101B000000B0197D00D01B7800001E730040206ECD
:101B10000090226900F024640040275F0090295A59
:101B200000E02B5500102E500020304B00103246A4
:101B300000E033410090353C0010373700703832F8
:101B400000A0392D00B03A2800A03B2300603C1EC5
:101B500000103D1900903D1400103E0F00703E0A29
:101B600000C03E0500003F0000403FFBFF803FF605
:101B7000FFC03FF1FF2020506C616E6E65724275B0
:101B80006666657242797465733A20002046726514
:101B900065204D656D6F72793A2000436F6D7069F5
:101BA0006C65643A204A616E203233203230323123
:101BB0000A00204C61737420557064617465643A46
:101BC00020323032312D30312D3233207C2041759E
:101BD00074686F723A2028446576696E204B61699B
:101BE0007365722C20456E6465722D352050726FBE
:101BF000290A006275676669782D322E302E780AC0
:101C0000004D61726C696E0020536F66747761726B
:101C1000652052657365740A0020576174636864B7
:101C20006F672052657365740A002042726F776E89
:101C3000206F75742052657365740A0020457874AE
:101C400065726E616C2052657365740A00506F771F
:101C5000657255700A0073746172740A00456E648F
:101C600073746F707300255320256320256320252E
:101C70006320256300205A3A0020593A0020583A40
:101C800000656E6473746F7073206869743A200025
:101C90004C6F6164206D6D00556E6C6F6164206DDA
:101CA0006D0046696C2E204469612E004520696EE6
:101CB000206D6D5E33004D33303320553120452586
:101CC000692053256900504944204175746F74752B
:101CD0006E65202A005049442D44202A0050494472
:101CE0002D49202A005049442D50202A0020082048
:101CF00046616374002008204D6178002008204D63
:101D0000696E004F6666004F6E004175746F7465B2
:101D10006D700042656400456E636C6F737572652B
:101D200000202020202020200020202020001FE054
:101D300020102010201010201020201020103030F3
:101D40000840048003001FE03FF03FF03FF01FE039
:101D50001FE03FF03FF03FF00FC0078003003FFF60
:101D6000F038007030FC3020FC102078102030104B
:101D70002C00D02E31D02F7BD02F7BD02E31D02CE9
:101D800000D020301020781020FC1030FC303800BB
:101D9000703FFFF03FFFF03800703186302387102E
:101DA0002787902F87D02F03D02030102078102045
:101DB00078102030102F03D02F87D02787902387CB
:101DC000103186303800703FFFF01FFFF81FFFF81A
:101DD000041040020820020820041040082080104F
:101DE00041001041000820800410400000001FFF47
:101DF000F81FFFF81E00800078100080004010A33C
:101E00009960701CD4A580081094BD0F081094A18F
:101E100000481E939D0030000000000000000000FC
:101E20000000038000000002400000000256600035
:101E30000003989000000210900000021090000033
:101E4000021060005045544700504C4100507265EC
:101E5000686561742024204265640050726568657D
:101E60006174202420456E640054656D7065726154
:101E70007475726500491E441E436F6F6C646F7702
:101E80006E005072656865617420240046616E20A2
:101E9000537065656400426564004E6F7A7A6C65C4
:101EA000004D61696E0050726F6265205A204F6666
:101EB0006673657400466C6F770046616E205370E0
:101EC00065656400426564004E6F7A7A6C65005304
:101ED00070656564004D61696E00454550524F4D17
:101EE0002056657273696F6E204572726F7200457D
:101EF0004550524F4D20496E646578204572726F8F
:101F00007200454550524F4D204352432045727256
:101F10006F72003F0049676E6F72650052657365AE
:101F20007400496E697469616C697A652045455031
:101F3000524F4D0050726F6265205A204F66667393
:101F4000657400452073746570732F6D6D005A20A1
:101F500053746570732F6D6D0059205374657073E1
:101F60002F6D6D00582053746570732F6D6D004197
:101F70006476616E6365642053657474696E67731B
:101F80000046696C616D656E740054656D706572B4
:101F900061747572650053746570732F6D6D0043C5
:101FA0006F6E66696775726174696F6E0053746FE6
:101FB00072652053657474696E6773004C6F616459
:101FC0002053657474696E67730050726F62652088
:101FD0005A204F66667365740046616465204865E3
:101FE00069676874004F6666004F6E004265642042
:101FF0004C6576656C696E67004C6576656C204251
:102000006564004732394E00473239004175746FBC
:1020100020486F6D65004D6F74696F6E0045727278
:102020003A207574663820666F6E74206E6F742067
:10203000696E697469616C697A65642E00457272B3
:102040003A207574663820666F6E74206E6F742047
:10205000696E697469616C697A65642E0045727293
:102060003A207574663820666F6E74206E6F742027
:10207000696E697469616C697A65642E00000C0F81
:1020800000FE07022503BB017FFE08FE08FE0508CF
:102090000806000040F0C8888898781005080806EF
:1020A0000000C0F88888888888F8050505060001C2
:1020B0002030F830200508080600002070F82020A5
:1020C0002020E00509090600FF2070A8A8B888882C
:1020D0007020070505070001D86C366CD805090982
:1020E0000600FFF8A88888888888A8F8050A0A06E4
:1020F00000FE205050505088A8A8887003030306A3
:10210000000340A040FFFFFFFFFFFFFFFFFFFFFFB7
:10211000FFFFFFFFFFFFFFFFFFFFFF0000000605BF
:10212000FF01070706020080808080800080030393
:1021300003060105A0A0A005060606000050F85001
:1021400050F8500509090600FF2070A8A07028A8C3
:102150007020050707060000C8C8102040989805A1
:10216000070706000040A0A040A8906801030306EE
:1021700002058080800309090601FF20404080801D
:10218000804040200309090601FF804040202020B4
:1021900040408005070706000020A8702070A82096
:1021A0000505050600012020F82020020303060192
:1021B000FFC04080050101060003F802020206018B
:1021C00000C0C0050707060000081010204040802E
:1021D000050707060000708898A8C88870030707DD
:1021E00006010040C040404040E0050707060000EF
:1021F000708808102040F8050707060000F808104E
:102200003008887005070706000010305090F8105D
:1022100010050707060000F880F008088870050719
:1022200007060000304080F0888870050707060028
:1022300000F808101020202005070706000070880D
:1022400088708888700507070600007088887808FD
:102250001060020505060100C0C000C0C0020606ED
:102260000601FFC0C000C040800305050601012033
:1022700040804020050303060002F800F80305052E
:102280000601018040204080050707060000708895
:1022900010202000200507070600007088B8A8B8A5
:1022A0008070050707060000708888F88888880510
:1022B0000707060000F04848704848F00507070681
:1022C000000070888080808870050707060000F095
:1022D0004848484848F0050707060000F88080F0A5
:1022E0008080F8050707060000F88080F080808075
:1022F000050707060000708880809888700507072A
:10230000060000888888F888888803070706010087
:10231000E04040404040E00507070600003810104C
:10232000101090600507070600008890A0C0A090DC
:1023300088050707060000808080808080F80507F8
:102340000706000088D8A88888888805070706003F
:10235000008888C8A8988888050707060000708844
:102360008888888870050707060000F08888F08054
:10237000808005070706000070888888A890680597
:102380000707060000F08888F0A090880507070678
:10239000000070888070088870050707060000F844
:1023A0002020202020200507070600008888888834
:1023B00088887005070706000088888888505020A4
:1023C00005070706000088888888A8A85005070721
:1023D00006000088885020508888050707060000FE
:1023E00088885020202020050707060000F80810E4
:1023F000204080F80309090601FFE080808080808A
:102400008080E0050707060000804040201010088B
:102410000309090601FFE020202020202020E005FC
:1024200003030600052050880501010600FEF8039D
:10243000030306010580402005050506000070081D
:102440007888780507070600008080F0888888F083
:1024500005050506000070808088700507070600E6
:1024600000080878888888780505050600007088C7
:10247000F08070050707060000304840E04040400B
:102480000507070600FE708888887808700507072A
:102490000600008080F0888888880307070601000E
:1024A0004000C0404040E00409090601FE10003031
:1024B00010101010906005070706000080808890BB
:1024C000E09088030707060100C04040404040E01C
:1024D000050505060000D0A8A8A8A8050505060062
:1024E00000B0C888888805050506000070888888BF
:1024F000700507070600FEF0888888F080800507D1
:10250000070600FE78888888780808050505060013
:1025100000B0C8808080050505060000788070083E
:10252000F00507070600002020F8202020180505E8
:10253000050600008888889868050505060000885B
:10254000888850200505050600008888A8A8500541
:10255000050506000088502050880507070600FE84
:1025600088888850204080050505060000F8102066
:1025700040F80309090601FF2040404080404040E8
:10258000200109090602FF80808080808080808091
:102590000309090601FF804040402040404080057B
:1025A000030306000248A890FF4361703A006F6B76
:1025B00000526573656E643A200020573A00426508
:1025C0006420436F6F6C696E672E2E2E0042656427
:1025D0002048656174696E672E2E2E00236465663F
:1025E000696E652044454641554C545F004B64205C
:1025F000004B6920004B7020005049442041757405
:102600006F74756E652066696E69736865642120F4
:1026100050757420746865206C617374204B702C45
:10262000204B6920616E64204B6420636F6E73746D
:10263000616E74732066726F6D2062656C6F7720B7
:10264000696E746F20436F6E666967757261746935
:102650006F6E2E680A00504944204175746F74757E
:102660006E65206661696C6564212074696D656FB3
:1026700075740A00504944204175746F74756E6515
:10268000206661696C6564212054656D70657261B6
:102690007475726520746F6F20686967680A00201E
:1026A0004B643A2000204B693A2000204B703A20BE
:1026B000000A20436C617373696320504944200A07
:1026C000002054753A2000204B753A2000206D619F
:1026D000783A2000206D696E3A200020643A20008C
:1026E00020626961733A2000504944204175746F3B
:1026F00074756E652073746172740A0050494420C9
:102700004175746F74756E65206661696C656421CE
:102710002054656D706572617475726520746F6F99
:1027200020686967680A00504944204175746F74D5
:10273000756E6500504944204175746F74756E65FF
:10274000206661696C65642120426164206578744B
:102750007275646572206E756D6265720A00554E01
:102760004C4F41442046494C414D454E54004C4F3E
:1027700041442046494C414D454E540046494C4148
:102780004D454E54204348414E47450053746F77A2
:10279000004465706C6F790053572D4D6F64650070
:1027A00053656C662D5465737400526573657400CF
:1027B000436F6E66696775726174696F6E004C6F06
:1027C00061642053657474696E67730053746F722B
:1027D000652053657474696E677300526573746F16
:1027E00072652044656661756C747300424C546F69
:1027F0007563680050726F6265205A204F66667379
:10280000657400416476616E636564205365747419
:10281000696E6773004D61696E004D373032205428
:102820002564004D36303020423020542564004D60
:10283000373032203B2564004D3730312054256439
:1028400000436F6E74696E75650050757267652020
:102850006D6F726500524553554D45204F50544998
:102860004F4E533A005052494E5420504155534513
:10287000440020204E6F7A7A6C653A200000005C9C
:102880004300005C43000000005761726E696E6790
:102890003A20486F6D696E672042756D70204469FB
:1028A0007669736F72203C20310A00020204000036
:1028B0005C4300005C43000096430000A040000021
:1028C000A040000000400101FF506C65617365206D
:1028D0005265736574005052494E54455220484128
:1028E0004C5445440025533A202553004B494C4C49
:1028F00045442E20005072696E7465722068616CC8
:102900007465642E206B696C6C28292063616C6C83
:102910006564210A0053544F505045442E20005006
:1029200072696E7465722073746F70706564206470
:10293000756520746F206572726F72732E20466900
:102940007820746865206572726F7220616E6420F1
:10295000757365204D39393920746F207265737431
:102960006172742E202854656D7065726174757281
:10297000652069732072657365742E205365742019
:102980006974206166746572207265737461727413
:10299000696E67290A006563686F3A004572726F55
:1029A000723A0042696C696E656172204C657665A9
:1029B0006C696E6720477269643A0A00204D3932AB
:1029C000205800496E736572742066696C616D658C
:1029D0006E7420616E64207072657373206275740A
:1029E000746F6E0A00507265737320627574746F31
:1029F0006E20746F2068656174206E6F7A7A6C65E2
:102A00000A00496E736572742066696C616D656E4B
:102A10007420616E642070726573732062757474C3
:102A20006F6E0A0020496E76616C69642065787467
:102A3000727564657220000000FA430000FA4300DA
:102A400000A0400000C8413D8AA042856BA042CD55
:102A50005C47443D8AC042F4010000F40100006478
:102A6000000000881300003B20003A0A0020204D9F
:102A700036303320002055004C0046696C616D658E
:102A80006E74206C6F61642F756E6C6F6164206C66
:102A9000656E677468733A0020204D3835312058D0
:102AA000005A2D50726F6265204F66667365740020
:102AB00020440020490020204D3330312050005068
:102AC00049442073657474696E67733A0020460048
:102AD00020420020480020204D3134352053004D45
:102AE0006174657269616C206865617475702070CD
:102AF0006172616D65746572733A00204A0020202E
:102B0000473239205720490020204D34323020539D
:102B1000004175746F20426564204C6576656C6970
:102B20006E673A0020204D323036205800486F6DD5
:102B300065206F66667365743A00204A0020530072
:102B400020204D323035204200416476616E63654D
:102B5000643A20423C6D696E5F7365676D656E74A3
:102B60005F74696D655F75733E20533C6D696E5F80
:102B700066656564726174653E20543C6D696E5F84
:102B800074726176656C5F66656564726174653EDA
:102B9000204A3C6A756E635F6465763E002054008F
:102BA00020520020204D32303420500041636365B4
:102BB0006C65726174696F6E2028756E6974732F0D
:102BC0007332293A20503C7072696E745F6163639E
:102BD000656C3E20523C726574726163745F616320
:102BE00063656C3E20543C74726176656C5F616312
:102BF00063656C3E0020204D3230312058004D611D
:102C000078696D756D20416363656C657261746987
:102C10006F6E2028756E6974732F7332293A002005
:102C20004500205A0020590020204D3230332058D2
:102C3000004D6178696D756D2066656564726174BB
:102C400065732028756E6974732F73293A00537465
:102C50006570732070657220756E69743A00204447
:102C60000020204D323030205300204469736162CF
:102C70006C65640A0046696C616D656E74207365ED
:102C80007474696E67733A0020204D3134392043E3
:102C9000203B20556E69747320696E2043656C7308
:102CA0006975730A0020286D6D2900202047323194
:102CB000202020203B20556E69747320696E206DA2
:102CC0006D0000002200250028002B0000002100DC
:102CD000240027002A000202020202020202040467
:102CE00004040404040403030303030303030101B2
:102CF00001010101010101020408102040800102CC
:102D00000408102040800102040810204080804008
:102D10002010080402015061726B696E672E2E2E1E
:102D20000000005761697420666F720066696C610B
:102D30006D656E74206368616E676500746F2073E3
:102D400074617274005761697420666F72006669FD
:102D50006C616D656E7420756E6C6F616400004E01
:102D60006F7A7A6C652068656174696E6700506C73
:102D70006561736520776169742E2E2E0000507294
:102D800065737320627574746F6E00746F2068656C
:102D90006174206E6F7A7A6C650000496E7365729B
:102DA000742066696C616D656E7400616E6420707C
:102DB0007265737320627574746F6E00746F206334
:102DC0006F6E74696E7565005761697420666F7205
:102DD0000066696C616D656E74206C6F61640000E3
:102DE000507265737320427574746F6E00746F2037
:102DF000726573756D65207072696E74000057613D
:102E0000697420666F72207072696E7400746F202E
:102E1000726573756D652E2E2E00005761697420E2
:102E2000666F720066696C616D656E742070757294
:102E3000676500003132350035004245443A20458F
:102E400050434F53203130304B0052756E617761E3
:102E5000792057617463683A204F4E004D617820A5
:102E600054656D7000323735004D696E2054656DC4
:102E70007000350045313A204550434F53203130E2
:102E8000304B005053550047656E657269630050C2
:102E9000726F746F636F6C00312E30004261756425
:102EA00000323530303030004D656C7A692028436F
:102EB0007265616C697479290042696C696E65613B
:102EC00072204C6576656C696E6700457874727522
:102ED000646572730031006D61726C696E66772E85
:102EE0006F726700456E6465722D352050726F00F9
:102EF000323032312D30312D3233006275676669E0
:102F0000782D322E302E78004D61726C696E00542F
:102F10006865726D6973746F727300426F61726479
:102F200020496E666F005072696E74657220496E3A
:102F3000666F004D61696E0001E611241FBECFEF80
:102F4000D0E4DEBFCDBF12E0A0E0B1E0E8EAF9EEE8
:102F500001E00BBF02C007900D92A833B107D9F76B
:102F60002EE0A8E3B2E001C01D92A73FB207E1F74F
:102F700017E1CDE9D7E104C02197FE010E9463F279
:102F8000CC39D107C9F70E9488E10C94D2F40C9493
:102F900000002F923F924F925F926F927F928F929A
:102FA0009F92AF92BF92CF92DF92EF92FF920F93D8
:102FB0001F93CF93DF93CDB7DEB7E2970FB6F894A8
:102FC000DEBF0FBECDBF88AB2DB73EB73AAB29AB46
:102FD000309142023FA321E0209342028091C20B34
:102FE0008D3409F491C3843511F40C94DF278734B0
:102FF00011F00C9402288091C00B9091C10B8C3180
:10300000910509F433C188F48430910509F4CFC0E7
:1030100018F4029738F174C38531910511F40C94BA
:1030200004284B9709F402C16BC38A32910509F455
:1030300040C240F48D31910509F427C14E9709F43F
:103040003DC15EC38B35910509F4B0C18C35910546
:1030500009F4B1C18A35910509F052C310924102B9
:103060000C94042880911F09813011F00C940428DD
:103070006AE5E62E6CE0F62E00E711E07BEEC72E47
:1030800072E0D72EB12C88E58B0D0E94DC7088236E
:1030900011F10E947A6E2B013C018B2D0E9458CFBA
:1030A000882351F0F8012081318142815381C3018D
:1030B000B2010E947FF209C0F60120813181428174
:1030C0005381C301B2010E947EF2F70160837183D4
:1030D000828393830AC0F80180819181A281B381A8
:1030E000F70180839183A283B383B394F4E0EF0E5E
:1030F000F11C0C5F1F4F24E0C20ED11C33E0B31251
:10310000C2CF85E40E94DC70882301F10E947A6EB0
:103110006B017C0183E00E9458CF882371F02091DD
:103120007C0130917D0140917E0150917F01C7016A
:10313000B6010E947FF26B017C01C092660CD092B6
:10314000670CE092680CF092690C10C080917C01D1
:1031500090917D01A0917E01B0917F018093660CDA
:103160009093670CA093680CB093690C40E050E01A
:10317000BA0186E40E944FB220E030E0A9010E942B
:1031800002F4181684F40E947A6E20E030E040E7E2
:1031900052E40E9402F36093120170931301809332
:1031A0001401909315010E9482460C94042880E536
:1031B0000E94DC70882329F00E9472D36B017C018D
:1031C00003C0C12CD12C760183E50E94DC708823DA
:1031D00061F00E947A6E20E030E04AE754E40E94F9
:1031E000CEEB0E947BF36B017C010E949BC180911E
:1031F000260B811105C060E08FE892E00E9459A47F
:103200000E94F289C60ED71EE81EF91E0E94F2899E
:10321000DC01CB018C199D09AE09BF09B7FD02C0C5
:103220000C94042880E00E94E330F0CF87E00E94F5
:10323000244681110C9404288CE0E7E8F1E0DE01DB
:10324000119601900D928A95E1F780E50E94DC705D
:10325000882321F00E94426E862F01C080E0BE01CB
:103260006F5F7F4F0E94669B0C94042887E00E944A
:10327000084681110C941A2860E08FE40E940471C2
:1032800081110C9404280C941A280E94F2896093EE
:10329000100970931109809312099093130980917A
:1032A000130D882311F40C94102A60E08FE40E941F
:1032B000047181110C9404280C94102A0091800D43
:1032C0001091810DF80120813181428153816091FB
:1032D00070017091710180917201909173010E944F
:1032E0007FF2AB01BC0188E50E944FB269837A830B
:1032F0008B839C83F80124813581468157816091BD
:1033000074017091750180917601909177010E940E
:103310007FF2AB01BC0189E50E944FB26D837E83D1
:103320008F839887BE016B5F7F4FCE0101960E940D
:10333000946C882311F40C94042880E00E94A7C99F
:103340000E940A4A61E085E40E94047121E0482F4E
:10335000BE016B5F7F4FCE0101960E94F03E6B0174
:103360007C019B01AC010E9480F4811119C049814C
:103370005A816B817C818BEC92E00E9462CE4D8100
:103380005E816F81788586EC92E00E9462CEB70103
:10339000A60181EC92E00E9462CE8AE00E94B72FE3
:1033A0000E94F1490E94054C0C9404288FE0809300
:1033B00041020C94042893E9292E91E0392E2DE442
:1033C000E22E2CE0F22E20E731E03CA32BA33BEED3
:1033D000C32E32E0D32E00E010E0F10181911F01F5
:1033E0000E94DC70882309F44AC00E947A6E2B0187
:1033F0003C01133049F0F601208131814281538133
:103400000E947EF22B013C01EBA1FCA120813181C5
:1034100042815381C301B2010E947EF24B015C01E3
:103420002DEB37E346E855EB0E9402F487FD0AC016
:103430002DEB37E346E855E3C501B4010E9468EB84
:103440001816ECF4133051F440927C0150927D0137
:1034500060927E0170927F0101E011C0A50194018C
:10346000F70160817181828193810E947FF2F7016F
:103470006083718382839383812F0E9405C61F5FBF
:10348000F4E0EF0EF11C2BA13CA12C5F3F4F3CA3BD
:103490002BA334E0C30ED11C143009F09ECF0023BF
:1034A00021F08CE791E00E947CC40E94054C0C94B2
:1034B000042880911F09813011F00C94042889E4BC
:1034C0000E94DC70E82E882321F00E94766E082F7F
:1034D00001C000E08AE40E94DC70F82E882321F00D
:1034E0000E94766E182F01C010E0EE2011F004301B
:1034F00020F4FF2041F0143030F083ED92E00E9480
:10350000C8CD0C94042880E1E0E7F1E0AAE5BCE036
:1035100001900D928A95E1F7EE2019F1602F000FCE
:10352000770B880B990B0E946FEB2091B30C3091B5
:10353000B40C4091B50C5091B60C0E94CEEB20918A
:10354000DD083091DE084091DF085091E0080E94CC
:103550007FF260935A0C70935B0C80935C0C909399
:103560005D0CFF2019F1612F110F770B880B990B60
:103570000E946FEB2091B70C3091B80C4091B90CC0
:103580005091BA0C0E94CEEB2091E1083091E208F4
:103590004091E3085091E4080E947FF260935E0C32
:1035A00070935F0C8093600C9093610C60E080E5F9
:1035B0000E9404718823C1F1EE20D1F0E091800DCA
:1035C000F091810D208131814281538160915A0CAB
:1035D00070915B0C80915C0C90915D0C0E947EF26E
:1035E00060935A0C70935B0C80935C0C90935D0C11
:1035F000FF20D1F0E091800DF091810D2481358183
:103600004681578160915E0C70915F0C8091600CD7
:103610009091610C0E947EF260935E0C70935F0C3F
:103620008093600C9093610C40E050E0BA0186E416
:103630000E944FB26B017C0120E030E0A9010E94A2
:1036400002F418165CF420E030E040E752E4C701D1
:10365000B6010E9402F36B017C0103C0C12CD12C86
:1036600076018090120190901301A0901401B09007
:10367000150120E030E0A901C701B6010E9468EB06
:10368000882341F0C0921201D0921301E0921401FC
:10369000F0921501009110011091110184E690E063
:1036A0009093110180931001C0901601D0901701E2
:1036B000E0901801F090190180E090E0A0E8BFE3ED
:1036C0008093160190931701A0931801B0931901EC
:1036D0000E9482468092120190921301A0921401DE
:1036E000B09215011093110100931001C0921601C0
:1036F000D0921701E0921801F09219010C9404285D
:103700000E94823E0C9404288091C00B9091C10BC2
:103710008139910509F4F2C508F090C08936910508
:1037200009F4C0C208F051C08D34910509F465C296
:10373000C8F48231910509F408C448F48230910537
:1037400008F435C1419709F46DC10C94DC278B3422
:10375000910509F44AC208F04CC24F9709F47FC1A1
:103760000C94DC278435910509F4EFC300F582350C
:10377000910509F4DAC308F0E0C38135910511F031
:103780000C94DC270E9429870E94534E0E94ACC1F2
:103790000E9434D368EE73E080E090E00E9409CD8F
:1037A00060E089E993E00E9459A40C9404288C35C8
:1037B000910509F428C48836910509F422C285359B
:1037C000910511F00C94DC27F9C38137910509F4B8
:1037D00035C398F48D36910509F43AC238F48B3626
:1037E000910509F4B1C208F471C217C38F3691056F
:1037F00009F4C8C208F4B3C216C38637910509F4A8
:1038000030C560F48337910509F490C408F487C487
:103810008537910509F411C50C94DC27883791058B
:1038200009F45DC508F458C58937910509F45FC5E9
:103830008C38910509F42CC30C94DC278F32E1E01D
:103840009E0711F40C94292608F049C08E3C91057E
:1038500009F49BC6F8F4893C910509F40AC670F492
:103860008E3B910509F435C3883C910509F4BAC52E
:103870008B39910511F00C94DC272FC38C3C9105FA
:1038800009F43CC608F06EC68B3C910509F417C6D6
:103890000C94DC27883121E0920711F40C947024F9
:1038A00070F48C3D910509F485C78D3D910509F4AF
:1038B000C2C7833D910511F00C94DC27B5C68D324B
:1038C000E1E09E0711F40C94652510F00C94E525B9
:1038D0008232914011F40C9407250C94DC27843F2C
:1038E00031E0930711F40C940A2780F58A39F1E04E
:1038F0009F0709F49FC2A8F4813931E0930711F4BE
:103900000C942C268239E1E09E0711F40C943626A3
:103910008039914011F00C94DC270E949BC10C94DB
:103920000428853A21E0920711F40C943B268C3A46
:1039300031E0930711F40C94AE26843A914011F0D3
:103940000C94DC270E94FF6E0C940428883FF1E061
:103950009F0711F40C94192768F4863F31E0930710
:1039600011F40C940D2710F00C9410270E9456D5DA
:103970000C9404288B35F2E09F0711F40C9429274E
:1039800048F48835924011F00C94DC270E9471CFE6
:103990000C9404288335E3E09E0711F40C949F27D0
:1039A000873E934011F40C94CE270C94DC2780E5DD
:1039B0000E94DC70882329F00E9472D36B017C0185
:1039C00003C0C12CD12C760183E50E94DC708823D2
:1039D00061F00E947A6E20E030E04AE754E40E94F1
:1039E000CEEB0E947BF36B017C010E949BC1809116
:1039F000BE0B9091BF0B009739F02091F702211177
:103A000008C00E9411A405C060E08CEE92E00E9404
:103A100059A440E0C701B6010E9475350E94F73DE8
:103A20000C9404288091BA0B84FF02C00C946A2A7B
:103A30008091BC0B87FF02C00C946A2A8091BD0B59
:103A4000837011F00C946A2A60E08FEF92E00E947C
:103A500059A45E985E9815985E980C9404280E946C
:103A6000CB4D7B018C0120E831E541E050E00E9424
:103A7000BEF1C9016DE671E00E943BF24B015C01B1
:103A8000C801B70120E13EE040E050E00E94BEF1F5
:103A9000CA01B90128E130E040E050E00E94BEF1E7
:103AA000762E672EC62ED72E8CE3282E312C412C55
:103AB000512CC801B701A20191010E94BEF1F62E5E
:103AC000E72ECA01B901A20191010E94BEF1CB010A
:103AD0008E010F5F1F4F81149104B9F0EF92FF9296
:103AE0007F936F936F927F92BF92AF929F928F92CC
:103AF00080E393E09F938F931F930F930E9400EBBB
:103B00002DB73EB7225F3F4F47C0A114B104C9F0A3
:103B1000EF92FF927F936F936F927F92BF92AF92DB
:103B200080E293E09F938F931F930F930E9400EB8B
:103B30008DB79EB70C960FB6F8949EBF0FBE8DBF83
:103B400041C0CD28B9F0EF92FF927F936F936F92AF
:103B50007F9284E193E09F938F931F930F930E9432
:103B600000EBEDB7FEB73A960FB6F894FEBF0FBE66
:103B7000EDBF28C0892BB1F0EF92FF927F936F9336
:103B80008CE093E09F938F931F930F930E9400EB21
:103B90002DB73EB7285F3F4F0FB6F8943EBF0FBE1C
:103BA0002DBF10C0EF92FF9288E093E09F938F9318
:103BB0001F930F930E9400EB0F900F900F900F90A8
:103BC0000F900F908091F702811103C0C8010E94ED
:103BD00011A40E9497CEB80184E493E00E9480CEA5
:103BE0008AE00E94B72F0C9404280E941A4E0C946D
:103BF00004280E943E4E0C9404280E94534E0C94BC
:103C000004288091F70783FF02C00C9404280E94C7
:103C100030CF87FF02C00C94042889E40E94DC7036
:103C2000882311F40C947C2A0E94526E90E018169E
:103C3000190614F481E090E026E0289FF001299F06
:103C4000F00D1124ED53F34F808191810C94862A5D
:103C50008091F70783FF02C00C9404280E9430CFA4
:103C6000082F87FF02C00C94042889E40E94DC70AE
:103C7000F82E882311F40C948F2A0E94526E90E043
:103C80001816190614F481E090E026E0289FF00150
:103C9000299FF00D1124ED53F34F8081918110E0A5
:103CA0000C949F2A0E9430CF182F87FD0AC08CE603
:103CB00093E00E94C8CD812F0E9476838AE00E9403
:103CC000B72F3FA1309342020C94212D60E080E594
:103CD0000E94F87081110C94042881E40E94B16E56
:103CE000882329F060913303062F10E002C00FEF04
:103CF00010E089E40E94DC70882399F00E94526EE3
:103D000090E01816190614F481E090E026E0289F50
:103D1000F001299FF00D1124ED53F34F048115811B
:103D200008C083E50E94DC70882319F00E94426E6F
:103D30008B01B8010F3F110519F010F06FEF70E023
:103D4000609333030C94042860E080E50E94F870CF
:103D500081110C940428109233030C9404288EE4EF
:103D60000E94DC70882311F40C9404280E94426E97
:103D70006093470C7093480C8093490C90934A0CC5
:103D80000C94042883E50E94B16E882331F060E032
:103D900083E50E94F8708093F7070E9497CE8DE725
:103DA00093E00E94C8CD8091F707882369F113E75B
:103DB000E12E13E0F12E00E010E020E08091F70703
:103DC00090E0A0E0B0E0002E04C0B695A7959795CE
:103DD00087950A94D2F780FF0EC0DD24D394D20ECB
:103DE000222319F08CE20E94B72FF701859194915C
:103DF0000E94C8CD2D2D0F5F1F4F82E0E80EF11CF1
:103E000005301105D9F604C08FE693E00E94C8CDB5
:103E10008AE00E94B72F0C9404281092240B109271
:103E200041010C94042841E060E070E084E893E0F4
:103E30000E94B8CE0E94E04B0C94042883E50E94B7
:103E4000DC70882381F00E94526E282F30E02D33E1
:103E5000310524F4809300010C9404288CE38093B2
:103E600000010C9404280E9497CEC0900001D12C30
:103E7000E12CF12C82E993E00E94C8CD4AE0C70111
:103E8000B6010E94BE2F8AE00E94B72F0C9404282E
:103E90008091F70783FF02C00C94042889E40E94F4
:103EA000DC70882311F40C94E92A0E94526E90E091
:103EB0001816190614F481E090E026E0289FF0011E
:103EC000299FF00D1124ED53F34F628173810C94FF
:103ED000F32A0E9459B60C94042883E50E94DC70F2
:103EE000882311F40C9404280E94526E182F90E03D
:103EF000CD970CF01CE310933C020E94F2896B01F9
:103F00007C01212F30E0A8EEB3E00E9412F2C60E31
:103F1000D71EE81EF91EC0923802D0923902E092F4
:103F20003A02F0923B020C940428809141028F7D6A
:103F30008061809341020C940428809141028F7E1D
:103F40008062809341020C94042883E50E94DC7017
:103F50008823F1F00E94F28960931009709311098F
:103F600080931209909313090E947A6E20E030E04A
:103F70004AE754E40E94CEEB0E947BF36093010178
:103F80007093020180930301909304010C94042820
:103F90008091BA0B84FF02C00C94062B8091BC0B5D
:103FA00087FF02C00C94062B8091BD0B837011F02B
:103FB0000C94062B0E94ACC10C94042883E50E944B
:103FC000B16E882311F40C9404280E94F289609346
:103FD00010097093110980931209909313090E949C
:103FE0007A6E20E030E04AE754E40E94CEEB0E9473
:103FF0007BF360933D0270933E0280933F02909367
:1040000040020C9404280E9430CF87FF02C00C9419
:1040100004289091BA0B94FD04C09091BC0B97FFBB
:104020000AC0A3E9CA2EA1E0DA2EB8EFEB2EB7E062
:10403000FB2E10E009C09091BD0B937091F7682F93
:1040400081E00E9437D3E0C7F60181916F010E94A1
:10405000DC70882309F459C0133009F04FC00E9466
:104060007A6E4B015C0120E030E040EA51E40E94AE
:1040700068EB87FF3AC0A501940160911808709120
:10408000190880911A0890911B080E9402F32B01D5
:104090003C019B01AC016091280870912908809136
:1040A0002A0890912B080E94CEEB60932808709309
:1040B000290880932A0890932B0860912703709118
:1040C00028038091290390912A030E946DEBA3019C
:1040D00092010E94CEEB0E947BF3609327037093C2
:1040E00028038093290390932A03809218089092C2
:1040F0001908A0921A08B0921B0807C00E947A6E95
:10410000F701648B758B868B978B1F5FF4E0EF0E46
:10411000F11C143009F098CF0E9477C175C70E9436
:10412000923D8BE99DE00E9476656EC783E095E045
:104130000E94C8CD60E083EF94E00E941CBA60E06A
:104140008EED94E00E941CBA61E087ED94E00E943D
:104150001CBA61E08CEC94E00E941CBA61E08CEB2C
:1041600094E00E941CBA60E083EB94E00E941CBAC9
:1041700061E089EA94E00E941CBA61E08FE994E072
:104180000E941CBA60E088E994E00E941CBA61E0D9
:1041900080E994E00E941CBA61E082E894E00E9409
:1041A0001CBA60E084E794E00E941CBA60E085E6F7
:1041B00094E00E941CBA60E087E594E00E941CBA7B
:1041C00060E081E494E00E941CBA60E080E394E047
:1041D0000E941CBA60E081E294E00E941CBA60E098
:1041E0008AE194E00E941CBA60E083E194E00E94BE
:1041F0001CBA60E08EEF93E00E941CBA60E080EF92
:1042000093E00E941CBA61E08DED93E00E941CBA1D
:1042100060E080ED93E00E941CBA60E08BEC93E0DC
:104220000E941CBA61E08EEB93E00E941CBA60E031
:104230008AEA93E00E941CBAE7C68091BE0B909177
:10424000BF0B009759F0FC012081222339F0209107
:10425000F7022111D9C60E9411A4D6C60E94F73DCB
:10426000D3C60091BE0B1091BF0B94E0F12C40E03F
:10427000915029F1F8018081282F2B7F213421F4DE
:1042800021812133E1F408C08035C9F4F80181812E
:1042900080538A3048F013C0813421F0853421F4F2
:1042A00041E002C0FF24F39498012E5F3F4F890143
:1042B0002F5F3F4FF80180818032C9F3D9CF411180
:1042C0000E9497CEFF2021F087ED95E00E94C8CD97
:1042D000C8010E94C23098C60E94984C95C681E0E1
:1042E00080931D0980931C090E94E74C8DC6109293
:1042F0001D0910921C090E94E74C86C660E070E020
:1043000083E50E94E970823038F00E9493CE8AEDF6
:1043100095E00E94C8CD78C68C01112788E40E94E0
:10432000DC708823E1F00E94766E8A3A910544F0B1
:104330000E94766E8530914034F40E94766E05C0FE
:104340008AEA90E002C084E091E026E0209FF0013C
:10435000219FF00D1124ED53F34F9183808382E46C
:104360000E94DC708823D9F00E94766E059744F095
:104370000E94766E8437910534F40E94766E05C0F3
:1043800085E090E002C083E790E026E0209FF00106
:10439000219FF00D1124ED53F34F9383828386E424
:1043A0000E94DC70882309F42FC60E94766E97FD68
:1043B00009C00E94766E8F3F910509F034F40E9487
:1043C000766E05C080E090E002C08FEF90E026E0BE
:1043D000209FF001219FF00D1124ED53F34F9583A1
:1043E000848312C60E9430CF182F87FD0DC600911E
:1043F000180D84E40E94DC70882311F40C942B2B9C
:104400000E947A6E6B017C0120E030E0A9010E94DD
:1044100068EB882341F124E01202F0011124EC5EE4
:10442000F24FC082D182E282F38220E030E0A90123
:104430006091140D7091150D8091160D9091170DCE
:104440000E9468EB81110CC080E090E0A0EEBFE319
:104450008093140D9093150DA093160DB093170D26
:1044600001E00C942B2B80E08093180D0E94D4BFA8
:10447000CBC50E9430CF87FDC7C5E3E9EE2EE1E052
:10448000FE2E08EF17E0F8E0CF2EF8E0DF2EF70160
:1044900081917F010E94B16E882359F00E947A6E4B
:1044A0000E947BF3F80160837183828393830E946F
:1044B00030C10C5F1F4FC016D10649F7A5C50E9439
:1044C00030CF87FDA1C573E9E72E71E0F72E08EF25
:1044D00017E0F70181917F010E94B16E882339F0C6
:1044E0000E947A6EF80164A375A386A397A30C5F5C
:1044F0001F4FF8E008301F0761F786C58091BB0B9E
:1045000087FF02C00C94312B8091BC0B8E7011F090
:104510000C94312B40912C0850912D0860912E085D
:1045200070912F088FEF95E00E9462CE4091300885
:104530005091310860913208709133088CEF95E00A
:104540000E9462CE4091340850913508609136083F
:10455000709137088DE99BE20E9462CE8AE00E944A
:10456000B72F52C58091BA0B81FF02C00C94772BF4
:104570008091BB0B81FF02C00C94772B8091BC0B08
:104580008C7011F00C94772B3FC560E2E62E69E049
:10459000F62E10E088E5810F0E94B16E882351F05D
:1045A0000E947A6EF7016083718382839383812FE7
:1045B0000E9405C61F5FF4E0EF0EF11C133051F7A7
:1045C0008091BC0B87FF02C00C94551A8091BD0BE3
:1045D000837011F00C94551A4091200950912109D3
:1045E00060912209709123098EE296E00E9462CECA
:1045F000409124095091250960912609709127095D
:1046000085E29CE20E9462CE4091280950912909DE
:1046100060912A0970912B0982E29CE20E9462CE8D
:104620008AE00E94B72FF0C44090EB025090EC0259
:104630006090ED027090EE022091260130912701EA
:104640004091280150912901C301B2010E947FF2DB
:104650006BA37CA38DA39EA38090EF029090F002A9
:10466000A090F102B090F20220912A0130912B012A
:1046700040912C0150912D01C501B4010E947FF29F
:1046800068A779A78AA79BA7C090F302D090F402ED
:10469000E090F502F090F60220912E0130912F016A
:1046A0004091300150913101C701B6010E947FF263
:1046B0006CA77DA78EA79FA720913201309133016F
:1046C0004091340150913501C301B2010E947FF243
:1046D0002B013C0120913601309137014091380186
:1046E00050913901C501B4010E947FF24B015C0178
:1046F00020913A0130913B0140913C0150913D01A4
:10470000C701B6010E947FF26B017C010E9497CE27
:1047100081E596E00E94C8CD83E50E94B16E8823B2
:1047200021F00E94666E80932401809124018823E9
:1047300019F089E396E002C085E396E00E94C8CDB7
:1047400089E496E00E94C8CD4BA15CA16DA17EA139
:104750008CE396E00E9462CE48A559A56AA57BA588
:1047600085E29CE20E9462CE4CA55DA56EA57FA568
:1047700082E29CE20E9462CE87E496E00E94C8CD6D
:104780008FE396E00E94C8CDB301A2018CE396E0CE
:104790000E9462CEB501A40185E29CE20E9462CE35
:1047A000B701A60182E29CE20E9462CE8AE00E94EA
:1047B000B72F2AC482E40E94B16E882341F0809111
:1047C000100190911101909306018093050182E5FB
:1047D0000E94B16E882341F08091050190910601FD
:1047E000909311018093100183E50E94DC7088236F
:1047F00031F00E94766E90931101809310018091A8
:10480000BA0B9091BB0BA091BC0BB091BD0B892B47
:104810008A2B8B2B09F0F8C3609110017091110164
:1048200081E696E00E9473CE85E20E94B72F8AE06F
:104830000E94B72FE9C30E9430CFF82E87FDE4C352
:1048400083E50E94DC700F2D0F2C000C110B8823C8
:1048500061F10E94766EF801EE0FFF1FE05BFE4FE4
:1048600091838083000F111F000F111F98012A5E92
:104870003E4F7901BC01990F880B990B0E946FEB99
:104880002AE037ED43E25CE30E94CEEBF801E65903
:10489000F34F20813181428153810E94CEEBF70199
:1048A0006083718382839383AFC30E9497CE85E434
:1048B0000E94B72F80E38F0D0E94B72F000F111FAA
:1048C000F801E05BFE4F6081718185E696E00E9411
:1048D00073CE85E20E94B72F8AE00E94B72F94C35F
:1048E00080E50E94B16E882309F48EC30E94766E23
:1048F0008C01892B09F07FC083E50E94B16E88236B
:1049000089F00E94766E8F3FFFEF9F0729F481E7C1
:104910009DE00E94552D78C3BC0181E79DE00E9477
:10492000042E72C30E9497CE60E070E086E896E0A5
:104930000E9473CE8091730D28E532E06901C81A98
:10494000D10887FDD394CC0CDD1CCC0CDD1C0D2CC8
:10495000000CEE08FF088091720D28E830E0490154
:10496000881A910887FD9394880C991C880C991CCF
:10497000092C000CAA08BB088091710D8F3FC1F073
:1049800090E0FC01EE0FFF1F8E0F9F1FFC01E45B08
:10499000F24F2181328103E0220F331F0A95E1F7A4
:1049A00084E0369527958A95E1F72E5F3F4F02C048
:1049B00020E030E02F5F3F4FC901330FAA0BBB0B44
:1049C0009C01AD01281939094A095B09A4EBB0E043
:1049D0000E94FFF1A7019601281939094A095B09CC
:1049E0000E94E0F1B90183E896E00E9473CE8AE06C
:1049F0000E94B72F09C30E9493CEB8018CE796E0BE
:104A00000E9473CE8DE696E00E94C8CDFDC28AE575
:104A10000E94DC70811105C083E50E94DC70882350
:104A2000C9F10E947A6E20E030E040E050EC0E9434
:104A300068EB87FDBBC60E947A6E20E030E040E064
:104A400050E40E9402F418160CF4AAC60E947A6E72
:104A50006B017C0184E00E940846811111C0209105
:104A60001408309115084091160850911708C70195
:104A7000B6010E94CEEB0E9474F3CB010E94EACCF7
:104A800080E50E94B16E882309F496C60E94666E86
:104A9000811192C68091BC0B87FDB4C68091BD0B7D
:104AA000837009F0AFC60E9497CE40917C0D509163
:104AB0007D0D60917E0D70917F0D8EE896E00E94D5
:104AC00062CE8AE00E94B72F9FC260E085E40E9418
:104AD000F870811173C080E50E94B16E882351F097
:104AE0000E947A6E60932E0D70932F0D8093300D7F
:104AF0009093310D89E40E94B16E882381F00E9469
:104B00007A6E2CEA35EC47E25EE30E94CEEB6093CE
:104B1000320D7093330D8093340D9093350D84E4F2
:104B20000E94B16E882381F00E947A6E2CEA35ECE7
:104B300047E25EE30E9402F36093360D7093370DF7
:104B40008093380D9093390D0E9497CE40912E0D91
:104B500050912F0D6091300D7091310D84EB96E0E6
:104B60000E9462CE2CEA35EC47E25EE36091320DA2
:104B70007091330D8091340D9091350D0E9402F3A8
:104B8000AB01BC0180EB96E00E9462CE2CEA35ECD2
:104B900047E25EE36091360D7091370D8091380DDC
:104BA0009091390D0E94CEEBAB01BC018CEA96E0EE
:104BB0000E9462CE8AE00E94B72F26C20E9493CE46
:104BC00088EB96E00E94C8CD1FC283E50E94B16EBB
:104BD000182F882371F00E947A6E0E9474F37093EC
:104BE0001B0160931A0121E0672B09F020E020935C
:104BF000440380E50E94B16E882359F020911A0188
:104C000030911B01232B11F00E94666E80934403A8
:104C1000FBC11111F9C10E9497CE86EE96E00E9469
:104C2000C8CD80914403882319F08EEC96E002C031
:104C30008AEC96E00E94C8CD60911A0170911B0128
:104C400085ED96E00E9473CE81ED96E00E94C8CD7E
:104C5000DBC10E9466B2D8C18091E50281110C943B
:104C6000551A81E00E9439C00C94551A0E948B6C31
:104C70000E94054CC9C16FEF7FEF89E40E94E97083
:104C8000082F6FEF7FEF8AE40E94E970182F8AE502
:104C90000E94DC70811108C081E50E94DC70D82E72
:104CA000882309F4B5C501C0D12CC02E81E0800F46
:104CB000853008F04CC0912E81E0810F853008F0DE
:104CC00046C00E947A6E2B013C01F02E07FDF12CAC
:104CD00007FF02C0F3E0CF2E812E17FD812C17FFB6
:104CE00002C0E3E09E2ECF1408F48EC1E82C24E02D
:104CF000F29E500111249E1440F10E2D10E0DD2093
:104D000071F0F501E00FF11FEE0FFF1FEE0FFF1F17
:104D1000E153F34F208131814281538103C020E070
:104D200030E0A9010A0D1B1D000F111F000F111FFC
:104D30000153134FC301B2010E947FF2F801608357
:104D4000718382839383E394D6CFF394CCCF0E9474
:104D500093CE89E197E00E94C8CD56C187E00E94BA
:104D60002446811151C10DE718E220E731E03CA350
:104D70002BA3CE0101961C0146ECC42E48E2D42E92
:104D80007C01C8010E9482D3EBA1FCA1819091908B
:104D9000A190B190FCA3EBA3A50194010E947EF227
:104DA0002B013C01F701608371838283938320E0B0
:104DB00030E040EA51EC0E9402F487FD0AC020E096
:104DC00030E040EA51E4C301B2010E9468EB1816DA
:104DD0002CF4F601849118160CF421C5F70181908A
:104DE0009190A190B1907F0120E030E040EA51EC39
:104DF000C501B4010E9402F487FD1BC520E030E02C
:104E000040EA51E4C501B4010E9468EB18160CF0A9
:104E10001EC50FC50E94FE76F7C00E9417D4F4C0CD
:104E200061E083E50E94047191E089270E9464D5C6
:104E3000EBC02093AE0C0E94D87B1092AE0C88235E
:104E400009F4E2C00E9497CE8EE697E00E94C8CD9A
:104E5000DBC00E9430CFD82E87FDD6C085E50E94EA
:104E6000B16E882399F1ED2C0D2C000CFF080E94E7
:104E70007A6E4B015C0120E030E0A9010E9402F44F
:104E800087FF04C0B7FAB094B7F8B094870123E065
:104E9000000F111F2A95E1F70554134FF801808286
:104EA0009182A282B38220E030E048E453E4C5015D
:104EB000B4010E9402F418164CF480E090E0A8E4DB
:104EC000B3E4F80180839183A283B3838CE40E94CE
:104ED000B16E882309F498C00D2DDD0C110B0E94D2
:104EE0007A6E6B017C0120E030E0A9010E9402F49F
:104EF00087FF04C0F7FAF094F7F8F09420E030E070
:104F000048E453E4C701B6010E9402F4980193E01B
:104F1000220F331F9A95E1F7F901E554F34F181664
:104F20002CF0C482D582E682F7826EC080E090E0E9
:104F3000A8E4B3E484839583A683B78365C0809196
:104F4000BC0B87FDAEC48091BD0B837009F0A9C472
:104F50000091800D1091810DF80140815181628195
:104F6000738189EC97E00E9462CEF80144815581FB
:104F70006681778185E29CE20E9462CE40917C0D41
:104F800050917D0D60917E0D70917F0D82E29CE2CB
:104F90000E9462CE8AE00E94B72F36C081E08093E3
:104FA0001F091092F70260E083E50E9404718111ED
:104FB0002BC00E9451B828C00E94823E25C000919B
:104FC000C00B1091C10B0E94F2896093100970937D
:104FD000110980931209909313090023A9F00E94EC
:104FE00097CE84E50E94B72FB801772780E090E044
:104FF0000E942B3080E20E94B72F88ED97E00E943C
:10500000C8CD02C00E94823EF8A9F1110FC0E09104
:10501000EE0AF0E0E551F24F8081882339F08EEA04
:1050200095E20E94C8CD8AE00E94B72F2FA120935D
:10503000420207C50E949BC1109225016091130D89
:105040008CE40E940471D82E80E00E94A7C90E94BF
:10505000F28960931009709311098093120990935B
:1050600013090E940A4A81E080931D090E94E74CBF
:105070008AE50E94B16EE82E8823A1F081E00E94AB
:105080000846182F82E00E94084601E0811101C005
:1050900000E01111ADC188E50E94B16EF82E8111BA
:1050A000A7C102C000E0F7CF0111ABC189E50E94A2
:1050B000B16E182F8013A0C1E012A0C111E0FF242F
:1050C000F39401E082E50E94DC70882319F00E94CD
:1050D0007A6E04C060E070E080EA90E46F8F78A39D
:1050E00089A39AA320E030E0A9010E9468EB8823FD
:1050F000C9F0F11005C0111103C0002309F467C104
:105100008091E40290E0A0E0B0E052E0B695A7956F
:10511000979587955A95D1F7682F6170CE014F9674
:105120000E94903EFF2009F4A5C0112309F49FC0FE
:10513000109270011092710110927201109273011D
:1051400010927401109275011092760110927701FD
:105150000E94DE4BE6ECF8E2F4908EEA98E20E94C0
:1051600082D34B015C0182EB98E20E9482D32B0137
:105170003C019B01AC01C501B4010E9402F4181668
:105180002CF4A5019401C301B20104C0A301920152
:10519000C501B4010E9402F39B01AC010E94CEEB59
:1051A00020E030E040E85FE30E947FF20E9440F49C
:1051B00020E030E048E452E40E94CEEB6B8F7C8F1D
:1051C0008D8F9E8FE7ECF8E2E49020E030E040EC39
:1051D0005FE3C301B2010E94CEEB2B013C016E2DB7
:1051E000EE0C770B880B990B0E946FEB9B01AC01C7
:1051F000C301B2010E94CEEB69837A838B839C83C7
:1052000020E030E040EC5FE3C501B4010E94CEEB4A
:105210004B015C016F2DFF0C770B880B990B0E94E3
:105220006FEB9B01AC01C501B4010E94CEEB6F8B0B
:10523000788F898F9A8FAE01455E5F4FBE016F5F99
:105240007F4FCE0147960E94E44A0E94F64C10928E
:1052500070011092710110927201109273011092FC
:10526000740110927501109276011092770180E01E
:105270000E9425C6112319F081E00E9425C6002353
:1052800009F4A5C080E00E944CCD83E00E94244632
:1052900081119DC00E94DE4B20912009309121098F
:1052A000409122095091230960E070E08CED92E476
:1052B0000E947EF24B015C01209124093091250966
:1052C000409126095091270960E070E08CED92E44E
:1052D0000E947EF22B013C0180917801909179012E
:1052E000A0917A01B0917B018093620C9093630C42
:1052F000A093640CB093650C0091800D1091810D0A
:10530000F8012081318142815381C501B4010E949D
:105310007EF24B015C0160935A0C70935B0C80939E
:105320005C0C90935D0CF801248135814681578196
:10533000C301B2010E947EF22B013C0160935E0C1E
:1053400070935F0C8093600C9093610C27E137EBB6
:1053500041ED58EB0E9402F487FD56C027E030E093
:105360004CE553E4C301B2010E9468EB18160CF43B
:105370004BC027E137EB41ED58EBC501B4010E946A
:1053800002F487FD41C027E030E04CE553E4C5015D
:10539000B4010E9468EB1816BCF11F8A188E198E92
:1053A0001A8E88E0EAE5FCE0DE01119601900D928C
:1053B0008A95E1F7AE01495E5F4FBE016B5F7F4F9B
:1053C000CE0101960E94E44A82E00E9425C60E9416
:1053D000DE4B80911C0980931D098D2D0E94A7C969
:1053E0000E94F14983E080930B010E94054C0CCE92
:1053F000011162CE01E05ACEF02E04C0102FF02E23
:1054000001C0102F0E2D5ECE60E08AEA92E00E946D
:1054100059A40E9497CE88E992E00E94C8CDD7CFC8
:105420008EE40E94B16E882309F44CC06090E702BC
:105430007090E8024BEBE42E42E0F42E8DB69EB65F
:105440006AE070E0C7010E94A4EA6C01009721F0B5
:105450008C010E191F0904C0C7010E94B6EA8C0115
:10546000C80101962DB73EB7281B390B0FB6F8942B
:105470003EBF0FBE2DBF8DB79EB701965C01A80140
:10548000B7010E94D7EAF501E00FF11F1082C501B4
:105490000E94AAB881E00E94C917C114D10451F03A
:1054A00076019FEFE91AF90A0FB6F8949EBE0FBE77
:1054B0008DBEC4CF0FB6F8949EBE0FBE8DBEC30185
:1054C0000E94AAB887E00E94244681119DCD0E94C7
:1054D00019719ACD88E50E94B16E81115E9889E5B7
:1054E0000E94B16E81115E988AE50E94B16E882398
:1054F00009F48ACD159888CD83E50E94DC70882355
:1055000059F00E947A6E0E9474F3CB010E94668368
:1055100061E080E00E9410870E94C2E575CD83E5BE
:105520000E94DC70182F811105C082E50E94DC709A
:10553000882349F10E947A6E0E9474F3CB010E9485
:10554000668361E081E00E94108760912B0D70916D
:105550002C0D072E000C880B990B0E946FEB6B0132
:105560007C018090270D9090280DA090290DB0907F
:105570002A0DA50194010E9402F418163CF1112392
:1055800061F0FF24F3940E94C2E5FF2009F43CCDB2
:10559000612F802F0E94E88337CDA5019401C701B8
:1055A000B6010E9402F418168CF081E593E09F93F7
:1055B0008F9387E693E09F938F931F920E9440A45E
:1055C0000F900F900F900F900F90DBCF8CE593E032
:1055D000EECF83E50E94DC70882309F415CD0E948C
:1055E0007A6E0E9474F3633771056CF4962F872FDF
:1055F00090930D0980930E090E94938161E080E0F1
:105600000E94108701CD93E780E0F2CF0E949BC1FA
:1056100088E50E94B16E882331F05E9A8091E402A1
:105620008E7F8093E40289E50E94B16E882331F079
:105630005E9A8091E4028D7F8093E4028AE50E9465
:10564000B16E882309F4E0CC159A8091E4028B7F37
:105650008093E402D9CC602F83E50E9404710C94FE
:10566000342283E50E94DC70882391F00E947A6ED8
:1056700060932C0870932D0880932E0890932F0828
:1056800060933408709335088093360890933708F8
:1056900080E50E94DC70882351F00E947A6E60934E
:1056A0002C0870932D0880932E0890932F0882E584
:1056B0000E94DC70882351F00E947A6E609330085B
:1056C00070933108809332089093330884E50E94E8
:1056D000DC70882309F498CC0E947A6E60933408B9
:1056E0007093350880933608909337088DCC82E408
:1056F0000E94B16E882351F00E9472D36093080813
:105700007093090880930A0890930B0883E50E9420
:10571000B16E882351F00E947A6E609338087093BE
:10572000390880933A0890933B0884E50E94B16E53
:10573000882351F00E947A6E60933C0870933D0874
:1057400080933E0890933F088AE40E94B16E8823BC
:1057500009F45ACC0E947A6E6B017C012AE037ED85
:1057600043E25CE30E9402F487FD13C02AE939E9B1
:1057700049E95EE3C701B6010E9468EB18164CF0D8
:10578000C0921703D0921803E0921903F0921A0303
:105790003BCC0E9493CE8FE096E00E94C8CD34CCE3
:1057A000C12CD12CE12CB0E4FB2E54C9C12CD12C3E
:1057B000E12CA0ECFA2E4EC9A701960160917C0D58
:1057C00070917D0D80917E0D90917F0D0E947FF2F2
:1057D00060937C0D70937D0D80937E0D90937F0D73
:1057E0000E9497CE40917C0D50917D0D60917E0D71
:1057F00070917F0D8DE996E00E9462CE8AE00E9452
:10580000B72F48C982E50E94B16E81114CC9FCCB0B
:105810000E9493CE89EF96E00E94C8CDF5CBB7FAEF
:10582000B094B7F8B094F70180829182A282B382DB
:10583000D5CA0E9493CE80E597E00E94C8CD61E072
:1058400082E497E00E9459A40E94B8A0DDCB0C5FCF
:105850001F4FFFEFCF1ADF0A29E838E22017310780
:1058600009F08FCA30E2E32E39E0F32E10E0F101A7
:1058700081919191A191B1911F01F7018193919330
:10588000A193B1937F01812F0E9405C61F5F133042
:1058900071F70E94054C60E082E397E00E9459A4F2
:1058A000B3CBF091740DFBA38090750D7090760DC5
:1058B0006090770D5090780D4090790D30907A0D72
:1058C00020907B0DC0907C0DD0907D0DE0907E0DE2
:1058D000F0907F0D88E50E94DC70882361F10E94C2
:1058E0007A6E5B018C0120E030E04CE553EC0E94C5
:1058F00002F487FD0AC020E030E04CE553E4B50136
:10590000C8010E9468EB181694F46CED70E086EB09
:1059100097E00E9473CE6CED70E081EB97E00E94FF
:1059200073CE8EEA97E00E94C8CD10E005C0ABA20E
:105930008B2C702E612E11E089E50E94DC7088238B
:1059400081F10E947A6E962EA72EB82E092F20E0A4
:1059500030E04CE553EC0E9402F487FD0CC020E0DF
:1059600030E04CE553E4692D7A2D8B2D902F0E9469
:1059700068EB181694F46CED70E08BE997E00E94E8
:1059800073CE6CED70E086E997E00E9473CE83E9F8
:1059900097E00E94C8CD10E004C0592C4A2C3B2C43
:1059A000202E8AE50E94DC70882339F10E947A6EED
:1059B0006B017C0120E030E040EA51EC0E9402F4EF
:1059C00087FD0AC020E030E040EA51E4C701B6019B
:1059D0000E9468EB18168CF46CEE7FEF81E897E07C
:1059E0000E9473CE64E170E08CE797E00E9473CE72
:1059F00089E797E00E94C8CD07CB112309F404CBB7
:105A00008BA1982DA72DB62D8093740D9093750DB5
:105A1000A093760DB093770D852D942DA32DB22DE7
:105A20008093780D9093790DA0937A0DB0937B0DB0
:105A3000C0927C0DD0927D0DE0927E0DF0927F0D94
:105A4000E3CA29A93AA90FB6F8943EBF0FBE2DBFED
:105A5000E2960FB6F894DEBF0FBECDBFDF91CF91B7
:105A60001F910F91FF90EF90DF90CF90BF90AF907C
:105A70009F908F907F906F905F904F903F902F906E
:105A800008955E9A8091E4028E7F8093E4025E9A8C
:105A90008091E4028D7F8093E402159A8091E40264
:105AA0008B7F8093E4025E9A0895DC01EC91F0E034
:105AB000CF01880F991FE80FF91FE45BF24F808137
:105AC0008F77808308958F929F92AF92BF92CF92EB
:105AD000DF92EF92FF920F93CF93DF931F92CDB798
