:100000000C9433160C945D160C945D160C945D16CE
:100010000C945D160C945D160C945D160C945D1694
:100020000C945D160C945D160C945D160C945D1684
:100030000C945D160C94C8D50C945D160C945D164A
:100040000C945D160C94579D0C947DA00C945D1639
:100050000C9497360C948D360C945D160C945D16AA
:100060000C945D160C945D160C945D160C945D1644
:100070000C945D160C945D160C945D160C945D1634
:100080000C94332F0C945D160C945D16F23DD53D07
:10009000D83DF53DDB3DDE3DE13DED3DE43D003E3F
:1000A000E73DEA3D0CA3CBA102A248A302A202A213
:1000B00002A202A202A202A202A202A202A202A220
:1000C00002A202A202A202A202A202A202A202A210
:1000D00002A202A202A202A202A202A202A202A200
:1000E00042A302A202A202A202A202A202A202A2AF
:1000F00002A21BA302A202A202A202A202A202A2C6
:1001000002A202A202A202A25FA3FFA170C473C452
:1001100066C46AC48AC48AC477C47BC481C485C4E3
:100120002CC831C836C840C86EC86EC84AC852C844
:100130005AC864C84E414E494E495459494E46CD5D
:10014000CCCC3D0AD7233C17B7D13877CC2B32958E
:1001500095E6241FB14F0A000020410000C842006C
:10016000401C4620BCBE4CCA1B0E5AAEC59D740036
:10017000407A10F35A00A0724E18090010A5D4E876
:100180000000E87648170000E40B54020000CA9A09
:100190003B000000E1F5050000809698000000405B
:1001A000420F000000A086010000001027000000A0
:1001B00000E803000000006400000000000A0000E6
:1001C0000000000100000000002C76D888DC674F9A
:1001D0000823DFC1DFAE59E1B1B796E5E3E453C6CA
:1001E0003AE651997696E8E6C28426EB898C9B62C2
:1001F000ED407C6FFCEFBC9C9F40F2BAA56FA5F46C
:1002000090055A2AF75C936B6CF9676DC11BFCE093
:10021000E40D47FEF520E6B500D0ED902E030094E6
:100220003577050080841E080000204E0A0000007B
:10023000C80C333333330F986E12831141EF8D2185
:1002400014893BE65516CFFEE6DB18D1844B381BEC
:10025000F77C1D901DA4BBE424203284725E2281B1
:1002600000C9F124ECA1E53D27434F4D4D554E49C2
:10027000434154494F4E0044525952554E00455245
:10028000524F525300494E464F004543484F006F6E
:100290006B003F5A206F7574206F662072616E6725
:1002A000652028003F59206F7574206F66207261A9
:1002B0006E676520282D0020746F20003F58206F46
:1002C0007574206F662072616E676520282D00505E
:1002D000726F6265204F66667365742058004545ED
:1002E00050524F4D204F4B0A004F66667365747332
:1002F000204170706C696564004572723A20546FD9
:100300006F206661722100546F6F206661722066F3
:10031000726F6D207265666572656E636520706FC1
:10032000696E740A004D34323120696E636F7272E7
:1003300065637420706172616D6574657220757398
:100340006167650A006469730043290A0061626C91
:10035000656420286D696E2074656D702000436FA0
:100360006C642065787472756465732061726520B1
:100370000020643A0020693A0020703A00496E7605
:10038000616C69642065787472756465720A0050E6
:10039000726F6265204F6666736574205A00205341
:1003A0006572766F200020466C6F773A20004652C7
:1003B0003A0020204D61783A200020204D696E3AA5
:1003C0002000536F667420656E6473746F70733AA7
:1003D00020003F4A206F7574206F662072616E673F
:1003E000652028302E303120746F20302E33290ABA
:1003F00000205400205200416363656C6572617493
:10040000696F6E3A2050004D31343520533C696E8F
:100410006465783E206F7574206F662072616E6728
:10042000652028302D31290A002F2F200043484114
:100430004D4245525F54454D5045524154555245E9
:1004400000424142595354455050494E4700415291
:100450004353004D4F54494F4E5F4D4F4445530059
:10046000544845524D414C5F50524F5445435449B6
:100470004F4E004C4F4E475F46494C454E414D450F
:10048000004155544F5245504F52545F53445F53AF
:100490005441545553005344434152440050524F29
:1004A0004D50545F535550504F525400454D455296
:1004B00047454E43595F50415253455200434153C3
:1004C000455F4C494748545F4252494748544E455E
:1004D000535300544F47474C455F4C49474854538A
:1004E00000534F4654574152455F504F57455200B5
:1004F0004255494C445F50455243454E54004C458B
:1005000056454C494E475F44415441005A5F505252
:100510004F42450052554E4F5554004155544F4C93
:100520004556454C005052494E545F4A4F42005088
:10053000524F4752455353004155544F5245504F27
:1005400052545F54454D5000564F4C554D455452F2
:1005500049430042494E4152595F46494C455F5418
:1005600052414E534645520053455249414C5F5803
:100570004F4E5F584F4646004649524D57415245EF
:100580005F4E414D453A4D61726C696E20627567F0
:100590006669782D322E302E7820284F6374202003
:1005A0003120323032302031313A31333A30322951
:1005B00020534F555243455F434F44455F55524C7E
:1005C0003A68747470733A2F2F6769746875622E75
:1005D000636F6D2F4D61726C696E4669726D7761E4
:1005E00072652F4D61726C696E2050524F544F43AB
:1005F0004F4C5F56455253494F4E3A312E30204DA5
:10060000414348494E455F545950453A456E6465EB
:10061000722D352050726F20455854525544455222
:100620005F434F554E543A3120555549443A63651E
:100630006465326132662D343161322D343734389D
:100640002D396231322D63353563363266333637B4
:1006500066660A00456E6465722D352050726F2003
:100660004F46462E004D3131332053004D3131324B
:100670002053687574646F776E006F66660044453A
:100680004255473A00452025530050726F74656308
:100690007465642050696E0A00496E76616C696405
:1006A0002050696E204D6F64650A00256979202508
:1006B0006964202569682025696D202569730050CB
:1006C00072696E742074696D653A20004E6F204D1A
:1006D0006F76652E00436C69636B20746F205265E2
:1006E00073756D652E2E2E004D65736820706F69D1
:1006F0006E74206F7574206F662072616E67650A74
:10070000005A2050726F62652050617374204265F8
:10071000640A005A2050726F626520506173742021
:1007200042656400536C6565702E2E2E0000005CDF
:100730004300005C43000000008A0285027E0277CD
:100740000269020000484200004842000080400068
:10075000005C4300005C43000096430101FF4572CA
:10076000726F722077726974696E6720746F2045AA
:100770004550524F4D210A004D343130004D31313A
:1007800032004D313038004E6F20436865636B7323
:10079000756D2077697468206C696E65206E756D63
:1007A0006265722C204C617374204C696E653A202E
:1007B00000636865636B73756D206D69736D61743B
:1007C00063682C204C617374204C696E653A20007C
:1007D0004C696E65204E756D626572206973206E7E
:1007E0006F74204C617374204C696E65204E756D7A
:1007F0006265722B312C204C617374204C696E65DC
:100800003A20004D313130002121204B494C4C2001
:1008100063617573656420627920746F6F206D75F4
:10082000636820696E6163746976652074696D65BB
:10083000202D2063757272656E7420636F6D6D611B
:100840006E643A2000627573793A20706175736541
:100850006420666F7220696E7075740A0062757329
:10086000793A2070617573656420666F72207573C4
:1008700065720A00627573793A2070726F636573EE
:1008800073696E670A00506C656173652052657309
:100890006574005052494E5445522048414C5445CD
:1008A000440025533A202553004B494C4C45442ED7
:1008B00020005072696E7465722068616C746564A2
:1008C0002E206B696C6C28292063616C6C65642137
:1008D0000A006563686F3A004572726F723A000FE2
:1008E000150E1216170E1303021A1401000E0DFF37
:1008F000180C040C1900014C6F616420536574746A
:10090000696E67730053746F726520536574746900
:100910006E677300416476616E636564205365742D
:1009200074696E677300554E4C4F41442046494CE4
:10093000414D454E540046494C414D454E5420438F
:1009400048414E47450053746F77004465706C6FA3
:10095000790053572D4D6F64650053656C662D54B7
:1009600065737400526573746F72652044656661C7
:10097000756C747300424C546F756368004D37306A
:100980003220542564004D3630302042302054252A
:1009900064004D373032203B2564004D3730312024
:1009A00054256400436F6E74696E756500507572EE
:1009B0006765206D6F726500524553554D45204F58
:1009C0005054494F4E533A005052494E54205041D2
:1009D000555345440020204E6F7A7A6C653A2000CA
:1009E000313235004245443A204550434F5320317F
:1009F00030304B0052756E617761792057617463B6
:100A0000683A204F4E004D61782054656D70003279
:100A10003735004D696E2054656D700045313A20C0
:100A20004550434F53203130304B00505355004711
:100A3000656E657269630050726F746F636F6C00EE
:100A4000312E300042617564003131353230300072
:100A50004D656C7A692028437265616C69747929E7
:100A6000005061726B696E672E2E2E000000576178
:100A7000697420666F720066696C616D656E7420C2
:100A80006368616E676500746F20737461727400CF
:100A90005761697420666F720066696C616D656E7E
:100AA0007420756E6C6F616400004E6F7A7A6C65AD
:100AB0002068656174696E6700506C6561736520BC
:100AC000776169742E2E2E00005072657373206258
:100AD0007574746F6E00746F2068656174206E6F3A
:100AE0007A7A6C650000496E736572742066696C71
:100AF000616D656E7400616E642070726573732041
:100B0000627574746F6E00746F20636F6E74696EBB
:100B10007565005761697420666F720066696C6163
:100B20006D656E74206C6F61640000507265737344
:100B300020427574746F6E00746F20726573756DEA
:100B400065207072696E7400005761697420666F69
:100B500072207072696E7400746F20726573756DA7
:100B6000652E2E2E00005761697420666F72006634
:100B7000696C616D656E7420707572676500004800
:100B80006F6D652025732573257320466972737414
:100B9000005761726E696E673A20486F6D696E67C3
:100BA0002042756D702044697669736F72203C2015
:100BB000310A000202040000A0400000A040000032
:100BC000004050726F62696E6720506F696E7400EA
:100BD00025532025692F25690050726F62696E6761
:100BE000206D65736820706F696E74200020284442
:100BF000525952554E2900473239204175746F20A1
:100C0000426564204C6576656C696E67003F2028FC
:100C10004C2C522C462C4229206F7574206F662074
:100C2000626F756E64732E0A003F285629657262E2
:100C30006F7365206C6576656C20696D706C61758D
:100C40007369626C652028302D34292E0A004261B8
:100C500064205A2076616C75650A004E6F206269C7
:100C60006C696E65617220677269640A00204D3993
:100C700032205800507265737320627574746F6E01
:100C800020746F2068656174206E6F7A7A6C650AD3
:100C900000496E736572742066696C616D656E746F
:100CA00020616E6420707265737320627574746F56
:100CB0006E0A004C6F6164206D6D00556E6C6F6143
:100CC00064206D6D0046696C2E204469612E0045DC
:100CD00020696E206D6DC2B3004D33303320553125
:100CE00020452569205325690050494420417574E9
:100CF0006F74756E65202A005049442D44202A00E7
:100D00005049442D49202A005049442D50202A00A2
:100D100020082046616374002008204D617800207F
:100D200008204D696E004175746F74656D70002008
:100D3000746F6F206C6F6E6720657874727573695D
:100D40006F6E2070726576656E7465640A0020634C
:100D50006F6C6420657874727573696F6E20707241
:100D60006576656E7465640A00DB0FC93F45BCDAC1
:100D70003F8FB30240FCF0274056946140FE4B9BEE
:100D80004084A5D840E0231841346A5641E8599779
:100D90004164DBD5416E271742B4B75542CE1A974E
:100DA00042C8AED542B5885A43D40684BFA65FA7D1
:100DB000BF7443E0BF10B11AC01C2C58C0E8F697AE
:100DC000C0B849D6C04E4E17C124D355C180249710
:100DD000C1A0B5D5C1121A17C244AE55C278179733
:100DE000C26CACD5C267885AC320436F756E74203D
:100DF000583A00453100626564002C2073797374A1
:100E0000656D2073746F707065642120486561742E
:100E100065725F49443A200048656174696E6720D5
:100E20004661696C65640048656174696E67206637
:100E300061696C65640024F4D43050C38E20C2A272
:100E40004017828B7011127A910D816CD90AA861BA
:100E5000E108C7586607615143061E4B5D05C14551
:100E6000A7041A411104093D980371393103403632
:100E7000DB0265339102D4305402802E1D02632CB4
:100E8000EE01752AC501B028A001102781018F2528
:100E900064012B244B01E0223401AC211F018D2081
:100EA0000D01801FFC00841EED00971DDF00B81CA3
:100EB000D200E61BC600201BBC00641AB200B219A7
:100EC000A8000A19A0006A189900D11791004017CC
:100ED0008B00B516840031167E00B31579003A15E3
:100EE0007300C7146F0058146A00EE13660088136D
:100EF000630025135E00C7125B006C1257001512C9
:100F00005400C111510070114F0021114B00D61037
:100F100049008D1047004610440002104200C00FE7
:100F20004000800F3E00420F3C00060F3B00CB0EFE
:100F30003800930E37005C0E3500270E3400F30D99
:100F40003200C10D3100900D3000600D2E00320DC9
:100F50002D00050D2C00D90C2B00AE0C2900850CA2
:100F600029005C0C2700350C27000E0C2600E80B2E
:100F70002400C40B2400A00B23007D0B23005A0B7C
:100F80002100390B2100180B2000F80A1F00D90A94
:100F90001E00BB0A1E009D0A1D00800A1D00630A78
:100FA0001C00470A1B002C0A1B00110A1A00F70933
:100FB0001A00DD091900C4091900AB0919009209CA
:100FC00017007B091800630917004C091600360941
:100FD0001600200916000A091500F5081500E0089A
:100FE0001400CC081400B8081400A40814009008D9
:100FF00013007D0812006B08130058081200460801
:101000001200340811002308110012081100010811
:101010001100F0071000E0071000D0071000C00713
:101020001000B0070F00A107100091070E00830702
:101030000F0074070F0065070E0057070E004907E1
:101040000E003B070D002E070E0020070D001307B2
:101050000D0006070D00F9060C00ED060D00E00678
:101060000C00D4060C00C8060C00BC060C00B00630
:101070000C00A4060B0099060C008D060B008206DE
:101080000B0077060B006C060B0061060A00570682
:101090000B004C060A0042060A0038060A002E061B
:1010A0000A0024060A001A060A00100609000706AC
:1010B0000A00FD050900F4050900EB050900E20539
:1010C0000900D9050900D0050900C7050900BE05BA
:1010D0000900B5050800AD050800A50509009C0537
:1010E0000800940508008C050800840508007C05AC
:1010F0000800740508006C050700650508005D051B
:101100000700560508004E05070047050700400583
:10111000080038050700310507002A0507002305E8
:1011200007001C050600160507000F050700080547
:10113000060002050700FB040600F5040700EE04A4
:101140000600E8040600E2040700DB040600D504FC
:101150000600CF040600C9040600C3040600BD044F
:101160000600B7040600B1040500AC040600A6049E
:101170000600A00405009B040600950405009004E9
:1011800006008A04050085040500800406007A0430
:10119000050075040500700405006B040500660475
:1011A0000500610405005C040500570405005204B5
:1011B00005004D04050048040500430405003E04F5
:1011C00004003A04050035040500300404002C0432
:1011D000050027040400230405001E0404001A046B
:1011E000040016040500110404000D0404000904A1
:1011F00005000404040000040400FC030400F803D8
:101200000400F4030400F0030400EC030400E8030A
:101210000400E4030400E0030400DC030400D8033A
:101220000400D4030400D0030400CC030400C8036A
:101230000300C503030024F404D9201BC40C5C0E76
:101240009804C4095F0265077101F405F900FB0405
:10125000B30048048700C103690058035500030325
:101260004500BE023A008402310053022A002902DE
:10127000250004022000E4011C00C8011900AF0190
:10128000170098011400840113007101100061011E
:10129000100051010E0043010D0036010B002B011F
:1012A0000B0020010B00150109000C0109000301CE
:1012B0000800FB000800F3000800EB000700E40052
:1012C0000600DE000600D8000600D2000600CC00B2
:1012D0000500C7000500C2000500BD000400B900FC
:1012E0000400B5000400B1000400AD000400A90032
:1012F0000400A5000300A20003009F0004009B005F
:101300000300980003009500020093000300900082
:1013100003008D0002008B0003008800020086009D
:10132000020084000300810002007F0002007D00B3
:1013300002007B00020079000200770001007600C5
:1013400002007400020072000100710002006F00D0
:1013500002006D0001006C0002006A0001006900DB
:1013600002006700010066000100650001006400E2
:1013700002006200010061000100600001005F00E6
:1013800002005D0001005C0001005B0001005A00EA
:1013900001005900010058000100570001005600EB
:1013A00001005500010054000100530000005300EB
:1013B00001005200010051000100500001004F00E7
:1013C00001004E0000004E0001004D0001004C00E5
:1013D00001004B0000004B0001004A0001004900E1
:1013E00001004800000048000100470001004600DD
:1013F00000004600010045000000450001004400D7
:1014000001004300000043000100420000004200D0
:1014100001004100000041000100400001003F00C8
:1014200000003F0001003E0000003E0001003D00C2
:1014300000003D0001003C0000003C0000003C00BA
:1014400001003B0000003B0001003A0000003A00B0
:1014500001003900000039000100380000003800A8
:10146000000038000100370000003700010036009E
:101470000000360000003600010035000000350095
:10148000000035000100340000003400000034008A
:10149000010033000000330000003300010032007F
:1014A0000000320000003200010031000000310075
:1014B000000031000100300000003000000030006A
:1014C00001002F0000002F0000002F0000002F005F
:1014D00001002E0000002E0000002E0001002D0053
:1014E00000002D0000002D0000002D0001002C0048
:1014F00000002C0000002C0000002C0001002B003C
:1015000000002B0000002B0000002B0001002A002F
:1015100000002A0000002A0000002A000100290023
:101520000000290000002900000029000000290017
:10153000010028000000280000002800000028000A
:1015400000002800010027000000270000002700FD
:1015500000002700000027000100260000002600F0
:1015600000002600000026000000260001002500E3
:1015700000002500000025000000250000002500D7
:1015800000002500010024000000240000002400C9
:1015900000002400000024000100230000002300BC
:1015A00000002300000023000000230000002300AF
:1015B00000002300010022000000220000002200A1
:1015C0000000220000002200000022000100210093
:1015D0000000210000002100000021000000210087
:1015E0000000210000002100010020000000200078
:1015F000000020000000200000002000000020006B
:10160000000020000000200001001F0000001F005B
:1016100000001F0000001F0000001F0000001F004E
:1016200000001F0001001E0000001E0000001E0040
:1016300000001E000000043700001E290000511B9E
:1016400000005810000010090000CC0400007802CF
:1016500000004101000042696C696E656172204CB6
:101660006576656C696E6720477269643A0A005353
:10167000544F505045442E20005072696E7465726C
:101680002073746F707065642064756520746F20BA
:101690006572726F72732E204669782074686520B7
:1016A0006572726F7220616E6420757365204D39AA
:1016B000393920746F20726573746172742E20281A
:1016C00054656D70657261747572652069732072FE
:1016D000657365742E205365742069742061667487
:1016E00065722072657374617274696E67290A008D
:1016F00021212053544F502063616C6C656420623B
:10170000656361757365206F6620424C546F756325
:1017100068206572726F72202D2072657374617219
:10172000742077697468204D3939390A00486F741C
:10173000656E6420746F6F20636F6C640A004F469F
:10174000460A004661646520486569676874200040
:10175000426564204C6576656C696E672000466161
:10176000696C656420746F20656E61626C652042EF
:101770006564204C6576656C696E670A00496E7613
:10178000616C6964206D6573682E0A00436F6E6634
:10179000696775726174696F6E004D6F74696F6E01
:1017A0000042696C696E656172204C6576656C6992
:1017B0006E670045787472756465727300456E6477
:1017C00065722D352050726F00323032302D303935
:1017D0002D333000546865726D6973746F727300D5
:1017E000426F61726420496E666F005072696E7458
:1017F000657220496E666F004368616E67652046BA
:10180000696C616D656E7400507265686561742005
:10181000437573746F6D004261636B0041626F7555
:1018200074205072696E746572004D3630302042FB
:10183000300054756E6500496E666F2053637265A3
:10184000656E00454550524F4D2056657273696F65
:101850006E204572726F7200454550524F4D2049BF
:101860006E646578204572726F7200454550524F24
:101870004D20435243204572726F72003F0049670A
:101880006E6F726500496E697469616C697A652072
:10189000454550524F4D00486F6D696E6720466157
:1018A000696C6564006F70656E0054524947474526
:1018B000524544007A5F6D696E00795F6D61780012
:1018C000785F6D6178005265706F7274696E672021
:1018D000656E6473746F70207374617475730A003D
:1018E0004175746F20486F6D650054656D70657249
:1018F0006174757265005045544700504C4100506A
:1019000072656865617420240050726F6265205AA8
:10191000204F6666736574004D61696E004469739B
:1019200061626C65205374657070657273004D3828
:101930003400473238005072656865617420242095
:10194000456E6400507265686561742024204265AC
:101950006400436F6F6C646F776E0046616E205356
:1019600070656564004E6F7A7A6C6500466C6F77BF
:1019700000FB18F618202D20496E76616C696420F2
:101980006578747275646572206E756D626572201B
:10199000210A00544845524D414C2052554E415762
:1019A000415900546865726D616C2052756E6177A3
:1019B0006179004572723A204D415854454D5000AE
:1019C0004D415854454D5020747269676765726582
:1019D00064004572723A204D494E54454D50004DB9
:1019E000494E54454D50207472696767657265644D
:1019F00000202F002042403A0020403A0020573A71
:101A000000FFFFFFFFEFFFFFFFFFFFFFFFFFFFFFF5
:101A1000EFEFFFFFFFFFFFFFFFFFFFE7DFFFFFFF2E
:101A2000FFFFFFFFFFFFE7DFFFFFFFFFFFFFFFFFFE
:101A3000FFE3DFFFFFFFFFFFFFFFFFFFF3CFFFFF2E
:101A4000FFFFFFFFFFFFE1E1CFFFFFFFFFFFFFFE13
:101A500078000003DDFFFFFFFFFEFF807E0001EE48
:101A6000FFFFFFFFFE7DCFFC0000F77FFFFFFFFFC2
:101A70008E060000007BBFFFFFFFFFC000000000DC
:101A80007DDFFFFFFFFFFC01FE00003EE7FFFFFFE1
:101A9000FFFFFFFC00031F73FFFFFFFFFFFFF800C6
:101AA000018F81FFFFFFFFFFFFE0000083F9FFFFD1
:101AB000FFFFFFFF00FC0000F0FFFFFFFFFFE00F54
:101AC000FFC00000FFFFFFFFFE03FFFFC00000FF9D
:101AD000FFFFFFFFFFFFF9000000FFFFFFFFFFFF19
:101AE000FFFC0007C0FFFFFFFFFFFFFFFF0007E055
:101AF000FFFFFFFFFFFFFFFFE007F1FFFFFFFFFF1B
:101B0000FFFFFFFC07F9FFFFFFFFFFFFFFFFFF03E2
:101B1000F9FFFFFFFFFFFFFFFFFF83F9FFFFFFFF5D
:101B2000FFFFFFFFFFC3FFFFFFFFFFFFFFFFFFFF01
:101B3000E1FFFFFFFFFFFFFFFFFFFFF0BFFFFFFF22
:101B4000FFFFFFFFFFFBF83FFFFFFFFFFFFFFFFF70
:101B5000F9F83FFFFFFFFFFFFFFFFF7EF0FFFFFFF2
:101B6000FFFFFFFFFFFF8E03FFFFFFFFFFFFFFFFF2
:101B7000FFE01FFFFFFFFFFFFFFFFFFFFFFFFFFF74
:101B8000FFFFFFFFFFFFFFFFFFFFFFFFFFFFFFFF65
:101B9000FFFFFFFF7FFFFFFFFF00007FFFFFF87FDA
:101BA000FFFFFFFF80007FFFFFE07FFFFFFFFFC31E
:101BB000FCFFFFFFF8FFFFFFFFFFC3FCFFFFFFF885
:101BC000FFFFFFFFFF87FDFFFFFFF1FFFFFFFFFFAD
:101BD00087FFFFFFFFF1FFFFFFFFFF0FE7F30FFCA2
:101BE00023FC3FFFFFFF0FEF8007F003F01E007F95
:101BF000FE1FCF8187C787C70C007FFE001FC7C7A6
:101C00008FC79F0F0CFFFE001F878F1F8F1F0F1F97
:101C1000FFFC3F9F8F8F1F8E001E3FFFFC7F3F0FFB
:101C20001E3F1E3FFE3FFFF87FFF1F1C3F1C7FFC37
:101C30007FFFF8FFFF1E1C7E1C7FFC7FFFF0FFCEA6
:101C40003E3C7E3C7FB8FFFFF0FF9E3C387C387EF8
:101C500078FFFFE1FF3C7C787C783CF1FFFFE1F806
:101C6000387878101801F1FFFF000060203C007CFC
:101C700007807FFFFFFFFFFFFE1FFE1FFFFFFF1F0D
:101C8000FFFFFFFFFFFF600000000001FF400000BA
:101C9000000000FF8000000000007F83CF00000CE8
:101CA000303F87FF80000C301F867980000C000FCA
:101CB0008C30C7838C30E78C30CFC7CC31F38C307D
:101CC000DCECEC33B98C30D86C6C33198C30D06CC4
:101CD0000C33198C30D86C0C33198C30DC6C0E3B07
:101CE000198C30CF7C079F198C30C77C038F19402B
:101CF000000000000002600000000000061FFFFF5F
:101D0000FFFFFFF870012C0190012701B0012201B3
:101D1000C0011D01F00118011002130130020E0173
:101D20006002090190020401C002FF000003FA00F2
:101D30004003F5008003F000D003EB002004E60030
:101D40007004E100E004DC004005D700C005D200CB
:101D50004006CD00D006C8008007C3003008BE0092
:101D6000F008B900C009B400B00AAF00B00BAA0077
:101D7000D00CA500000EA000500F9B00C0109600D4
:101D80005012910000148C00C0158700B01782001B
:101D9000B0197D00D01B7800001E730040206E003B
:101DA00090226900F024640040275F0090295A00C7
:101DB000E02B5500102E500020304B001032460012
:101DC000E033410090353C00103737007038320066
:101DD000A0392D00B03A2800A03B2300603C1E0033
:101DE000103D1900903D1400103E0F00703E0A0097
:101DF000C03E0500003F0000403FFBFF803FF6FF74
:101E0000C03FF1FF68747470733A2F2F6D61726C6C
:101E1000696E66772E6F7267006275676669782DE6
:101E2000322E302E78002020506C616E6E6572422A
:101E3000756666657242797465733A200020467251
:101E40006565204D656D6F72793A2000436F6D7046
:101E5000696C65643A204F6374202031203230323F
:101E6000300A00204C61737420557064617465649D
:101E70003A20323032302D30392D3330207C204121
:101E80007574686F723A2028446576696E204B61DC
:101E9000697365722C20456E6465722D3520507211
:101EA0006F290A006275676669782D322E302E78A8
:101EB0000A004D61726C696E0020536F6674776121
:101EC00072652052657365740A00205761746368F7
:101ED000646F672052657365740A002042726F77E1
:101EE0006E206F75742052657365740A0020457802
:101EF0007465726E616C2052657365740A00506F70
:101F000077657255700A00456E6473746F70730064
:101F10002553202563202563202563202563006544
:101F20006E6473746F7073206869743A2000456E34
:101F3000636C6F73757265001FE020102010201015
:101F400010201020201020103030084004800300A2
:101F50001FE03FF03FF03FF01FE01FE03FF03FF099
:101F60003FF00FC0078003003FFFF038007030FCE7
:101F70003020FC102078102030102C00D02E31D0D2
:101F80002F7BD02F7BD02E31D02C00D020301020B2
:101F9000781020FC1030FC303800703FFFF03FFF1D
:101FA000F03800703186302387102787902F87D034
:101FB0002F03D02030102078102078102030102FE0
:101FC00003D02F87D02787902387103186303800A1
:101FD000703FFFF01FFFF81FFFF8041040020820B9
:101FE0000208200410400820801041001041000821
:101FF00020800410400000001FFFF81FFFF81E00A3
:10200000800078100080004010A39960701CD4A557
:1020100080081094BD0F081094A100481E939D00E5
:1020200030000000000000000000000003800000FD
:10203000000240000000025660000003989000007B
:10204000021090000002109000000210600020209A
:1020500020202020200000000000000000000000E0
:10206000000053657474696E67732053746F7265F2
:10207000640053657474696E67732053746F72657E
:10208000642028004F6666004F6E0045207374651B
:1020900070732F6D6D005A2053746570732F6D6DC2
:1020A00000592053746570732F6D6D005820537460
:1020B0006570732F6D6D00466164652048656967C2
:1020C0006874004C6576656C204265640047323860
:1020D0000A4732390020496E76616C696420657860
:1020E00074727564657220004361703A00526573C2
:1020F000656E643A200042656420436F6F6C696EC0
:10210000672E2E2E004265642048656174696E67F3
:102110002E2E2E0023646566696E65204445464177
:10212000554C545F004B6420004B6920004B7020DD
:1021300000504944204175746F74756E652066695E
:102140006E69736865642120507574207468652019
:102150006C617374204B702C204B6920616E64207D
:102160004B6420636F6E7374616E74732066726F5C
:102170006D2062656C6F7720696E746F20436F6E9F
:1021800066696775726174696F6E2E680A005049DE
:1021900044204175746F74756E65206661696C6565
:1021A00064212074696D656F75740A000A20436CA0
:1021B000617373696320504944200A00204B643ADC
:1021C0002000204B693A2000204B703A2000205418
:1021D000753A2000204B753A2000206D61783A2036
:1021E00000206D696E3A200020643A200020626968
:1021F00061733A2000504944204175746F74756EC4
:10220000652073746172740A0050494420417574EA
:102210006F74756E65206661696C65642120546514
:102220006D706572617475726520746F6F20686976
:1022300067680A00504944204175746F74756E6573
:1022400000504944204175746F74756E6520666155
:10225000696C6564212042616420657874727564DC
:102260006572206E756D6265720A0000002100249F
:102270000027002A0000002200250028002B000073
:1022800000200023002600290002020202020202AE
:102290000204040404040404040303030303030307
:1022A00003010101010101010101020408102040A4
:1022B0008001020408102040800102040810204020
:1022C0008080402010080402010000000102000983
:1022D0000A000000000403080700000000000000DE
:1022E0000000000000000000004D6F76652025739F
:1022F0006D6D004D6F766520302E316D6D004D6F28
:10230000766520316D6D004D6F76652031306D6DD5
:10231000004D6F7665204178697300486F74656E73
:102320006420746F6F20636F6C64004578747275FD
:10233000646572004D6F7665205A004D6F7665209A
:1023400059004D6F76652058004572723A207574B9
:10235000663820666F6E74206E6F7420696E6974C3
:1023600069616C697A65642E00000C0F00FE07023B
:102370002503BB017FFE08FE08FE050808060000D5
:1023800040F0C88888987810050808060000C0F852
:102390008888888888F80505050600012030F8300F
:1023A000200508080600002070F820202020E00505
:1023B00009090600FF2070A8A8B8888870200705C2
:1023C00005070001D86C366CD80509090600FFF82E
:1023D000A88888888888A8F8050A0A0600FE205080
:1023E00050505088A8A8887003030306000340A03B
:1023F00040FFFFFFFFFFFFFFFFFFFFFFFFFFFFFFAC
:10240000FFFFFFFFFFFFFF0000000605FF010707BA
:10241000060200808080808000800303030601059F
:10242000A0A0A005060606000050F85050F8500580
:1024300009090600FF2070A8A07028A870200507D1
:1024400007060000C8C81020409898050707060036
:102450000040A0A040A89068010303060205808008
:10246000800309090601FF20404080808040402011
:102470000309090601FF80404020202040408005DC
:10248000070706000020A8702070A8200505050693
:1024900000012020F820200203030601FFC0408035
:1024A000050101060003F8020202060100C0C00592
:1024B00007070600000810102040408005070706A7
:1024C0000000708898A8C8887003070706010040BC
:1024D000C040404040E00507070600007088081033
:1024E0002040F8050707060000F80810300888703B
:1024F00005070706000010305090F8101005070778
:10250000060000F880F0080888700507070600003C
:10251000304080F0888870050707060000F8081032
:102520001020202005070706000070888870888822
:10253000700507070600007088887808106002059B
:1025400005060100C0C000C0C00206060601FFC0AB
:10255000C000C040800305050601012040804020E6
:10256000050303060002F800F803050506010180D3
:1025700040204080050707060000708810202000DA
:10258000200507070600007088B8A8B88070050706
:1025900007060000708888F8888888050707060005
:1025A00000F04848704848F00507070600007088AA
:1025B0008080808870050707060000F0484848487A
:1025C00048F0050707060000F88080F08080F805D5
:1025D0000707060000F88080F08080800507070666
:1025E00000007088808098887005070706000088C2
:1025F0008888F8888888030707060100E040404083
:102600004040E005070706000038101010109060E9
:102610000507070600008890A0C0A090880507075E
:10262000060000808080808080F805070706000093
:1026300088D8A8888888880507070600008888C881
:10264000A898888805070706000070888888888809
:1026500070050707060000F08888F0808080050775
:102660000706000070888888A8906805070706009C
:1026700000F08888F0A090880507070600007088A1
:102680008070088870050707060000F820202020C9
:10269000202005070706000088888888888870053C
:1026A000070706000088888888505020050707061D
:1026B000000088888888A8A85005070706000088B9
:1026C0008850205088880507070600008888502019
:1026D000202020050707060000F80810204080F899
:1026E0000309090601FFE080808080808080E0058A
:1026F0000707060000804040201010080309090663
:1027000001FFE020202020202020E0050303060018
:10271000052050880501010600FEF80303030601A9
:1027200005804020050505060000700878887805BA
:1027300007070600008080F0888888F005050506F8
:102740000000708080887005070706000008087880
:10275000888888780505050600007088F080700577
:102760000707060000304840E040404005070706E4
:1027700000FE7088888878087005070706000080CA
:1027800080F0888888880307070601004000C04061
:102790004040E00409090601FE100030101010103E
:1027A000906005070706000080808890E09088030D
:1027B0000707060100C04040404040E0050505060F
:1027C0000000D0A8A8A8A8050505060000B0C88884
:1027D0008888050505060000708888887005070749
:1027E0000600FEF0888888F080800507070600FE56
:1027F00078888888780808050505060000B0C88034
:10280000808005050506000078807008F005070740
:102810000600002020F820202018050505060000ED
:1028200088888898680505050600008888885020F3
:102830000505050600008888A8A8500505050600BE
:102840000088502050880507070600FE88888850B9
:10285000204080050505060000F8102040F8030917
:10286000090601FF20404040804040402001090906
:102870000602FF80808080808080808003090906B6
:1028800001FF804040402040404080050303060097
:102890000248A890FF2062797465733B20637263DD
:1028A00020004E6F20454550524F4D2E0A004545A1
:1028B00050524F4D206461746173697A652065726E
:1028C000726F722E0A002073746F726564207365D4
:1028D0007474696E67732072657472696576656475
:1028E000202800202863616C63756C61746564291D
:1028F000210A0020213D2000454550524F4D2043E4
:102900005243206D69736D61746368202D202873B4
:10291000746F7265642920002053697A653A20003B
:10292000496E6465783A2000204D61726C696E3D95
:10293000563831290A00454550524F4D2076657270
:1029400073696F6E206D69736D61746368202845CB
:102950004550524F4D3D0048617264636F64656439
:102960002044656661756C742053657474696E6784
:1029700073204C6F616465640A003B200020204D89
:10298000363033200020550046696C616D656E74E9
:10299000206C6F61642F756E6C6F6164206C656E66
:1029A000677468733A0020204D3835312058005A3A
:1029B0002D50726F6265204F66667365740020202B
:1029C0004D33303120500050494420736574746990
:1029D0006E67733A0020460020480020204D3134B5
:1029E000352053004D6174657269616C20686561C2
:1029F00074757020706172616D65746572733A00F0
:102A00002020473239205720490020204D343230D1
:102A10002053004175746F20426564204C657665D3
:102A20006C696E673A0020204D32303620580048DD
:102A30006F6D65206F66667365743A00204A0020EA
:102A4000204D323035204200416476616E6365640A
:102A50003A20423C6D696E5F7365676D656E745FA9
:102A600074696D655F75733E20533C6D696E5F667A
:102A7000656564726174653E20543C6D696E5F7477
:102A8000726176656C5F66656564726174653E202F
:102A90004A3C6A756E635F6465763E0020204D3265
:102AA0003034205000416363656C65726174696FF6
:102AB0006E2028756E6974732F7332293A20503C4A
:102AC0007072696E745F616363656C3E20523C7224
:102AD0006574726163745F616363656C3E20543C2E
:102AE00074726176656C5F616363656C3E00202083
:102AF0004D3230312058004D6178696D756D20413F
:102B00006363656C65726174696F6E2028756E69A8
:102B100074732F7332293A0020450020204D323043
:102B2000332058004D6178696D756D206665656468
:102B300072617465732028756E6974732F73293AF6
:102B40000053746570732070657220756E69743AF5
:102B50000020440020204D323030205300204469B2
:102B60007361626C65640A0046696C616D656E74C0
:102B70002073657474696E67733A0020204D313498
:102B8000392043203B20556E69747320696E2043C1
:102B9000656C736975730A0020286D6D290020200B
:102BA000473231202020203B20556E697473206904
:102BB0006E206D6D000000FA430000FA430000A093
:102BC000400000C8413D8AA042856BA042CD5C47D1
:102BD000443D8AC042F4010000F40100006400009A
:102BE0000088130000205A3A200020593A20004261
:102BF000656420583A20005072696E7420506175E7
:102C00007365640050726F62696E67204661696C1B
:102C100065640A0050726F62696E67204661696C74
:102C2000656400220A00556E6B6E6F776E20636FCD
:102C30006D6D616E643A202200456E6465722D35BB
:102C40002050726F2052656164792E005072696E57
:102C500074696E672E2E2E0020453A00205A3A00E5
:102C600020593A00D9E511241FBECFEFD0E4DEBFD2
:102C7000CDBF12E0A0E0B1E0E8E4F9EE01E00BBF67
:102C800002C007900D92A033B107D9F72EE0A0E360
:102C9000B2E001C01D92AD3FB207E1F716E1C3E318
:102CA000D6E104C02197FE010E9433F2C233D1075E
:102CB000C9F70E9414E10C94A2F40C9400002F9226
:102CC0003F924F925F926F927F928F929F92AF92BC
:102CD000BF92CF92DF92EF92FF920F931F93CF9309
:102CE000DF93CDB7DEB7E0970FB6F894DEBF0FBE27
:102CF000CDBF20912D032EA721E020932D0380919D
:102D00002C038D3409F49DC3843511F40C948B2667
:102D1000873411F00C94B02680912A0390912B03F4
:102D20008C31910509F436C18CF48430910509F495
:102D3000D2C01CF4029738F180C38531910511F49B
:102D40000C94B2264B9709F405C177C38A329105DA
:102D500009F44CC244F48D31910509F42BC14E970E
:102D600009F447C16AC38B35910509F4BCC18C35A0
:102D7000910509F4BDC18A35910509F05EC3109231
:102D800029030C94B22680912803813011F00C9411
:102D9000B22648E1C42E43E0D42E56E6E52E51E09B
:102DA000F52E6BEEA62E6EE0B62E10E088E5810FB4
:102DB0000E94E678882319F10E9466782B013C0175
:102DC000812F0E9443C4882351F0D7012D913D915A
:102DD0004D915C91C301B2010E944FF209C0F5010F
:102DE0002081318142815381C301B2010E944EF2A0
:102DF000D6016D937D938D939C9313970AC0F70131
:102E000080819181A281B381F60180839183A28325
:102E1000B3831F5FF4E0CF0ED11C24E0E20EF11C5F
:102E200034E0A30EB11C133009F685E40E94E67865
:102E3000882301F10E9466786B017C0183E00E9487
:102E400043C4882371F02091720130917301409145
:102E5000740150917501C701B6010E944FF26B01D8
:102E60007C01C0922403D0922503E0922603F092C5
:102E7000270310C08091720190917301A091740199
:102E8000B09175018093240390932503A0932603AA
:102E9000B093270340E050E0BA0186E40E942BBCC7
:102EA00020E030E0A9010E94D2F3181684F40E94B9
:102EB000667820E030E040E752E40E94D2F260936E
:102EC00080017093810180938201909383010E941D
:102ED00006420C94B22680E50E94E678882329F009
:102EE0000E94334D6B017C0103C0C12CD12C7601B3
:102EF00083E50E94E678882361F00E94667820E0EE
:102F000030E04AE754E40E949EEB0E944BF36B01D1
:102F10007C010E944EB48091C302811105C060E023
:102F200084E297E00E945B8E0E9471A0C60ED71EBD
:102F3000E81EF91E0E9471A0DC01CB018C199D09CD
:102F4000AE09BF09B7FD02C00C94B22680E00E9412
:102F50004532F0CF87E00E94B04181110C94B22637
:102F60008CE0E4E8F1E0DE01119601900D928A9583
:102F7000E1F780E50E94E678882321F00E942E7810
:102F8000862F01C080E0BE016F5F7F4F0E949F8D42
:102F90000C94B2268091C2028770873011F00C9495
:102FA000C52660E08FE40E940E7981110C94B22650
:102FB0000C94C5260E9471A06093BD027093BE025E
:102FC0008093BF029093C00287E00E94B0418111BC
:102FD0000C94B2268091C102882311F40C94CE285F
:102FE00060E08FE40E940E7981110C94B2260C945B
:102FF000CE282091DA0E3091DB0E4091DC0E5091FC
:10300000DD0E609166017091670180916801909179
:1030100069010E944FF2AB01BC0188E50E942BBC04
:1030200069837A838B839C832091DE0E3091DF0E3F
:103030004091E00E5091E10E60916A0170916B0138
:1030400080916C0190916D010E944FF2AB01BC0127
:1030500089E50E942BBC6D837E838F839887BE0198
:103060006B5F7F4FCE0101960E948176882311F419
:103070000C94B22680E00E940B7D0E947D4561E0A9
:1030800085E40E940E7921E0482FBE016B5F7F4FDF
:10309000CE0101960E94E0DE6B017C019B01AC0138
:1030A0000E9450F4811119C049815A816B817C8141
:1030B0008FEE9BE20E940D324D815E816F8178859B
:1030C0008AEE9BE20E940D32B701A60185EE9BE2DB
:1030D0000E940D328AE00E94F82F0E9464450E94EF
:1030E000AB480C94B2268FE0809329030C94B2264F
:1030F00090E9292E91E0392E2FEAE22E22E0F22EDD
:1031000026E631E03BA32AA33BEEC32E3EE0D32EBE
:1031100000E010E0D1018D911D010E94E678882326
:1031200009F44BC00E9466782B013C01133049F032
:10313000F60120813181428153810E944EF22B01A0
:103140003C01AAA1BBA12D913D914D915C91C30180
:10315000B2010E944EF24B015C012DEB37E346E8D1
:1031600055EB0E94D2F387FD0AC02DEB37E346E80A
:1031700055E3C501B4010E9438EB1816F4F413307E
:1031800051F44092720150927301609274017092F6
:10319000750101E012C0A5019401F7016081718100
:1031A000828193810E944FF2D7016D937D938D931D
:1031B0009C931397812F0E947D411F5FB4E0EB0E1B
:1031C000F11CEAA1FBA13496FBA3EAA3F4E0CF0E25
:1031D000D11C143009F09ECF002321F082E791E04A
:1031E0000E945FB40E94AB480C94B22680912803E1
:1031F000813011F00C94B22689E40E94E678E82E22
:10320000882321F00E946278082F01C000E08AE440
:103210000E94E678F82E882321F00E946278182F09
:1032200001C010E0EE2011F0033020F4FF2041F047
:10323000133030F088EE96E00E94FF2F0C94B226F7
:1032400080E1E6E6F1E0A8E1B3E001900D928A9515
:10325000E1F7EE2019F1602F000F770B880B990B27
:103260000E943FEB20919F023091A0024091A10269
:103270005091A2020E949EEB2091A7023091A802D9
:103280004091A9025091AA020E944FF26093180344
:103290007093190380931A0390931B03FF2019F175
:1032A000612F110F770B880B990B0E943FEB209138
:1032B000A3023091A4024091A5025091A6020E945F
:1032C0009EEB2091AB023091AC024091AD02509147
:1032D000AE020E944FF260931C0370931D03809313
:1032E0001E0390931F0360E080E50E940E798823FF
:1032F000C1F1EE20D1F02091DA0E3091DB0E409139
:10330000DC0E5091DD0E60911803709119038091CD
:103310001A0390911B030E944EF26093180370935E
:10332000190380931A0390931B03FF20D1F020917F
:10333000DE0E3091DF0E4091E00E5091E10E609173
:103340001C0370911D0380911E0390911F030E9426
:103350004EF260931C0370931D0380931E039093A1
:103360001F0340E050E0BA0186E40E942BBC6B01D1
:103370007C0120E030E0A9010E94D2F318165CF431
:1033800020E030E040E752E4C701B6010E94D2F2EB
:103390006B017C0103C0C12CD12C7601809080018F
:1033A00090908101A0908201B090830120E030E0F4
:1033B000A901C701B6010E9438EB882341F0C092F1
:1033C0008001D0928101E0928201F092830100910C
:1033D00021011091220184E690E0909322018093D4
:1033E0002101C0902701D0902801E0902901F090A0
:1033F0002A0180E090E0A0E8BFE38093270190934A
:103400002801A0932901B0932A010E9406428092CC
:10341000800190928101A0928201B0928301109369
:10342000220100932101C0922701D0922801E0924D
:103430002901F0922A010C94B2260E9470DE0C94AD
:10344000B22680912A0390912B038139910509F4CA
:10345000F5C50CF087C08936910509F4B7C20CF0A8
:1034600048C08C34910509F45CC2FCF482319105AA
:1034700009F414C46CF497FF02C00C9488268230BF
:1034800091050CF431C1419709F466C10C9488266A
:103490008A32910509F428C28B34910509F43DC2A2
:1034A0004F9711F00C94882674C18335910509F467
:1034B000EDC37CF48135910509F4CBC30CF0DEC378
:1034C0008D34910511F00C9488260E94368A0C9454
:1034D000B2268535910509F41AC40CF4DFC38C3586
:1034E000910509F439C48836910509F41EC20C947B
:1034F00088268137910509F435C39CF48D369105F2
:1035000009F43AC23CF48B36910509F4B1C20CF4CB
:1035100071C217C38F36910509F4C8C20CF4B3C247
:1035200016C38637910509F43DC564F483379105C8
:1035300009F4A5C40CF49CC48537910509F421C590
:103540000C9488268837910509F469C50CF464C584
:103550008937910509F46BC58C38910509F42CC3A2
:103560000C9488268F3231E0930711F40C94CB240D
:103570000CF052C08E3C910509F4A7C6FCF4893CBE
:10358000910509F416C674F48E3B910509F435C310
:10359000883C910509F4C6C58B39910511F00C944E
:1035A00088262FC38C3C910509F448C60CF07AC6D6
:1035B0008B3C910509F423C60C948826823E910524
:1035C00009F4E4C774F48C3D910509F462C78D3D9C
:1035D000910509F485C7833D910511F00C94882667
:1035E00092C68232B1E09B0711F40C94A9233CF4FB
:1035F0008831914011F40C9412230C9488268D325A
:1036000021E0920711F40C9407248E32914011F4BA
:103610000C9487240C948826843FA1E09A0711F427
:103620000C94B12584F58A39E1E09E0709F496C22D
:10363000ACF4813921E0920711F40C94CE24823944
:1036400031E0930711F40C94D8248039914011F0A3
:103650000C9488260E944EB40C94B226853AB1E0B0
:103660009B0711F40C94DD248C3AE1E09E0711F4E1
:103670000C945425843A914011F00C9488260E94B1
:10368000667F0C94B226883F31E0930711F40C94C6
:10369000C0256CF4863FB1E09B0711F40C94B4256F
:1036A00014F00C94B7250E947CD70C94B2268B356D
:1036B000F2E09F0711F40C94D0254CF48835924029
:1036C00011F00C9488260E943E490C94B226833552
:1036D000A3E09A0711F40C944926873E934011F415
:1036E0000C947A260C94882680E50E94E67888233C
:1036F00029F00E94334D6B017C0103C0C12CD12CF9
:10370000760183E50E94E678882361F00E9466785E
:1037100020E030E04AE754E40E949EEB0E944BF325
:103720006B017C010E944EB480919D0290919E029B
:10373000009721F061E00E94AF8E05C060E085ED4A
:1037400096E00E945B8E40E0C701B6010E944F36B2
:103750000E9468DD0C94B2268091990284FF02C019
:103760000C94D12880919B0287FF02C00C94D12831
:1037700080919C02837011F00C94D12860E08CEC55
:1037800096E00E945B8E5E985E9815985E980C9409
:10379000B2260E94AE897B018C0120E831E541E030
:1037A00050E00E948EF1C9016DE671E00E940BF2BB
:1037B0004B015C01C801B70120E13EE040E050E070
:1037C0000E948EF1CA01B90128E130E040E050E0EA
:1037D0000E948EF1762E672EC62ED72E8CE3282ED1
:1037E000312C412C512CC801B701A20191010E943A
:1037F0008EF1F62EE72ECA01B901A20191010E94B5
:103800008EF1CB018E010F5F1F4F8114910499F04F
:10381000EF92FF927F936F936F927F92BF92AF92DE
:103820009F928F928BEA96E09F938F931F930F93B3
:103830000E94D0EA13C0A114B104B1F0EF92FF923C
:103840007F936F936F927F92BF92AF928FEA96E0D1
:103850009F938F931F930F930E94D0EA0FB6F89413
:10386000DEBF0FBECDBF30C0CD2879F0EF92FF9202
:103870007F936F936F927F9283EB96E09F938F93EA
:103880001F930F930E94D0EAE9CF892B69F0EF9242
:10389000FF927F936F9387EB96E09F938F931F9395
:1038A0000F930E94D0EADACFEF92FF928BEB96E073
:1038B0009F938F931F930F930E94D0EA0F900F90C6
:1038C0000F900F900F900F9060E0C8010E94AF8E94
:1038D0000E942530B8018FEB96E00E940E308AE0FE
:1038E0000E94F82F0C94B2266FEF7FEF80E50E94C4
:1038F000F3788C0197FF02C00C94B226E82E60E0AA
:1039000089E40E940E7981110C94E328802F0E9493
:10391000EFE0811158C60C94E3280E94FD890C94B5
:10392000B2260E94218A0C94B2268091B90883FFA6
:1039300002C00C94B2260E941AC487FF02C00C94E5
:10394000B22689E40E94E678882311F40C941A299F
:103950000E943E7890E01816190614F481E090E079
:1039600026E0289FF001299FF00D1124E357FD4F19
:10397000808191810C9424298091B90883FF02C031
:103980000C94B2260E941AC4F82E87FF02C00C9431
:10399000B22689E40E94E678082F882311F40C945B
:1039A0002D290E943E7890E01816190614F481E043
:1039B00090E026E0289FF001299FF00D1124E357A5
:1039C000FD4F8081918110E00C943D290E941AC422
:1039D000182F87FD0AC08FE892E00E94FF2F812FE9
:1039E0000E94F5998AE00E94F82FEEA5E0932D033E
:1039F0000C94BF2B60E080E50E94027981110C9449
:103A0000B22681E40E949D78882329F06091F50315
:103A1000062F10E002C00FEF10E089E40E94E67864
:103A2000882399F00E943E7890E01816190614F445
:103A300081E090E026E0289FF001299FF00D1124FD
:103A4000E357FD4F0481158108C083E50E94E678A5
:103A5000882319F00E942E788B01B8010F3F1105C1
:103A600019F010F06FEF70E06093F5030C94B2263C
:103A700060E080E50E94027981110C94B2261092D8
:103A8000F5030C94B2268EE40E94E678882311F4A4
:103A90000C94B2260E942E786093890270938A0259
:103AA00080938B0290938C020C94B22683E50E9443
:103AB0009D78882331F060E083E50E94027980934D
:103AC000B9080E9425308EE796E00E94FF2F809172
:103AD000B908882369F109E3E02E07E0F02E00E041
:103AE00010E020E08091B90890E0A0E0B0E0002E66
:103AF00004C0B695A795979587950A94D2F780FF4D
:103B00000EC0DD24D394D20E222319F08CE20E9441
:103B1000F82FF701859194910E94FF2F2D2D0F5FB3
:103B20001F4FF2E0EF0EF11C05301105D9F604C06D
:103B30008AE796E00E94FF2F8AE00E94F82F0C94FB
:103B4000B22610928802109220010C94B22641E015
:103B500060E070E08CE696E00E9429300E94C42D5F
:103B60000C94B22683E50E94E678882381F00E94B7
:103B70003E78282F30E02D33310524F480931F0147
:103B80000C94B2268CE380931F010C94B2260E9401
:103B90002530C0901F01D12CE12CF12C85E696E058
:103BA0000E94FF2F4AE0C701B6010E94F5308AE06B
:103BB0000E94F82F0C94B2268091B90883FF02C0AE
:103BC0000C94B22689E40E94E678882311F40C94C0
:103BD00086290E943E7890E01816190614F481E0B8
:103BE00090E026E0289FF001299FF00D1124E35773
:103BF000FD4F628173810C9490290E9435C00C9412
:103C0000B22683E50E94E678882311F40C94B2264C
:103C10000E943E78182F90E0CD970CF01CE3109393
:103C20007C020E9471A06B017C01212F30E0A8EE84
:103C3000B3E00E94E2F1C60ED71EE81EF91EC09244
:103C40007802D0927902E0927A02F0927B020C9490
:103C5000B2260E94A89D0E94368A0E94BEB50E948C
:103C6000F54C68EE73E080E090E00E948C2D60E0FF
:103C700084E596E00E945B8E0C94B2268091290325
:103C80008F7D8061809329030C94B2268091290353
:103C90008F7E8062809329030C94B22683E50E9474
:103CA000E6788823F1F00E9471A06093BD027093C2
:103CB000BE028093BF029093C0020E94667820E00B
:103CC00030E04AE754E40E949EEB0E944BF360937D
:103CD0001B0170931C0180931D0190931E010C9495
:103CE000B2268091990284FF02C00C94A32980918E
:103CF0009B0287FF02C00C94A32980919C028370D1
:103D000011F00C94A3290E94BEB50C94B22683E551
:103D10000E949D78882311F40C94B2260E9471A011
:103D20006093BD027093BE028093BF029093C00265
:103D30000E94667820E030E04AE754E40E949EEB5F
:103D40000E944BF360937402709375028093760225
:103D5000909377020C94B2260E941AC487FF02C087
:103D60000C94B2269091990294FD04C090919B020C
:103D700097FF0AC0B0E9CB2EB1E0DB2E1AEBE12EA3
:103D800018E0F12E10E009C090919C02937091F719
:103D9000682F81E00E94F84CE5C7D6018D916D0136
:103DA0000E94E678882309F459C0133009F04FC007
:103DB0000E9466784B015C0120E030E040EA51E46B
:103DC0000E9438EB87FF3AC0A50194016091DA08A0
:103DD0007091DB088091DC089091DD080E94D2F29E
:103DE0002B013C019B01AC016091EA087091EB084A
:103DF0008091EC089091ED080E949EEB6093EA0898
:103E00007093EB088093EC089093ED086091E903C0
:103E10007091EA038091EB039091EC030E943DEBDB
:103E2000A30192010E949EEB0E944BF36093E90371
:103E30007093EA038093EB039093EC038092DA088B
:103E40009092DB08A092DC08B092DD0807C00E94C7
:103E50006678F701648B758B868B978B1F5FF4E018
:103E6000EF0EF11C143009F098CF0E9466B37AC7A8
:103E70000E9403DD84E89DE00E943F6F73C788E7DE
:103E800095E00E94FF2F60E088E695E00E9400C464
:103E900060E083E595E00E9400C461E080E998E17C
:103EA0000E9400C461E088E495E00E9400C461E0E3
:103EB00088E395E00E9400C460E08FE295E00E94F4
:103EC00000C461E085E295E00E9400C461E08BE1FE
:103ED00095E00E9400C460E084E195E00E9400C487
:103EE00061E08CE095E00E9400C461E08EEF94E018
:103EF0000E9400C460E080EF94E00E9400C460E093
:103F000081EE94E00E9400C460E083ED94E00E94A2
:103F100000C460E08DEB94E00E9400C460E08CEA95
:103F200094E00E9400C460E08DE994E00E9400C427
:103F300060E086E994E00E9400C460E081E894E0DB
:103F40000E9400C460E083E794E00E9400C461E046
:103F500080E694E00E9400C460E083E594E00E9463
:103F600000C460E08EE494E00E9400C461E081E45B
:103F700094E00E9400C460E08DE294E00E9400C4DE
:103F8000F1C680919D0290919E02009741F0DC0164
:103F90002C91222321F060E00E94AF8EE3C60E94A4
:103FA00068DDE0C600919D0210919E0294E0F12C24
:103FB00040E0915021F1F8018081282F2B7F21349E
:103FC00021F421812133D9F407C08035C1F48181E6
:103FD00080538A3048F013C0813421F0853421F4B5
:103FE00041E002C0FF24F39498012E5F3F4F890106
:103FF0002F5F3F4FF80180818032C9F3DACF411142
:104000000E942530FF2021F089E294E00E94FF2FDA
:10401000C8010E942432A6C60E944289A3C681E03C
:104020008093BC028093BB020E9491899BC6109230
:10403000BC021092BB020E94918994C660E070E0BD
:1040400083E50E94F378823038F00E94213087E0C7
:1040500094E00E94FF2F86C68C01112788E40E94FD
:10406000E6788823E1F00E9462788A3A910544F06C
:104070000E9462788530914034F40E94627805C0D5
:104080008AEA90E002C084E091E026E0209FF001FF
:10409000219FF00D1124E357FD4F9183808382E42B
:1040A0000E94E6788823D9F00E946278059744F050
:1040B0000E9462788437910534F40E94627805C0CA
:1040C00085E090E002C083E790E026E0209FF001C9
:1040D000219FF00D1124E357FD4F9383828386E4E3
:1040E0000E94E678882309F43DC60E94627897FD15
:1040F00009C00E9462788F3F910509F034F40E9454
:10410000627805C080E090E002C08FEF90E026E08A
:10411000209FF001219FF00D1124E357FD4F95835F
:10412000848320C60E941AC4182F87FD1BC60091E5
:10413000730284E40E94E678882311F40C94C82961
:104140000E9466786B017C0120E030E0A9010E94AA
:1041500038EB882341F124E01202F0011124E159E7
:10416000FD4FC082D182E282F38220E030E0A901DB
:1041700060916F0270917002809171029091720251
:104180000E9438EB81110CC080E090E0A0EEBFE30C
:1041900080936F0290937002A0937102B0937202A9
:1041A00001E00C94C82980E0809373020E94023ED3
:1041B000D9C50E941AC487FDD5C5F0E9EF2EF1E0FC
:1041C000FF2E0AEB18E0AAECCA2EA8E0DA2ED701DF
:1041D0008D917D010E949D78882359F00E94667818
:1041E0000E944BF3F80160837183828393830E9462
:1041F0001FB30C5F1F4FC016D10649F7B3C50E940D
:104200001AC487FDAFC5E0E9EE2EE1E0FE2E0AEB11
:1042100018E0D7018D917D010E949D78882339F0A7
:104220000E946678F80164A375A386A397A30C5F28
:104230001F4FF8E00A3C1F0761F794C580919A026E
:1042400087FF02C00C94CE2980919B028E7011F0E2
:104250000C94CE294091EE085091EF086091F0083F
:104260007091F10887EF93E00E940D324091F208BF
:104270005091F3086091F4087091F50884EF93E091
:104280000E940D324091F6085091F7086091F808AD
:104290007091F90881EF93E00E940D328AE00E944C
:1042A000F82F60C58091990281FF02C00C94142AF6
:1042B00080919A0281FF02C00C94142A80919B0283
:1042C0008C7011F00C94142A4DC573E6E72E72E041
:1042D000F72E10E088E5810F0E949D78882359F021
:1042E0000E946678D7016D937D938D939C9313976D
:1042F000812F0E947D411F5FB4E0EB0EF11C133053
:1043000049F70C94F2184090EB0E5090EC0E609030
:10431000ED0E7090EE0E209103013091040140915A
:10432000050150910601C301B2010E944FF26AA338
:104330007BA38CA39DA38090EF0E9090F00EA09095
:10434000F10EB090F20E20910701309108014091DA
:10435000090150910A01C501B4010E944FF26EA3F8
:104360007FA388A799A7C090F30ED090F40EE09099
:10437000F50EF090F60E20910B0130910C0140915A
:104380000D0150910E01C701B6010E944FF26AA7BC
:104390007BA78CA79DA720910F0130911001409120
:1043A000110150911201C301B2010E944FF22B0181
:1043B0003C0120911301309114014091150150915D
:1043C0001601C501B4010E944FF24B015C0120911E
:1043D0001701309118014091190150911A01C7013C
:1043E000B6010E944FF26B017C010E94253082ECE5
:1043F00093E00E94FF2F83E50E949D78882321F09F
:104400000E9452788093020180910201882319F062
:1044100083E09AE002C084E795E00E94FF2F8AEBD8
:1044200093E00E94FF2F4AA15BA16CA17DA184EFC4
:104430009AE20E940D324EA15FA168A579A58FE393
:1044400093E20E940D324AA55BA56CA57DA588E389
:1044500093E20E940D3284E590E20E94FF2F82EBEE
:1044600093E00E94FF2FB301A20184EF9AE20E9421
:104470000D32B501A4018FE393E20E940D32B70122
:10448000A60188E393E20E940D328AE00E94F82F91
:1044900069C483E50E94E678882331F00E9462783F
:1044A00090932201809321018091990290919A0228
:1044B000A0919B02B0919C02892B8A2B8B2B09F037
:1044C00051C460912101709122018EEA93E00E9413
:1044D0008B3185E20E94F82F8AE00E94F82F42C4B7
:1044E0000E941AC4F82E87FD3DC483E50E94E67839
:1044F0000F2D0F2C000C110B882369F10E9462789C
:10450000F801EE0FFF1FE050FF4F91838083000FF3
:10451000111F000F111FF801E95DFE4F7F01BC0163
:10452000990F880B990B0E943FEB2AE037ED43E28D
:104530005CE30E949EEBF801E15AFD4F208131813E
:10454000428153810E949EEBD7016D937D938D93A1
:104550009C93139707C40E94253085E40E94F82F8E
:1045600080E38F0D0E94F82F000F111FF801E0501B
:10457000FF4F6081718186EA93E00E948B3185E272
:104580000E94F82F8AE00E94F82FECC380E50E9479
:104590009D78882309F4E6C360E070E080E50E941E
:1045A000F378F82E6FEF7FEF83E50E94F3788C01AC
:1045B0000196039708F0D6C3F7FCD4C38F2D0E9451
:1045C000EFE0882339F00E9421308AE896E00E94CB
:1045D000FF2FC8C30E944EB460E08F2D0E94C9C750
:1045E0000F3FBFEF1B0731F00130110571F000E004
:1045F00010E00DC08F2D0E9471C731E020E0892BA3
:1046000009F030E0032F122F02C001E010E08F2DDF
:104610000E9471C78017910709F4A4C380E00E942B
:104620004532F5CF80E50E949D78882309F49AC32E
:104630000E9462788C01892B09F07FC083E50E947B
:104640009D78882389F00E9462788F3FEFEF9E0764
:1046500029F488E69DE00E94E92D84C3BC0188E628
:104660009DE00E94442E7EC30E94253060E070E0F1
:104670008EE993E00E948B3180916A0D28E532E04B
:104680006901C81AD10887FDD394CC0CDD1CCC0C71
:10469000DD1C0D2C000CEE08FF088091690D28E848
:1046A00030E04901881A910887FD9394880C991C81
:1046B000880C991C092C000CAA08BB088091680D75
:1046C0008F3FC1F090E0FC01EE0FFF1F8E0F9F1F88
:1046D000FC01ED5BF24F2181328183E0220F331F19
:1046E0008A95E1F794E0369527959A95E1F72E5F44
:1046F0003F4F02C020E030E02F5F3F4FC901330F32
:10470000AA0BBB0B9C01AD01281939094A095B09A9
:10471000A4EBB0E00E94CFF1A70196012819390956
:104720004A095B090E94B0F1B90185E19EE00E944F
:104730008B318AE00E94F82F15C30E942130B80106
:104740008FE993E00E948B3182EF96E00E94FF2F69
:1047500009C38AE50E94E678811105C083E50E94BD
:10476000E6788823C9F10E94667820E030E040E0D6
:1047700050EC0E9438EB87FDB6C60E94667820E0B8
:1047800030E040E050E40E94D2F318160CF4A5C6C5
:104790000E9466786B017C0184E00E949D4181113A
:1047A00011C02091D6083091D7084091D808509177
:1047B000D908C701B6010E949EEB0E9444F3CB01C9
:1047C0000E946D2D80E50E949D78882309F491C692
:1047D0000E94527881118DC680919B0287FDAFC6E1
:1047E00080919C02837009F0AAC60E9425304091F6
:1047F000E20E5091E30E6091E40E7091E50E8FE8A9
:1048000093E00E940D328AE00E94F82FABC260E074
:1048100085E40E940279811173C080E50E949D7831
:10482000882351F00E9466786093250D7093260DC1
:104830008093270D9093280D89E40E949D7888230A
:1048400081F00E9466782CEA35EC47E25EE30E9434
:104850009EEB6093290D70932A0D80932B0D9093FE
:104860002C0D84E40E949D78882381F00E94667854
:104870002CEA35EC47E25EE30E94D2F260932D0D04
:1048800070932E0D80932F0D9093300D0E94253044
:104890004091250D5091260D6091270D7091280DA6
:1048A00089E793E00E940D322CEA35EC47E25EE3A3
:1048B0006091290D70912A0D80912B0D90912C0DF6
:1048C0000E94D2F2AB01BC0185E793E00E940D3259
:1048D0002CEA35EC47E25EE360912D0D70912E0DD0
:1048E00080912F0D9091300D0E949EEBAB01BC0189
:1048F00081E793E00E940D328AE00E94F82F32C2D5
:104900000E9421308DE793E00E94FF2F2BC283E5A8
:104910000E949D78182F882371F00E9466780E946B
:1049200044F370932C0160932B0121E0672B09F075
:1049300020E02093060480E50E949D78882359F0AA
:1049400020912B0130912C01232B11F00E945278E1
:104950008093060407C2111105C20E9425308EE51E
:1049600093E00E94FF2F80910604882319F080E4D1
:1049700098E102C085E493E00E94FF2F60912B0133
:1049800070912C018DE493E00E948B3189E493E0D7
:104990000E94FF2FE7C10E9442BCE4C18091D90E62
:1049A00081110C94F21881E00E941BB20C94F21851
:1049B0000E9478760E94AB48D5C16FEF7FEF89E403
:1049C0000E94F378082F6FEF7FEF8AE40E94F3785C
:1049D000182F8AE50E94E678811108C081E50E94BF
:1049E000E678B82E882309F4B0C501C0B12CA02EFA
:1049F00081E0800F843008F050C0912E81E0810F5B
:104A0000843008F04AC00E9466782B013C01F02EE9
:104A100007FDF12C07FF02C0A2E0AA2E812E17FD90
:104A2000812C17FF02C0F2E09F2EAF1408F49AC148
:104A3000E82C8F2D90E06C01CC0CDD1CC80ED91E2B
:104A40009E1448F10E2D10E0BB2071F0F601E00F2E
:104A5000F11FEE0FFF1FEE0FFF1FE55CFD4F2081E2
:104A600031814281538103C020E030E0A9010C0D67
:104A70001D1D000F111F000F111F055C1D4FC301ED
:104A8000B2010E944FF2D8016D937D938D939C9358
:104A90001397E394D5CFF394C8CF0E94213088EECA
:104AA00096E00E94FF2F5EC187E00E94B041811115
:104AB00059C10DE217E0E6E6F1E0FBA3EAA39E018F
:104AC0002F5F3F4F19014BE5C42E47E0D42E7901EB
:104AD000C8010E94434DAAA1BBA18D909D90AD90AD
:104AE000BD90BBA3AAA3A50194010E944EF22B0185
:104AF0003C01F701608371838283938320E030E07F
:104B000040EA51EC0E94D2F387FD0AC020E030E079
:104B100040EA51E4C301B2010E9438EB18162CF4AC
:104B2000F601849118160CF417C5D7018D909D904D
:104B3000AD90BD907D0120E030E040EA51ECC50130
:104B4000B4010E94D2F387FD12C520E030E040EAB4
:104B500051E4C501B4010E9438EB18160CF015C5DC
:104B600006C50E94D8ADFEC00E943BD6FBC061E0E6
:104B700083E50E940E7991E089270E948AD7F2C0CE
:104B800020933A020E94ABCF10923A02882309F494
:104B9000E9C00E9425308EED92E00E94FF2FE2C016
:104BA0000E941AC4082F87FDDDC085E50E949D780C
:104BB0008823B1F1E02E002E000CFF080E946678D9
:104BC0004B015C0120E030E0A9010E94D2F387FF95
:104BD00004C0B7FAB094B7F8B094C70123E0880FC7
:104BE000991F2A95E1F79C012E5C3D4F7901D9016F
:104BF0008D929D92AD92BC92139720E030E048E4F4
:104C000053E4C501B4010E94D2F318164CF480E0BD
:104C100090E0A8E4B3E4F70180839183A283B38397
:104C20008CE40E949D78882309F49CC0002E000C1F
:104C3000110B0E9466786B017C0120E030E0A90135
:104C40000E94D2F387FF04C0F7FAF094F7F8F094CB
:104C500020E030E048E453E4C701B6010E94D2F3FB
:104C6000980193E0220F331F9A95E1F7F901EE5C6A
:104C7000FD4F18162CF0C482D582E682F78272C0EE
:104C800080E090E0A8E4B3E484839583A683B783AF
:104C900069C080919B0287FDA2C480919C028370B1
:104CA00009F09DC44091DA0E5091DB0E6091DC0E4C
:104CB0007091DD0E8FEC92E00E940D324091DE0E7D
:104CC0005091DF0E6091E00E7091E10E8FE393E260
:104CD0000E940D324091E20E5091E30E6091E40E7D
:104CE0007091E50E88E393E20E940D328AE00E9403
:104CF000F82F38C081E0809328031092310260E0E1
:104D000083E50E940E7981112DC00E942DC22AC018
:104D10000E9470DE27C000912A0310912B030E948D
:104D200071A06093BD027093BE028093BF02909306
:104D3000C0020023B9F00E94253084E50E94F82FBC
:104D4000B8017727072E000C880B990B0E946F3152
:104D500080E20E94F82F8DE793E00E94FF2F02C0AF
:104D60000E9470DEE0913002F0E0EC52F24F808160
:104D7000882339F08FE892E00E94FF2F8AE00E949A
:104D8000F82FFEA5F0932D03FAC40E944EB4209193
:104D9000C1022FA780E00E940B7D0E9471A060934A
:104DA000BD027093BE028093BF029093C0020E9426
:104DB0007D4581E08093BC020E9491898AE50E9432
:104DC0009D78E82E8823A1F081E00E949D41182F54
:104DD00082E00E949D4101E0811101C000E01111BB
:104DE00009C088E50E949D78F82E811103C0C2C1D8
:104DF00000E0F7CF002309F4B3C1E012BFC111E016
:104E0000FF24F39481E08AA782E50E94E678882354
:104E100019F00E94667804C060E070E080EA90E4D7
:104E20006E8F7F8F88A399A320E030E0A9010E94B4
:104E300038EB882361F0F11006C0111104C09AA567
:104E4000992309F47CC1CE014E960E947EDEFF209C
:104E500009F4D3C0112309F4CDC010926601109259
:104E60006701109268011092690110926A01109214
:104E70006B0110926C0110926D010E945747EBE597
:104E8000F7E0A491A8AB8FE497E00E94434D6B013B
:104E90007C0183E597E00E94434D4B015C019B013F
:104EA000AC01C701B6010E94D2F318162CF4A70179
:104EB0009601C501B40104C0A5019401C701B60162
:104EC0000E94D2F22B013C01E7E4F7E08591959135
:104ED000A591B4918AA39BA3ACA3BDA3E3E4F7E09F
:104EE00085919591A591B4918EA39FA3A8A7B9A7E9
:104EF0009C01AD016AA17BA18CA19DA10E94D2F36E
:104F0000181634F42EA03FA008A599A59AA305C0B1
:104F10002AA03BA00CA1ADA1AAA3A3019201C301A9
:104F2000B2010E949EEB20E030E040E85FE30E9487
:104F30004FF20E9410F49101402F5AA10E949EEB63
:104F40006A8F7B8F8C8F9D8FECE5F7E0049120E0DA
:104F500030E040EC5FE3C501B4010E949EEB4B01E1
:104F60005C01602F000F770B880B990B0E943FEBC1
:104F70009B01AC01C501B4010E949EEB69837A8359
:104F80008B839C8320E030E040EC5FE3C701B601F7
:104F90000E949EEB6B017C01B8A96B2FBB0F770BB6
:104FA000880B990B0E943FEB9B01AC01C701B60136
:104FB0000E949EEB6E8B7F8B888F998FAE01465E31
:104FC0005F4FBE016F5F7F4FCE0146960E945D46E8
:104FD0000E94A089109266011092670110926801E8
:104FE0001092690110926A0110926B0110926C018B
:104FF00010926D0180E00E945947112319F081E061
:105000000E945947EAA5EE2309F499C080E00E9466
:10501000767A83E00E94B041811191C00E94574787
:1050200040906E0150906F0160907001709071011E
:105030002091DA0E3091DB0E4091DC0E5091DD0EA6
:1050400060E070E08CED92E40E944EF26B017C0116
:10505000609318037093190380931A0390931B03B2
:105060002091DE0E3091DF0E4091E00E5091E10E66
:1050700060E070E08CED92E40E944EF24B015C0126
:1050800060931C0370931D0380931E0390931F0372
:105090002091E20E3091E30E4091E40E5091E50E26
:1050A000C301B2010E944EF260932003709321036A
:1050B000809322039093230327E137EB41ED58EBD4
:1050C000C501B4010E94D2F387FD5CC027E030E047
:1050D0004CE553E4C501B4010E9438EB18160CF4FA
:1050E00051C027E137EB41ED58EBC701B6010E94F3
:1050F000D2F387FD47C027E030E04CE553E4C70119
:10510000B6010E9438EB1816ECF11E8A1F8A188E21
:10511000198E88E0E8E1F3E0DE01119601900D922E
:105120008A95E1F7AE014A5E5F4FBE016B5F7F4F2C
:10513000CE0101960E945D4682E00E9459470E947E
:1051400057478091BB028093BC028FA50E940B7DC4
:105150000E94644583E0809323010E94AB4802CE05
:1051600001E089E50E949D78182F801709F445CE4B
:10517000F02E06C00023A9F3102F02C0102FF02E2E
:10518000EAA642CE60E083E197E00E945B8E0E9437
:10519000253081E097E00E94FF2FD1CF0E94494D3A
:1051A000E1CD88E50E949D7881115E9889E50E9495
:1051B0009D7881115E988AE50E949D78882309F484
:1051C000D1CD1598CFCD8DE40E94E6788823A9F043
:1051D0000E943E78813039F020F0823049F462E05C
:1051E00003C060E001C061E0802F0E94C9C705C014
:1051F00089E996E00E94FF2FB5CD83E50E94E6780D
:10520000882309F4AFCD0E943E78F82EB4E0EB126B
:1052100003C08093F503A6CD61E0802F0E94C9C72B
:105220006F2D802F0E949AC76F2D70E0802F0E94F3
:1052300005C898CD83E50E94E678882359F00E943E
:1052400066780E9444F3CB010E94E59961E080E01A
:105250000E948F9D0E9450E585CD83E50E94E678EF
:10526000182F811105C082E50E94E678882341F15C
:105270000E9466780E9444F3CB010E94E59961E0A8
:1052800081E00E948F9D6091220D7091230D072E69
:10529000000C880B990B0E943FEB4B015C01409086
:1052A0001E0D50901F0D6090200D7090210DA301D8
:1052B00092010E94D2F3181634F1112359F001E043
:1052C0000E9450E5002309F44DCD612F8F2D0E94DF
:1052D000679A48CDA3019201C501B4010E94D2F39F
:1052E00018168CF08AEF90E29F938F9385E896E0F2
:1052F0009F938F931F920E94948E0F900F900F9008
:105300000F900F90DCCF89E091E2EECF83E50E9411
:10531000E678882309F426CD0E9466780E9444F33B
:10532000633771056CF4962F872F909385028093D5
:1053300086020E94159861E080E00E948F9D12CD48
:1053400093E780E0F2CF0E944EB488E50E949D78FA
:10535000882331F05E9A8091D80E8E7F8093D80E8C
:1053600089E50E949D78882331F05E9A8091D80E5D
:105370008D7F8093D80E8AE50E949D78882309F45A
:10538000F1CC159A8091D80E8B7F8093D80EEACC01
:10539000602F83E50E940E790C94D42083E50E944F
:1053A000E678882391F00E9466786093EE08709307
:1053B000EF088093F0089093F1086093F6087093DB
:1053C000F7088093F8089093F90880E50E94E67842
:1053D000882351F00E9466786093EE087093EF087E
:1053E0008093F0089093F10882E50E94E678882384
:1053F00051F00E9466786093F2087093F3088093EE
:10540000F4089093F50884E50E94E678882309F46F
:10541000A9CC0E9466786093F6087093F708809391
:10542000F8089093F9089ECC82E40E949D78882326
:1054300051F00E94334D6093CA087093CB0880935B
:10544000CC089093CD0883E50E949D78882351F085
:105450000E9466786093FA087093FB088093FC08BA
:105460009093FD0884E50E949D78882351F00E9466
:1054700066786093FE087093FF088093000990930C
:1054800001098AE40E949D78882309F46BCC0E946C
:1054900066786B017C012AE037ED43E25CE30E9411
:1054A000D2F387FD13C02AE939E949E95EE3C70170
:1054B000B6010E9438EB18164CF0C092D903D09276
:1054C000DA03E092DB03F092DC034CCC0E94213043
:1054D00082ED93E00E94FF2F45CCC12CD12CE12C12
:1054E00010E4F12E59C9C12CD12CE12CB0ECFB2ECB
:1054F00053C9A70196016091E20E7091E30E80916D
:10550000E40E9091E50E0E944FF26093E20E7093CC
:10551000E30E8093E40E9093E50E0E9425304091B7
:10552000E20E5091E30E6091E40E7091E50E8FE86B
:1055300093E00E940D328AE00E94F82F4DC982E567
:105540000E949D78811151C90DCC0E94213085E2C5
:1055500093E00E94FF2F06CCB7FAB094B7F8B0944E
:10556000D7018D929D92AD92BC921397DECA0E9494
:10557000213087E093E00E94FF2F61E089EF92E005
:105580000E945B8E0E945CA1EDCB0C5F1F4FBFEFB2
:10559000CB1ADB0AE9E3F7E0E017F10709F098CA54
:1055A00033E6E32E32E0F32E10E0F1018191919188
:1055B000A191B1911F01F70181939193A193B193AF
:1055C0007F01812F0E947D411F5F133071F70E9480
:1055D000AB4860E089EE92E00E945B8EC3CBF09115
:1055E000DA0EFAA38090DB0E7090DC0E6090DD0E78
:1055F0005090DE0E4090DF0E3090E00E2090E10ED5
:10560000C090E20ED090E30EE090E40EF090E50E34
:1056100088E50E94E678882361F10E9466785B0144
:105620008C0120E030E04CE553EC0E94D2F387FD82
:105630000AC020E030E04CE553E4B501C8010E9407
:1056400038EB181694F46CED70E08CEB92E00E944D
:105650008B316CED70E087EB92E00E948B3186E23B
:1056600094E00E94FF2F10E005C0AAA28B2C702EA0
:10567000612E11E089E50E94E678882381F10E947D
:105680006678962EA72EB82E092F20E030E04CE544
:1056900053EC0E94D2F387FD0CC020E030E04CE5D3
:1056A00053E4692D7A2D8B2D902F0E9438EB18161C
:1056B00094F46CED70E084EA92E00E948B316CED22
:1056C00070E087EB92E00E948B3186E294E00E94CA
:1056D000FF2F10E004C0592C4A2C3B2C202E8AE5C9
:1056E0000E94E678882339F10E9466786B017C017C
:1056F00020E030E040EA51EC0E94D2F387FD0AC07E
:1057000020E030E040EA51E4C701B6010E9438EBE6
:1057100018168CF46CEE7FEF82E992E00E948B31D8
:1057200064E170E087EB92E00E948B3186E294E0C6
:105730000E94FF2F17CB112309F414CB8AA1982DB7
:10574000A72DB62D8093DA0E9093DB0EA093DC0E7E
:10575000B093DD0E852D942DA32DB22D8093DE0EFA
:105760009093DF0EA093E00EB093E10EC092E20E94
:10577000D092E30EE092E40EF092E50EF3CAE096CA
:105780000FB6F894DEBF0FBECDBFDF91CF911F9152
:105790000F91FF90EF90DF90CF90BF90AF909F90D0
:1057A0008F907F906F905F904F903F902F900895D3
:1057B0002F923F924F925F926F927F928F929F9221
:1057C000AF92BF92CF92DF92EF92FF920F931F930F
:1057D000CF93DF93CDB7DEB72E970FB6F894DEBF29
:1057E0000FBECDBF182FF62E042FA22E282F30E08B
:1057F0003A872987862F90E09C878B87220F331F5B
:10580000E985FA852E0F3F1F3E872D87FC01E20FA9
:10581000F31FEE0FFF1FEE0FFF1FE55CFD4F6081D2
:105820007181828193819B01AC010E9450F4882395
:1058300009F43AC1100F6F2D6A0D812F90E0DC0141
:10584000AA0FBB1FA80FB91FEB85FC85EA0FFB1F32
:10585000EE0FFF1FEE0FFF1FE55CFD4FB080C18014
:10586000D280E380100F812F90E0AC01440F551FD0
:10587000480F591FEB85FC85E40FF51FEE0FFF1F46
:10588000EE0FFF1FE55CFD4FF080018112819380D8
:10589000862F90E0ED85FE85E80FF91FEE0FFF1FC4
:1058A000EE0FFF1FE55CFD4F8080718062805380AA
:1058B0006A0D70E02D853E85260F371F220F331F9E
:1058C000220F331F255C3D4F3E872D87F901408015
:1058D0003180A2802380A80FB91FAA0FBB1FAA0F77
:1058E000BB1FA55CBD4FFC91F98311962C911197BC
:1058F0002A8312963C9112973B8313968C918C834A
:10590000FA01E60FF71FEE0FFF1FEE0FFF1FE55C1A
:10591000FD4F90819D8321812E8332813F8383813E
:1059200088872F2D302F412F592D6F2D702F812FCC
:10593000992D0E9450F4882321F0F12C00E010E012
:10594000912C2B2D3C2D4D2D5E2D6B2D7C2D8D2DD9
:105950009E2D0E9450F4882319F0BF2C6801E92C79
:10596000242D332D4A2D522D642D732D8A2D922DE9
:105970000E9450F4882321F0412C312CA12C212CA1
:10598000282D372D462D552D682D772D862D952DBB
:105990000E9450F4882321F0842C732C6A2C522C02
:1059A0002D813E814F8158856D817E818F819885C3
:1059B0000E9450F4882321F01D821E821F821886C7
:1059C00029813A814B815C8169817A818B819C81BB
:1059D0000E9450F4882341F09D819983EE81EA83EF
:1059E000FF81FB8328852C8389859A85880F991FE1
:1059F000E985FA858E0F9F1F2B853C85820F931FAB
:105A0000880F991F880F991F855C9D4F9A878987FA
:105A10002B2D3C2D4D2D5E2D6B2D7C2D8D2D9E2DFA
:105A20000E944FF22F2D302F412F592D0E944EF200
:105A30006B017C01282D372D462D552D682D772D96
:105A4000862D952D0E944FF2242D332D4A2D522D57
:105A50000E944EF29B01AC01C701B6010E944FF2B9
:105A60006B017C0129813A814B815C8169817A815A
:105A70008B819C810E944FF22D813E814F81588500
:105A80000E944EF29B01AC01C701B6010E944FF289
:105A900020E030E040E450E40E94D2F2E985FA854B
:105AA00060837183828393832E960FB6F894DEBF52
:105AB0000FBECDBFDF91CF911F910F91FF90EF905F
:105AC000DF90CF90BF90AF909F908F907F906F901E
:105AD0005F904F903F902F9008952091A1033091B7
